:020000022000DC
:1070000000000420757302005D7302005F730200CC
:1070100061730200637302006573020000000000E8
:1070200000000000000000000000000025A3020096
:10703000697302000000000049A302006D730200A2
:1070400021CD02006F73020079370300B9DE020020
:107050006F7302006F7302007DD102006F73020034
:107060006F730200000000006F7302006F73020074
:107070006F7302006F7302006F7302006F73020080
:107080000000000059A602006F7302006F73020037
:107090006F7302006F730200292D03006F730200EB
:1070A0006F7302006F7302006F7302006F73020050
:1070B0006F7302006F730200000000000000000008
:1070C0006F7302006F7302006F7302006F73020030
:1070D0006F7302006F7302006F7302006F73020020
:1070E0006F7302006F7302006F73020000000000F4
:1070F000000000006F730200000000006F730200C8
:10710000000000000000000000000000000000007F
:10711000000000000000000000000000000000006F
:10712000000000000000000000000000000000005F
:10713000000000000000000000000000000000004F
:10714000000000000000000000000000000000003F
:10715000000000000000000000000000000000002F
:10716000000000000000000000000000000000001F
:10717000000000000000000000000000000000000F
:1071800000000000000000000000000000000000FF
:1071900000000000000000000000000000000000EF
:1071A00000000000000000000000000000000000DF
:1071B00000000000000000000000000000000000CF
:1071C00000000000000000000000000000000000BF
:1071D00000000000000000000000000000000000AF
:1071E000000000000000000000000000000000009F
:1071F000000000000000000000000000000000008F
:10720000354936480A1A02D0072291438D4634493F
:1072100034480A1A06D00722914381F309880222D2
:1072200082F3148830483149314A00F044F831483B
:107230003149324A00F03FF831483249324A00F0D1
:107240003AF832483249334A00F035F83248334987
:10725000334A00F030F833483349344A00F02BF811
:1072600033483449344A00F026F83448344900227F
:1072700000F02CF833483449002200F027F8334856
:107280003349091A082902DB002202604160314AB1
:1072900090471F481F49884205D00268043003B454
:1072A000904703BCF7E700208646EC46002000210B
:1072B000294A9047FEE7884207D0521A05D0037842
:1072C00001300B700131013AF9D17047884202D088
:1072D00002700130FAE770470000042000F8032034
:1072E00000000420000004207C8603007859002060
:1072F000245A0020D0730200D0730200DC66030021
:107300007C86030078590020785900200868030023
:107310000868030014680300086803000868030095
:107320000868030014680300146803007C860300E7
:1073300028870300245A0020245A0020245A0020C1
:107340001C9300201C9300201C9300201C93002001
:107350001C9700209D73020001EE0200FEE7FEE78D
:10736000FEE7FEE7FEE7FEE7FEE7FEE7FEE7FEE7F5
:1073700000F002B8FFF7FCBF0F484FF00701884349
:1073800085460E4880470E48016841F4700101604F
:10739000BFF34F8FBFF36F8FFFF732BF09480A4922
:1073A0000A4A884207D0521A05D0037801300B7080
:1073B0000131013AF9D1704700000420AD9E02006E
:1073C00088ED00E008680300785900207859002013
:1073D000FEE7000000B585B00190019B002B0AD0AC
:1073E000074B43F001030393019B9B010293039B13
:1073F0000298984700E000BF05B05DF804FB00BFAD
:107400002068030000B583B00190019B002B0AD0D7
:107410004FF47A70FFF7DEFF019B013B0193019B64
:10742000002BF5D100E000BF03B05DF804FB08B508
:1074300008F0F2FA00BF08BD00B589B003900291D0
:107440000192019B002B33D0002307930323069363
:10745000029A079B1344019A1946002008F0A2F9EA
:107460000590079A059B13440793019A059BD31A2D
:107470000193059B002B13D10F4B1B7883F0010365
:10748000DBB2002B13D10120FFF7BCFF069B013BB1
:107490000693069B002B03D1074B00221A7007E0CE
:1074A000054B01221A70019B002BD1D100E000BFD7
:1074B00000BF09B05DF804FB245A002000B585B078
:1074C00003900291054B00934023054A02990398CB
:1074D00000F012F800BF05B05DF804FB397402003B
:1074E000285A002082B0019000BF02B0704782B0DD
:1074F000019000BF02B0704700B5A1B005900491A3
:1075000003920293049802F01FFA039B1593029BC7
:1075100016930023179300238DF8603000231993EE
:10752000229B1A9300231F930FA91F9B08220498E4
:1075300002F0C8FA08231F93119B1293BDF8403044
:10754000ADF84C30BDF84230ADF84E3000238DF828
:1075500051309DF83C3003F00303DBB2012B26D100
:107560000F9BC3F395231C939DF83C30C3F3C203D8
:10757000DBB28DF85030BDF83C30C3F38313DBB27F
:107580001B931B9B9A0009A91F9B049802F09AFA6F
:107590001B9B9B001F9A13441F9312AA09A915ABAA
:1075A000009313461B9A1C9800F094FE2FE09DF860
:1075B0003C3003F00303DBB2022B28D1BDF83E3090
:1075C000C3F389139BB21E939DF83C30C3F3C203EF
:1075D000DBB28DF850301E9B082B28BF08231D936B
:1075E00007A91F9B1D9A049802F06CFA1F9A1D9B15
:1075F00013441F931E9A1D9BD31A1E9315AB12AAF8
:1076000007A81D9900F008FF1E9B002BE3D10498EA
:1076100002F0A9F900BF21B05DF804FB82B001902F
:10762000019BDB6801225A7100BF02B07047000065
:1076300000B583B04FF0FF330193FFF7F8FE04214C
:10764000054800F063FD01900348FFF7E7FF00BF26
:1076500003B05DF804FB00BFF867030000B583B01A
:1076600001900091019B1B681B6800990198984745
:1076700000BF03B05DF804FB00B583B00190019B2F
:107680001B685B680198984700BF03B05DF804FB76
:1076900000B583B00190019B1B689B6801989847D7
:1076A00000BF03B05DF804FB82B001900B468DF87B
:1076B0000330019BDB689DF803201A7100BF02B004
:1076C000704782B00190019BDB681B79184602B0BD
:1076D000704782B00190019BDB6801225A7100BFA4
:1076E00002B0704782B00190019BDB685B7918465D
:1076F00002B0704700B585B0019000910C4B00229C
:107700001A700C4802F084F80390039B002B01D000
:10771000039B08E0084802F0E9F9084A084BD31A2D
:10772000DB0802930023184605B05DF804FB00BF98
:10773000D05B00205C67030038680300F867030033
:1077400070670300024A034BD31ADB0818467047E0
:10775000F86703007067030000B587B001900B461F
:107760008DF803309DF80330002B1FD0FFF7EAFFA0
:1077700004900023059313E0059B9B000E4A1344DD
:107780000393039B1B881A46019B1B689A4204D1F2
:10779000019B059A1A60002309E0059B01330593BC
:1077A000059A049B9A42E7D3052300E0002318467C
:1077B00007B05DF804FB00BF7859002000B585B024
:1077C00001900B468DF803309DF8032001AB114664
:1077D0001846FFF7C1FF0346002B07D1019BDB00D2
:1077E000054A13440393039B1B6800E000231846DB
:1077F00005B05DF804FB00BF7067030084B0019022
:107800000B468DF80330019BDB00174A13440293AB
:107810009DF80330013B032B1CD801A252F823F042
:107820003178020039780200417802004B7802007A
:1078300002238DF80F3011E004238DF80F300DE096
:10784000029B1B798DF80F3008E0029B5B798DF865
:107850000F3003E000238DF80F3000BF9DF80F308C
:10786000184604B0704700BF7067030084B00190F1
:10787000009100238DF80F30019B1B7803F0040367
:10788000DBB2002B24D0019B1B78C3F30103DBB2D6
:10789000012B02D0022B0CD017E0009B1B68019A31
:1078A0001288C2F38312D2B213449A1C009B1A604E
:1078B0000BE0009B1B68019A5288C2F3891292B2B6
:1078C00013449A1C009B1A6000BF01238DF80F30EF
:1078D0009DF80F30184604B07047000000B58BB01B
:1078E0000023ADF826303B4801F06EF93A4801F02C
:1078F0006BF93A4B9B680493394B1B680693049AC7
:10790000069B134002339B00344A1344043308930C
:1079100004AB19460898FFF7A9FF0346002B09D0CE
:10792000049A069B134002339B002C4A13440433F1
:107930000893EDE700BF0023079311E0049B5A1C56
:107940000492069A1340079A920001A90A44234917
:1079500002339B000B445B681360079B0133079362
:10796000079B012BEAD99DF80430C3F30103DBB276
:10797000012B10D0022B1CD1BDF80A30ADF82630F7
:10798000BDF80630C3F389139BB203339A08049BF6
:10799000134404930EE0BDF80A30ADF82630BDF86C
:1079A0000430C3F38313DBB21A46049B13440493DD
:1079B00000E000BF084801F013F90590059B002B7B
:1079C00002D0049B054A9360BDF8263018460BB0E0
:1079D0005DF804FBE85F0020E45F0020D05B00203E
:1079E0008059002000B585B00021074801F05DF8FE
:1079F0000390039B0293029B83F310030193019B6B
:107A0000184605B05DF804FBEC5F002000B589B0B6
:107A10000390029101920093039B1B0C0693FFF7C6
:107A2000E1FF0790079B1904009B5A1C0A9B134017
:107A3000069A0A431B4902339B000B445A60009A82
:107A40000A9B134002339B00164A134404330593E8
:107A5000039B03F00703D9B2059A137861F3C503BA
:107A60001370019B03F00F03D9B2059A138861F3D9
:107A700089131380029BC3F31501059A136861F300
:107A80009F231360059A1378012161F3010313709A
:107A9000059A13786FF38203137000BF09B05DF885
:107AA00004FB00BFD05B002000B58DB003900291B5
:107AB00013468DF80730039B02330A9301238DF898
:107AC000273000238DF81B300DF11B03184600F002
:107AD00023FF404B5A68029B1A603F4B1A683D4B8C
:107AE00099683C4B5B68CB1A134401330B9314E049
:107AF00001213A4801F038F8FFF7F0FE07900799A6
:107B0000364801F031F8344B1A68324B9968314BE2
:107B10005B68CB1A134401330B930A9A0B9B9A426E
:107B2000E6D89DF82730002B48D0002305939DF818
:107B30000730002B17D09DF81430012262F30103A7
:107B40008DF814309DF8143043F004038DF8143090
:107B5000039B03F00F03DAB2BDF8143062F389130C
:107B6000ADF8143016E09DF81430022262F30103E0
:107B70008DF814309DF8143043F004038DF8143060
:107B8000039BC3F309039AB2BDF8163062F38F1357
:107B9000ADF816300F4B5A680F4B1B681340023379
:107BA0009B000C4A134404330893059A089B1A60FF
:107BB000084B5A680A9B1344064A53609DF81B30D1
:107BC000184600F0B3FE9DF8273018460DB05DF85A
:107BD00004FB00BFD05B002080590020EC5F002038
:107BE00000B58BB005900491039202931F4B1B6864
:107BF000079306AB012219460298FFF755FF03468B
:107C0000002B24D0069B023309930023089311E034
:107C1000089B9B00039A1A44099B591C09910799D8
:107C20000B401268124902339B000B445A60089BB8
:107C300001330893089A029B9A42E9D3069A079B5C
:107C400000931346029A04990598FFF7DFFE084B4C
:107C50001B78002B05D000BF00F04EF80346002B28
:107C6000FAD100BF0BB05DF804FB00BF80590020C3
:107C7000D05B002000B583B001900091002300226A
:107C800000990198FFF7ACFF00BF03B05DF804FB5B
:107C900000B587B0039002910192019B059305AA5C
:107CA000012302990398FFF79BFF00BF07B05DF81F
:107CB00004FB00B587B00390029101920093019BF1
:107CC0000493009B059304AA022302990398FFF7EB
:107CD00087FF00BF07B05DF804FB0000054B9A6802
:107CE000044B5B689A420CBF01230023DBB21846A9
:107CF000704700BFD05B002000B599B0FFF7EEFFE2
:107D00000346002B01D00023C0E19B4B0022C3F8A7
:107D10001824BFF34F8F00BF974B9B680493974B7A
:107D20001B681093049A109B134002339B00924AE5
:107D30001344043311930023179300231693002355
:107D40000F9304AB19461198FFF790FD0346002BE3
:107D500019D0894BD3F81834002B14D1864B5A68AC
:107D6000049B9A4205D8844B5B68834A9360002346
:107D70008CE1049A109B134002339B007E4A13440B
:107D800004331193DDE70023159311E0049B5A1C83
:107D90000492109A1340159A920001A90A44764958
:107DA00002339B000B445B681360159B01331593F2
:107DB000159B012BEAD99DF8043003F00303DBB2D5
:107DC000022B40F09C80BDF80630C3F389139BB2B0
:107DD0000D93BDF80630C3F389139BB2502B28BF17
:107DE00050239BB20C930C9BC3F309039AB2BDF8CA
:107DF000063062F38F13ADF806300C9B08330B93FB
:107E00009DF80430C3F3C203DBB20F930B995C48B7
:107E100001F009FD1790179B002B00F0D3801798F5
:107E200001F092FD01A9169B0822179801F036FE79
:107E3000169B08331693049BDA43109B13400133BF
:107E40009B000A930C9A0A9B9A4242D90A9B002BE8
:107E500008D0049A109B134002339B00464A1344F7
:107E6000043300E0474B08930A9B002B02D00A9B87
:107E7000DBB201E00C9BDBB28DF81F300A9B002BBC
:107E800001D0404B00E0002306930A9B002B06D054
:107E90000C9BDAB20A9BDBB2D31ADBB200E0002300
:107EA0008DF817309DF81F20169B0899179801F040
:107EB000F5FD9DF81F30169A13441693069B002B70
:107EC00016D09DF81720169B0699179801F0E6FD2D
:107ED0000EE0049A109B134002339B00264A134481
:107EE00004330993169B0C9A0999179801F0D6FD53
:107EF0000D9B03339A08049B1344049362E09DF89E
:107F0000043003F00303DBB2012B5BD1BDF8043076
:107F1000C3F38313DBB2062B28BF0623DAB2BDF806
:107F2000043062F38913ADF80430BDF80430C3F3B4
:107F30008313DBB202330E939DF80430C3F3C20304
:107F4000DBB20F930E9B9B0019460D4801F06BFCB2
:107F50001790179B002B35D0179801F0F5FC01A95D
:107F6000169B0822179801F099FD169B083316936B
:107F7000002315931DE000BFD05B00208059002036
:107F80005C670300DC5B0020049B5A1C0492109A7F
:107F9000134002339B003F4A1344191D169B0422D1
:107FA000179801F07BFD169B04331693159B013344
:107FB0001593BDF80430C3F38313DBB21A46159B47
:107FC0009342E1D3179B002B40D0324BD3F81034AF
:107FD0001493304BD3F81834002B1BD0179801F0B2
:107FE000C2FC4DE000238DF84F301498FFF77AFB68
:107FF0000346002B02D001238DF84F309DF84F30FF
:10800000002B03D017991498FFF728FB149BDB680B
:108010001B681493149B002BE4D1179801F0A3FC68
:1080200000238DF803300DF10303184600F074FCB3
:10803000184BD3F81834002B02D1049B154A9360D7
:108040009DF80330184600F071FC19E0114BD3F88D
:108050001034129306E01298FFF71AFB129BDB68AC
:108060001B681293129B002BF5D10B4A0B4BD31AB2
:10807000DB081B0443F0020309491846FFF7FAFD29
:10808000FFF72CFE034683F00103DBB2184619B05C
:108090005DF804FBD05B0020986703007067030065
:1080A0004868030000B585B00023039323E0164B16
:1080B000D3F81034029301238DF807300FE00298B3
:1080C000FFF7FFFA03461A46039B934203D10023AE
:1080D0008DF8073006E0029BDB681B680293029B69
:1080E000002BECD19DF80730002B01D0039B07E05B
:1080F000039B01330393039B092BD8DD4FF0FF3320
:10810000184605B05DF804FBD05B002000B585B0D3
:1081100001900B468DF80330FFF7C4FF0390039BDB
:10812000B3F1FF3F01D1039B22E0039BDBB2194671
:108130000198FFF7B9FA104BD3F81034002B08D18F
:108140000D4A019BC2F81034019BDB6800221A60C3
:108150000DE0094BD3F81034DA68019BDB68126834
:108160001A60054BD3F81034DB68019A1A60039B40
:10817000184605B05DF804FBD05B002000B583B065
:108180000C4BD3F8103401930A4B01221A7009E00A
:108190000198FFF79EFA0198FFF76EFA019BDB68E2
:1081A0001B680193019B002BF2D100BF00BF03B0FD
:1081B0005DF804FBD05B002082B00190009100BF0D
:1081C00002B0704710B584B003900291039BDB8826
:1081D000002B0AD0039BDB881A461F4B00931346E3
:1081E0001E4A1F49029800F0C9FD039B1B7A052B0C
:1081F0002ED0039B5B7A002B12D0039B9B881A46E0
:10820000039B1B7A19461046FFF7F8FA03461A46F5
:10821000144B53F822301A461349029800F0AEFD71
:10822000039B1B6819460298FFF7C6FF039B1B7A46
:108230001A460E4B53F82240039B9B880021184698
:10824000FFF7BCFA034622460949029800F096FD62
:1082500000BF04B010BD00BF7C6803008C68030041
:10826000C468030098590020DC680300845900208A
:10827000E068030000B585B00390029113468DF8C5
:108280000730039B1B7A052B0FD0039B5B7A002BD7
:1082900006D00D4B1B681A460C49029800F06EFD83
:1082A0000B49029800F06AFD07E09DF80730002BAB
:1082B00003D00749029800F061FD029800F046FDE6
:1082C00000BF05B05DF804FB98590020DC6803008E
:1082D000EC68030030B58BB00790069105920493CB
:1082E0000E9B1B7B8DF827300E9B00221A730E9974
:1082F0000498FFF767FF059B062B7FD801A252F871
:1083000023F000BF218302002B8302003B83020085
:108310004F8302006D83020095830200C583020033
:1083200007990E9800F02AFD69E0069B1B681A4623
:1083300007990E9800F022FD61E0069B1A68069BE3
:1083400004331B6807990E9800F018FD57E0069B50
:108350001A68069B04331968069B08331B68009350
:108360000B4607990E9800F009FD48E0069B196836
:10837000069B04331868069B08331B68069A0C3268
:1083800012680192009303460A4607990E9800F07E
:10839000F5FC34E0069B1868069B04331C68069BBA
:1083A00008331B68069A0C32126806991031096866
:1083B0000291019200932346024607990E9800F01D
:1083C000DDFC1CE0069B1C68069B04331D68069BB5
:1083D00008331B68069A0C32126806991031096836
:1083E00006981430006803900291019200932B4686
:1083F000224607990E9800F0C1FC00E000BF002261
:108400000E990498FFF736FF0E9B9DF827201A73EC
:1084100000BF0BB030BD00BF00B587B00390029124
:1084200001920093029B082B60D8009B1B7B8DF868
:108430001330009B00221A7300990198FFF7C2FEC7
:108440000023059314E0059A029B9A4209D2039AED
:10845000059B13441B781A462649009800F08EFCB1
:1084600003E02549009800F089FC059B0133059342
:10847000059B072BE7D92149009800F07FFC0023DA
:10848000059326E0059A029B9A421BD2039A059B0C
:1084900013441B788DF812309DF812307E2B0AD8C9
:1084A0009DF8123018460DF0DFF90346002B02D07C
:1084B0009DF8123000E02E231A461149009800F072
:1084C0005DFC03E00F49009800F058FC059B013368
:1084D0000593059B072BD5D9012200990198FFF739
:1084E000C9FE009B9DF813201A7300E000BF07B07F
:1084F0005DF804FBF0680300F8680300FC68030003
:10850000006903000469030000B587B001900023EF
:10851000039300230493019B059303AB1A460021A8
:1085200044F2010000F018F800BF07B05DF804FB4A
:10853000BFF34F8F00BF064BDB6803F4E0620449D2
:10854000044B1343CB60BFF34F8F00BF00BFFDE769
:1085500000ED00E00400FA0500B585B0039002913B
:10856000019272B600BFFFF709FE00BFFFF7C4FB20
:108570000346002BFAD10F4A0F4BD31ADB081B041A
:1085800043F001030D491846FFF774FB0C4B1B68C1
:1085900003F00103002B00D000BE064A064BD31A9D
:1085A000DB081B0443F0020306491846FFF762FB91
:1085B000FFF7BEFF986703007067030014690300AC
:1085C000F0ED00E02069030000B585B0019001984E
:1085D00003F0C6FE0390039B1B7B002B0CD0039B78
:1085E0005B7B83F00103DAB2039B1A73039B9B68E6
:1085F000039A12681046984700BF05B05DF804FB67
:1086000000B58BB005900B4603928DF81330059B97
:108610001B68089300230993039B002B02D0059B42
:10862000002B01D1072338E0089B1B7B002B01D0D6
:10863000082332E0089B5B68002B2BD1102200211D
:1086400008980DF003FA9DF81330002B14BF012396
:108650000023DBB207939DF81330002B0CBF0123DE
:108660000023DAB2089B5A73089B039A9A600D4B59
:108670000093089B079A4FF47A710B4803F08CFB28
:108680000246089B5A60089B5B68002B04D10E23AE
:10869000099301E0082300E0099B18460BB05DF840
:1086A00004FB00BFC98502003069030000B58BB030
:1086B000059004910392059B0993099B5B680893BD
:1086C000089B002B01D108235FE0099B1B7B002B3B
:1086D00001D0002359E0099B039A1A60EFF3058348
:1086E0000793079B002B30D00023069306AB002294
:1086F0000092049A0921089803F09AFB0346012B83
:1087000001D0042341E002F0B9FE024606AB00218D
:1087100000910621089803F08BFB0346012B01D042
:10872000042332E0069B002B0CD00CF019FD194BF2
:108730004FF080525A6040BFBFF34F8F00BFBFF36E
:108740006F8F1EE00CF0F0FC1BE00223009300236F
:10875000049A0421089803F06BFB0346012B01D017
:10876000042312E002F080FE02460223009300235D
:108770000121089803F05CFB0346012B01D0042380
:1087800003E0099B01221A73002318460BB05DF821
:1087900004FB00BF00ED00E000B589B00390039B2F
:1087A0000793079B5B680693069B002B01D1082368
:1087B00038E0EFF305830593059B002B21D00023C0
:1087C000049304AB0022009200220821069803F0D3
:1087D0002FFB0346012B01D0042323E0049B002B35
:1087E0000CD00CF0BDFC114B4FF080525A6040BFD2
:1087F000BFF34F8F00BFBFF36F8F0FE00CF094FCFF
:108800000CE002230093002300220321069803F0CA
:108810000FFB0346012B01D0042303E0079B00223A
:108820001A730023184609B05DF804FB00ED00E060
:1088300082B0EFF310830093009B019372B600BFE8
:10884000019B184602B0704762B600BF00BF704778
:1088500000B585B00190FFF7EBFF0390164B9B68C6
:10886000002B1BD1144B01229A60144BD3F88020AB
:10887000134B1340104A1360104B114AC3F8802069
:108880000E4BD3F884300C4A53600C4B4FF0FF3240
:10889000C3F88420019B00221A7002E0019B012290
:1088A0001A70039B002B01D1FFF7CEFF002318465F
:1088B00005B05DF804FB00BFF05F002000E100E0C0
:1088C000FC06FFBD00B585B003468DF80730104BA0
:1088D0009B68002B16D09DF80730002B12D1FFF7B4
:1088E000A7FF03900B4A0A4B1B681360094A084B09
:1088F0005B685360064B00229A60039B002B01D1FA
:10890000FFF7A2FF0023184605B05DF804FB00BF87
:10891000F05F002000E100E000B583B00190019815
:10892000FFF796FF00BF03B05DF804FB00B583B00E
:1089300003468DF807309DF807301846FFF7C2FF51
:1089400000BF03B05DF804FB86B001900091019B6D
:1089500053E8021F1FFAA1F2D888824202BFBFF378
:108960002F8F00230DE0D88902449889824228BFC6
:10897000121AC1EA024243E802200028E8D14FF06F
:1089800001038DF80F30059002910492029A009B2A
:108990001A609DF80F30DBB2184606B0704784B0FD
:1089A0000190019951E8023FC3EA234341E80232B2
:1089B000002AF7D10392029300BF04B0704700B5BC
:1089C00085B001900091009B19460198FFF7BCFF0C
:1089D0000346002B07D0019B1B68009A5288134462
:1089E0000393039B00E00023184605B05DF804FBE9
:1089F00000B583B001900091009B1A88009B5B88B2
:108A00009A4204D10198FFF7CAFF012300E0002336
:108A1000184603B05DF804FB00B585B001900091E5
:108A2000009B5B099B00019A1A44009B03F01F0303
:108A3000012101FA03F31946104600F04DF80390A6
:108A400000BF05B05DF804FB00B585B00190009152
:108A5000009B5B099B00019A1A44009B03F01F03D3
:108A6000012101FA03F3DB431946104600F064F8D4
:108A7000039000BF05B05DF804FB82B00190009147
:108A8000009B5B099B00019A13441A68009B03F04A
:108A90001F0322FA03F303F00103002B14BF012389
:108AA0000023DBB2184602B0704710B487B00190C3
:108AB0000091019B009A53E8004F104643E80001E3
:108AC00091F0000FF7D1059404900391059B18468F
:108AD00007B05DF8044B704710B487B00190009167
:108AE000019B009A53E8004F44EA020043E800016A
:108AF00091F0000FF6D1059404900391049B184661
:108B000007B05DF8044B704710B487B00190009136
:108B1000019B009A53E8004F04EA020043E8000179
:108B200091F0000FF6D1059404900391059B18462F
:108B300007B05DF8044B704710B487B00190009106
:108B4000019B009A53E8004F04EA020043E8000149
:108B500091F0000FF6D1059404900391049B184600
:108B600007B05DF8044B704710B487B001900091D6
:108B7000019B009A53E8004F04EB020043E8000118
:108B800091F0000FF6D1059404900391049B1846D0
:108B900007B05DF8044B704710B487B001900091A6
:108BA000019B009A53E8004FA4EB020043E8000148
:108BB00091F0000FF6D1059404900391049B1846A0
:108BC00007B05DF8044B704700B583B001900121F8
:108BD0000198FFF781FF0346184603B05DF804FBD8
:108BE00000B583B0019000210198FFF78DFF034687
:108BF000184603B05DF804FB82B001900B468DF877
:108C00000330019BDA689DF803300199098A01FB62
:108C100003F31344184602B0704782B001900091EC
:108C2000009B019AD2689B1A019A128AB3FBF2F355
:108C3000DBB2184602B0704784B00190019B002B54
:108C400001D10E2320E0019B9A68019B5B68D31A37
:108C50008DF80F30019B1B68019A52681A6007E07B
:108C6000019B1A681368591C11609DF80F201A7037
:108C70009DF80F305A1E8DF80F20002BF0D1019B6C
:108C80001B6800221A710023184604B0704700B513
:108C900085B001900023039300238DF80A300DF175
:108CA0000A031846FFF738FE019B1B681A68019BF0
:108CB0005B689A421FD9019B1B681A68013A1A60C7
:108CC0001B681B7819460198FFF796FF0390019BDC
:108CD0009A68019B1B681B68D31A8DF80B30019BA7
:108CE0001B681B799DF80B209A4204D9019B1B68D5
:108CF0009DF80B201A719DF80A301846FFF716FEF2
:108D0000039B184605B05DF804FB10B584B00190D4
:108D10000091009B039300238DF80B300DF10B03A2
:108D20001846FFF7F9FD019B1B681C68621C1A605E
:108D300003990198FFF771FF034623709DF80B30EC
:108D40001846FFF7F3FD00BF04B010BD00B583B0B7
:108D50000190019B9B68002B0CD0019B5B69019AE1
:108D60001069019A1168019A92689847019B002244
:108D70009A6000E000BF03B05DF804FB0EB400B5DC
:108D800084B00190059B002B0AD00023039306AB0F
:108D9000039303AB1A460599019800F0ADF900E082
:108DA00000BF04B05DF804EB03B0704700B583B0BA
:108DB00001900B468DF80330019B1A68019B9B685C
:108DC000581C0199886013449DF803201A70019B78
:108DD0009A68019B5B689A4202D30198FFF7B6FF3D
:108DE00000BF03B05DF804FB00B587B003900291AB
:108DF0000192009300230593009B03F00103002BD5
:108E000024D00BE0029B01330293059B01330593B1
:108E10009DF8133019460398FFF7C8FF029B1B7893
:108E20008DF813309DF81330002BEBD106E0019B39
:108E3000013B019320210398FFF7B8FF019A059B9E
:108E40009A422ED9019B002BF1D12AE0029B002BE4
:108E50000BD002980CF076FE059006E0019B013BDA
:108E6000019320210398FFF7A1FF019A059B9A42E5
:108E70000FD9019B002BF1D10BE0029B0133029330
:108E8000059B013305939DF8133019460398FFF7AE
:108E90008DFF029B1B788DF813309DF81330002B4B
:108EA000EBD100BF07B05DF804FB000000B589B04E
:108EB0000390029101920093029B07930123069372
:108EC00007E0079A019BB2FBF3F30793069B01337C
:108ED0000693079A019B9A42F3D2009A069B9A4204
:108EE00001D9009B06930B9B03F00103002B22D1B9
:108EF0000A9B002B1FD00B9B03F00203002B06D014
:108F0000009B002B03D130238DF8173002E0202383
:108F10008DF8173008E00A9B013B0A939DF8173043
:108F200019460398FFF742FF0A9B002B03D0069ACD
:108F30000A9B9A42EFD301230793009B012B03D98D
:108F4000009B013B009309E0029A079BB2FBF3F3FD
:108F50000493049A019B9A4200D205E0079B019A70
:108F600002FB03F30793E8E7029A079BB2FBF3F3D4
:108F70000493049B079A02FB03F3029AD31A029309
:108F8000154A049B13441B7819460398FFF70EFFFC
:108F9000079A019BB2FBF3F30793079B002BE3D1E6
:108FA0000B9B03F00103002B11D00A9B002B0ED06A
:108FB00006E00A9B013B0A9320210398FFF7F6FE87
:108FC0000A9B002B03D0069A0A9B9A42F1D300BF5A
:108FD00009B05DF804FB00BF3469030000B589B037
:108FE0000590049103920293049B002BB8BF5B424F
:108FF00006930123079307E0039B069A92FBF3F382
:109000000693079B01330793039B069A9A42F3DA70
:10901000029A079B9A4201D9029B07930A9B002B55
:109020000AD0049B002B04DB0B9B03F00403002BF2
:1090300002D00A9B013B0A930B9B03F00203002B17
:1090400002D0029B002B16D00B9B03F00103002BD8
:1090500011D10A9B002B0ED006E00A9B013B0A931C
:1090600020210598FFF7A2FE0A9B002B03D0079A48
:109070000A9B9A42F1D3049B002B07DA049B5B42C4
:1090800004932D210598FFF791FE08E00B9B03F058
:109090000403002B03D02B210598FFF787FE0B9BC1
:1090A00003F00203002B19D00B9B03F00103002BEC
:1090B00014D1029B002B11D10A9B002B0ED006E08D
:1090C0000A9B013B0A9330210598FFF76FFE0A9B2C
:1090D000002B03D0079A0A9B9A42F1D304990B9B69
:1090E00001930A9B0093029B039A0598FFF7DEFE0B
:1090F00000BF09B05DF804FB00B58FB00590049186
:109100000392049B002B00F09181049B1B788DF847
:109110003730049B013304939DF83730002B00F067
:109120007C819DF83730252B40F06B8100230A931A
:1091300001230C93049B1B788DF837309DF8373052
:10914000302B0DD0302B1BDC2B2B11D02D2B17D11E
:109150000A9B43F001030A93049B0133049312E03A
:109160000A9B43F002030A93049B013304930AE031
:109170000A9B43F004030A93049B0133049302E027
:1091800000230C9300BF0C9B002BD3D10023099329
:109190009DF837302A2B0CD1039B1B68191D039AAD
:1091A00011601B68099A13440993049B01330493CB
:1091B0001AE0049B1B788DF837309DF837302F2B41
:1091C00012D99DF83730392B0ED8049B0133049304
:1091D000099A13469B0013445B001A469DF83730EA
:1091E0001344303B0993D3E700230B93049B1B7874
:1091F0008DF837309DF837302E2B1DD1049B01336D
:109200000493049B1B788DF837309DF837302F2B53
:1092100012D99DF83730392B0ED8049B01330493B3
:109220000B9A13469B0013445B001A469DF8373097
:109230001344303B0B93E4E7049B1B788DF83730E5
:109240009DF837306C2B03D09DF83730682B07D151
:10925000049B01330493049B1B788DF83730EFE7B0
:109260009DF83730252B00F0C280252BC0F2C4803A
:10927000782B00F3C180582BC0F2BE80583B202BC6
:1092800000F2BA8001A252F823F000BF7B930200E3
:10929000F9930200F9930200F9930200F993020096
:1092A000F9930200F9930200F9930200F993020086
:1092B000F9930200F9930200119302003393020024
:1092C000F9930200F9930200F9930200F993020066
:1092D00033930200F9930200F9930200F99302001C
:1092E000F9930200F9930200F9930200BB93020084
:1092F000F9930200F99302009F930200F993020090
:1093000057930200F9930200F99302007B93020045
:10931000039B1B68191D039A11601B680C930C9B1F
:109320008DF81F309DF81F3019460598FFF73EFD58
:1093300063E0039B1B68191D039A11601B680C9363
:109340000A9B0193099B00930B9B0A220C99059899
:10935000FFF744FE51E0039B1B68191D039A11603F
:109360001B680C930C990A9B0193099B00930B9B20
:109370000A220598FFF79AFD3FE0039B1B68191D21
:10938000039A11601B680C930C990A9B0193099B2B
:1093900000930B9B10220598FFF788FD2DE0039B9F
:1093A0001B68191D039A11601B6808930A9B099A90
:1093B00008990598FFF718FD1FE0039B1B68191D0E
:1093C000039A11601B680C9330210598FFF7EEFC9F
:1093D00078210598FFF7EAFC0C99002301930823F4
:1093E0000093082310220598FFF760FD05E0252172
:1093F0000598FFF7DBFC00E000BF049B01330493FA
:1094000005E09DF8373019460598FFF7CFFC049B1F
:109410001B78002B7FF479AE00E000BF059B1B7B1F
:10942000002B04D00598FFF791FC00E000BF0FB0BF
:109430005DF804FB29DF704700BF184628DF70473E
:1094400000BF184600B589B001900091019B1B68D0
:109450009B68002B35D002AB00221A605A609A60DC
:10946000DA601A615A61009B0393019B9B68079322
:10947000019B1B79002B02D0012B0DD01AE0012398
:109480008DF80830019B1B690493019BDB680593F1
:10949000019B5B6906930DE002238DF80830019B68
:1094A000DB684FF4805202FB03F30493019B5B697A
:1094B000069300BF019B1B689B6802AA1046984751
:1094C00000E000BF09B05DF804FB00B587B0019073
:1094D000019B5A69019B9B69D31AB3F5805F28BF32
:1094E0004FF4805305930422059BB3FBF2F3012B49
:1094F00038BF01230593019B1A69019B9B691344A3
:109500000493019BDB681A46019B9B6913440393F8
:10951000059A03990498FFF78DFF0346184607B094
:109520005DF804FB00B583B00190019BDA68019BF4
:109530001B6913441846FFF781FF0346184603B022
:109540005DF804FB08B5034B03491846FFF750FAD2
:1095500000BF08BDFC5F00202460002008B5084B58
:1095600008491846FFF72BFA0346074A1360064BD3
:109570001B68002B14BF01230023DBB2184608BD73
:10958000FC5F0020246000202060002000B583B034
:109590002A4B1B7A002B0BD1FFF7E0FF034683F029
:1095A0000103DBB2002B03D0244B00225A6042E0BF
:1095B000224B02221A72224B1B681B79002B02D00D
:1095C000012B07D00DE01E4B1B681846FFF77DFFEF
:1095D000019009E01A4B1B681846FFF7A3FF0190A2
:1095E00002E00323019300BF019B002B03D0019BEA
:1095F000112B0CD00FE0114B1B7C83F00103DBB26D
:10960000002B17D00021022000F06EF812E00B4B67
:1096100001221A720FE00A4B1B6803211846FFF75C
:1096200011FF064B00221A72044B00225A60FFF70A
:1096300089FF00E000BF03B05DF804FB0C60002070
:109640002060002084B001901B4B0022DA60019B57
:109650001B79002B02D0012B19D028E0019B5A69FD
:10966000019B9B69D31AB3F5805F28BF4FF48053E9
:109670000393019B9A69039B1A44019B9A61019B86
:109680009A69019B5B699A420ED1012310E0019B0C
:109690001B695A1C019B1A61019B1A69019B5B693A
:1096A0009A4203D1012303E000BF00E000BF002382
:1096B000184604B0704700BF0C60002082B00190D3
:1096C000084BDB680133074AD360064BDB68082B85
:1096D00004D9044B0022DA60012300E0002318467D
:1096E00002B070470C60002000B585B00190009179
:1096F000019B022B02D0019B032B48D1274B1B7AE5
:10970000022B05D0022B35DC002B42D0012B31E09F
:1097100000238DF80F30019B022B03D0019B032BFC
:1097200009D011E01E4B1B681846FFF78BFF03465C
:109730008DF80F3008E01A4B1B681846FFF7BEFF84
:1097400003468DF80F3000BF9DF80F30002B10D06E
:10975000124B00221A72124B1A68019B022B01D184
:10976000002300E00D2319461046FFF76BFEFFF7BC
:10977000E9FE00BF094B5B7C83F00103DBB2002BE9
:1097800002D0FFF703FF05E009F084FA02E000BF12
:1097900000E000BF05B05DF804FB00BF0C600020D6
:1097A0002060002082B0034600918DF80730064B00
:1097B00001225A74044B1B7A002B0CBF0123002397
:1097C000DBB2184602B070470C60002000B583B0D1
:1097D000034600918DF807309DF80730012B03D028
:1097E0009DF80730032B0DD1084B00225A749DF8C9
:1097F0000730012B0CBF01230023DAB2034B1A748C
:10980000FFF7C4FE00BF03B05DF804FB0C6000204E
:1098100000B583B001900198FFF70EFA0346184691
:1098200003B05DF804FB00B58BB001900091019B83
:109830001B8A043B0793009A079B1344DA1C079B7F
:10984000B2FBF3F38DF81B300198FFF720FA059077
:10985000059B002B01D1002338E0059B00221A71E3
:10986000059B01225A71079B9AB2059BDA80059BE2
:1098700009939DF81B30013B0493099B019A1A60E0
:10988000002308931DE00198FFF701FA0390039B62
:10989000002B0ED0059B5B790133DAB2059B5A7120
:1098A000099B039A1A60039B019A1A60039B099310
:1098B00004E0059800F00EF8002307E0089B013350
:1098C0000893089A049B9A42DDD3059B18460BB077
:1098D0005DF804FB00B58BB00190019B0793079BDB
:1098E0005B798DF81B30019B08939DF81B30013B81
:1098F00005930023099305E0089B1B680893099BC7
:1099000001330993099A059B9A42F5D3089B1B687A
:109910000493019B0893002309930BE0089B1B68A9
:10992000039308990498FFF7F0F9039B0893099BA8
:10993000013309939DF81B30099A9A42EED300BF78
:1099400000BF0BB05DF804FB00B585B00190019B32
:109950000393039B043301211846FFF705F900BF69
:1099600005B05DF804FB00B587B00190019B05933D
:10997000059B043301211846FFF70EF903460393B4
:1099800003AB0493049B1B78002B02D10198FFF7D3
:10999000A1FF00BF07B05DF804FB00B591B00390D4
:1099A000029101920093039B0993039B0F93099BE0
:1099B000DB881A46099B5B7902FB03F3043B08939F
:1099C000099BDB880793009B1A1D079BB2FBF3F3EF
:1099D0000E93009B0433079AB3FBF2F2079901FB45
:1099E00002F29B1A0D93019B1A68009B1344089A7C
:1099F0009A4203D2089A009BD31A01E0019B1B688C
:109A00000C93019B0C9A1A6005E00F9B1B680F9347
:109A10000E9B013B0E930E9B002BF6D100230B9364
:109A2000079A0D9BD31A0A930A9A0C9B934228BF5C
:109A300013460A932AE0029A0B9B134406930F9A4B
:109A40000D9B1344043305939DF84830002B05D03B
:109A50000A9A059906980BF0D0FF04E00A9A069935
:109A600005980BF0CAFF00230D930F9B1B680F9303
:109A70000C9A0A9BD31A0C930B9A0A9B13440B93D0
:109A8000079A0C9B934228BF13460A930C9B002B0A
:109A9000D1D100BF00BF11B05DF804FB00B589B0A3
:109AA0000590049103920293039B079307AA002356
:109AB0000093029B04990598FFF76FFF00BF09B060
:109AC0005DF804FB00B589B0059004910392029300
:109AD000039B079307AA01230093029B049905980F
:109AE000FFF75BFF00BF09B05DF804FB82B0019097
:109AF000019B9B6800229A60019B9B6800221A616F
:109B0000019B9B6800225A61019B9B680022DA60DE
:109B1000019B9B6800225A60019B9B6800221A608F
:109B200000BF02B0704782B001900091019B009A83
:109B30001A60019B1B681A68019B5A60019B5A6856
:109B4000019B1B685B689A4202D1019B00225A600C
:109B500000BF02B0704782B00190019B5B68002B90
:109B600014D0019B5B681A46019B1B689B681344D9
:109B70001A46019B5A60019B5A68019B1B685B68EF
:109B80009A4204D1019B00225A6000E000BF02B05B
:109B90007047000000B585B00190019800F00EF804
:109BA0000390039B002B01D0039B00E0024B18465F
:109BB00005B05DF804FB00BFF86A030086B00190B1
:109BC000164B0593164B04931FE0049A059BD31A7A
:109BD000DB10DA0F13445B10DB00059A1344039388
:109BE000039B1B680293029A019B9A4202D9039B32
:109BF00004930AE0029A019B9A4203D2039B083322
:109C0000059302E0039B5B6804E0059A049B9A427B
:109C1000DBD30023184606B0704700BFF86E030080
:109C200020700300BFF34F8F00BF064BDB6803F4C7
:109C3000E0620449044B1343CB60BFF34F8F00BF76
:109C400000BFFDE700ED00E00400FA0582B0124B12
:109C50001B680193114B1B680093019B082B17D1C4
:109C6000009B032B12D801A252F823F07D9C020026
:109C7000819C0200859C0200899C0200012308E06F
:109C8000012306E0012304E0012302E0012300E0B8
:109C90000023184602B07047300100103401001054
:109CA00082B0124B1B680193114B1B680093019B00
:109CB000082B17D1009B032B12D801A252F823F0D6
:109CC000D19C0200D59C0200D99C0200DD9C0200C0
:109CD000012308E0012306E0012304E0012302E060
:109CE000012300E00023184602B070473001001045
:109CF0003401001082B0124B1B680193114B1B689A
:109D00000093019B082B17D1009B032B12D801A2B3
:109D100052F823F0259D0200299D02002D9D02008E
:109D2000319D0200012308E0002306E0002304E047
:109D3000002302E0002300E00023184602B0704731
:109D4000300100103401001082B0124B1B680193E7
:109D5000114B1B680093019B082B17D1009B032B11
:109D600012D801A252F823F0799D02007D9D0200D5
:109D7000819D0200859D0200012308E0002306E08A
:109D8000002304E0002302E0002300E00023184643
:109D900002B07047300100103401001082B0124B45
:109DA0001B680193114B1B680093019B082B17D173
:109DB000009B032B12D801A252F823F0CD9D020084
:109DC000D19D0200D59D0200D99D0200012308E02B
:109DD000002306E0002304E0002302E0002300E06B
:109DE0000023184602B07047300100103401001003
:109DF00082B0124B1B680193114B1B680093019BAF
:109E0000082B17D1009B032B12D801A252F823F084
:109E1000219E0200259E0200299E02002D9E020026
:109E2000012308E0002306E0002304E0002302E011
:109E3000002300E00023184602B0704730010010F4
:109E40003401001082B0124B1B680193114B1B6848
:109E50000093019B082B17D1009B032B12D801A262
:109E600052F823F0759E0200799E02007D9E02004A
:109E7000819E0200012308E0012306E0012304E0A3
:109E8000012302E0012300E00023184602B07047DE
:109E90003001001034010010024B034A1A6000BF69
:109EA000704700BFBC5900200090D00308B5FFF7F1
:109EB000CDFE0346002B0ED04FF080430022C3F8A6
:109EC0000C214FF080430022C3F810214FF0804353
:109ED0000022C3F83825FFF7E3FE0346002B76D0B7
:109EE0004FF080537D4AD3F80434C2F820354FF048
:109EF00080537A4AD3F80834C2F824354FF080539F
:109F0000764AD3F80C34C2F828354FF08053734AA0
:109F1000D3F81034C2F82C354FF080536F4AD3F881
:109F20001434C2F830354FF080536C4AD3F81834EB
:109F3000C2F834354FF08053684AD3F81C34C2F865
:109F400040354FF08053654AD3F82034C2F8443589
:109F50004FF08053614AD3F82434C2F848354FF0AB
:109F600080535E4AD3F82834C2F84C354FF0805302
:109F70005A4AD3F82C34C2F850354FF08053574A20
:109F8000D3F83034C2F854354FF08053534AD3F8E5
:109F90003434C2F860354FF08053504AD3F8383427
:109FA000C2F864354FF080534C4AD3F83C34C2F8C1
:109FB00068354FF08053494AD3F84034C2F86C35C5
:109FC0004FF08053454AD3F84434C2F87035FFF758
:109FD00091FE0346002B02D0414B424A1A60FFF724
:109FE000B3FE0346002B03D03F4BFB22C3F81825DA
:109FF000FFF7D4FE0346002B0AD03C4B1B6823F02E
:10A000000F023B4B1B6803F00F03384913430B60EF
:10A01000FFF7EEFE0346002B03D0364B4FF40072E1
:10A020001A60FFF70FFF0346002B0DD04FF080435F
:10A03000D3F8003403F00103002B05D04FF0804328
:10A040006FF00102C3F800242B4BD3F888302A4A62
:10A0500043F47003C2F88830BFF34F8F00BFBFF3E3
:10A060006F8F00BF4FF01023D3F80032002B05DBB9
:10A070004FF01023D3F80432002B2BDA1F4B0122B0
:10A08000C3F8042500BF1D4BD3F80034002BFAD0D1
:10A090004FF010231222C3F8002200BF174BD3F851
:10A0A0000034002BFAD04FF010231222C3F8042200
:10A0B00000BF124BD3F80034002BFAD00F4B002214
:10A0C000C3F8042500BF0D4BD3F80034002BFAD0A1
:10A0D000FFF7A8FDFFF7E0FE00BF08BD00C000408D
:10A0E0008C5600404881030000F00040E40E004020
:10A0F000580200104096024000ED00E000E00140F0
:10A1000000B585B0019000230393019B03F0070382
:10A11000002B0ED0019B23F007030833019A9A42CB
:10A1200005D2019B23F007030833019301E00023CC
:10A13000019301F0FBF8184B1B68002B05D1174B5E
:10A1400023F007031A46144B1A60019B002B1BD007
:10A15000134B1A68019B134440F6F772934213D8CD
:10A160000F4B1A68019B1A440D4B1B689A420BD97E
:10A17000094B1A680A4B1B6813440393084B1A686F
:10A18000019B1344064A136001F0DAF8039B18465A
:10A1900005B05DF804FB00BF2C700020306000208B
:10A1A0002870002082B0019000BF02B0704700000C
:10A1B000034B1B68C3F57F6308331846704700BF25
:10A1C0002870002082B00190019B03F10802019BDE
:10A1D0005A60019B4FF0FF329A60019B03F1080225
:10A1E000019BDA60019B03F10802019B1A61019B4C
:10A1F00000221A6000BF02B0704782B00190019B3C
:10A2000000221A6100BF02B0704784B00190009133
:10A21000019B5B680393009B039A5A60039B9A68B7
:10A22000009B9A60039B9B68009A5A60039B009A6C
:10A230009A60009B019A1A61019B1B685A1C019B42
:10A240001A6000BF04B0704784B001900091009B79
:10A250001B680293029BB3F1FF3F03D1019B1B6973
:10A2600003930CE0019B0833039302E0039B5B68BC
:10A270000393039B5B681B68029A9A42F6D2039B86
:10A280005A68009B5A60009B5B68009A9A60009B2A
:10A29000039A9A60039B009A5A60009B019A1A6184
:10A2A000019B1B685A1C019B1A6000BF04B07047D9
:10A2B00084B00190019B1B690393019B5B68019A29
:10A2C00092689A60019B9B68019A52685A60039B4E
:10A2D0005B68019A9A4203D1019B9A68039B5A607A
:10A2E000019B00221A61039B1B685A1E039B1A6084
:10A2F000039B1B68184604B07047000008480068BC
:10A3000080F3088862B661B6BFF34F8FBFF36F8FDB
:10A310004FF4F07080F3118800DF00BF00BF000031
:10A3200000700200074B19680868B0E8F04F80F32E
:10A330000988BFF36F8F4FF0000080F311887047DA
:10A3400000BF000044700020EFF30980BFF36F8F5F
:10A35000154B1A681EF0100F08BF20ED108A20E977
:10A36000F04F10604DF8043D4FF0400080F311882D
:10A37000BFF34F8FBFF36F8F01F028F94FF000004C
:10A3800080F3118808BC19680868B0E8F04F1EF027
:10A39000100F08BFB0EC108A80F30988BFF36F8FED
:10A3A000704700BF00BF00004470002082B0034629
:10A3B00000918DF807309DF90730002B0ADB009BD8
:10A3C000DAB20C499DF907305201D2B20B4483F83E
:10A3D00000230BE0009BDAB207499DF8073003F039
:10A3E0000F03043B5201D2B20B441A7600BF02B0F5
:10A3F000704700BF00E100E000ED00E084B0039092
:10A4000002910192039B043B0393002343F080736A
:10A410001A46039B1A60039B043B0393029A039B17
:10A420001A60039B043B03930B4A039B1A60039B34
:10A43000143B0393019A039B1A60039B043B039311
:10A44000039B6FF002021A60039B203B0393039B64
:10A45000184604B0704700BF5DA4020082B04023DC
:10A460000193019B83F3118800BFFEE708B50F211C
:10A470006FF00100FFF79AFF00F03AF90B4B002252
:10A480001A6000F041F80A4B5B68094A43F0404308
:10A490005360084B1B69074A43F010031361FFF731
:10A4A0002DFFFFF7DBFF0023184608BD30700020AA
:10A4B00030EF00E000ED00E082B040230193019B0B
:10A4C00083F3118800BF044B1B680133024A1360F9
:10A4D00000BF02B0704700BF3070002082B0094B4F
:10A4E0001B68013B074A1360064B1B68002B05D114
:10A4F00000230193019B83F3118800BF00BF02B0CA
:10A50000704700BF30700020044BD3F88830034AF6
:10A5100043F47003C2F8883000BF704700ED00E0DC
:10A5200082B003468DF807309DF90730002B0CDB15
:10A530009DF8073003F01F0205499DF907305B09BC
:10A54000012000FA02F241F8232000BF02B0704758
:10A5500000E100E082B0034600918DF807309DF9DC
:10A560000730002B0ADB009BDAB20C499DF907305B
:10A570005201D2B20B4483F800230BE0009BDAB205
:10A5800007499DF8073003F00F03043B5201D2B294
:10A590000B441A7600BF02B0704700BF00E100E034
:10A5A00000ED00E084B0EFF311830193019B03936E
:10A5B00040230293029B83F3118800BF039B18463C
:10A5C00004B0704782B001900091019B009AC3F8DB
:10A5D000042300BF02B0704784B001900B46ADF871
:10A5E0000230BDF80230019A134400221A60BDF80F
:10A5F0000230019A13441B680393039B00BF04B00D
:10A60000704782B00190019BD3F80435184602B020
:10A61000704782B001900091019B009AC3F8082511
:10A6200000BF02B0704782B001900B468DF8033036
:10A630009DF80320019B13441A460123136000BFB9
:10A6400002B0704782B001900091019B009AC3F85C
:10A65000442300BF02B0704700B587B000230593C4
:10A66000FFF7A0FF03900AF01FFD1F48FFF7C9FF87
:10A6700002904FF480711C48FFF7AEFF00F0F4FE2B
:10A680000246029B9B1A23F07F430493049B012BF9
:10A690000DD901F0C7F90346022B08D0012304931A
:10A6A00005E000F0F7FE0246059B13430593049B6B
:10A6B0005A1E0492002BF4D1059B002B07D00AF000
:10A6C0004FFD0A4B4FF080525A6040BF01E00AF044
:10A6D0002BFD039B0193019B83F3118800BF00BFF7
:10A6E00007B05DF804FB00BF0010014000ED00E082
:10A6F00008B5002002F0AEF81F210E48FFF789FFD1
:10A7000001210C48FFF75EFF08210A48FFF78BFF85
:10A7100000210848FFF787FF02210648FFF792FF54
:10A720000F211120FFF716FF1120FFF7F9FE00BFE0
:10A7300008BD00BF0010014084B0EFF31183019306
:10A74000019B039340230293029B83F3118800BF74
:10A75000039B184604B0704700B585B00190009186
:10A76000019B0393FFF7A8FE039B1A68039BDB6B17
:10A770000399096C01FB03F31A44039B9A60039B42
:10A7800000229A63039B1A68039B5A60039B1A6812
:10A79000039BDB6B013B0399096C01FB03F31A4438
:10A7A000039BDA60039BFF2283F84420039BFF2274
:10A7B00083F84520009B002B16D1039B1B69002BBF
:10A7C0001CD0039B1033184600F092FF0346002B69
:10A7D00014D00E4B4FF080525A6040BFBFF34F8FE2
:10A7E00000BFBFF36F8F09E0039B10331846FFF7DC
:10A7F000E9FC039B24331846FFF7E4FCFFF76EFEE9
:10A800000123184605B05DF804FB00BF00ED00E031
:10A8100000B58BB00590049113468DF80F30059B61
:10A82000049A02FB03F30993099B48331846FFF788
:10A8300067FC0890089B002B0ED0089B0793079B92
:10A84000483307939DF80F20089B00931346079AFF
:10A850000499059800F005F8089B18460BB05DF8C0
:10A8600004FB00B585B00390029101928DF803308E
:10A87000029B002B03D1069B069A1A6002E0069BFE
:10A88000019A1A60069B039ADA63069B029A1A647D
:10A8900001210698FFF760FF9DF80330029A0399A3
:10A8A00073200AF03DF800BF05B05DF804FB00001E
:10A8B00000B58DB0059004910392029300230B9391
:10A8C000059B0A93FFF7F8FD0A9B9A6B0A9BDB6BCB
:10A8D0009A4202D3029B022B3BD10A9B18460AF0F4
:10A8E0009BFD049A0399029B00930B4601465A2054
:10A8F0000AF08CF8029A04990A9800F0EDF9099090
:10A900000A9B5B6A002B12D00A9B2433184600F086
:10A91000EFFE0346002B18D0504B4FF080525A6088
:10A9200040BFBFF34F8F00BFBFF36F8F0DE0099B98
:10A93000002B0AD0494B4FF080525A6040BFBFF302
:10A940004F8F00BFBFF36F8F00BFFFF7C7FD01231D
:10A950007FE0039B002B10D1FFF7C0FD0A9B184638
:10A960000AF05AFD049A0399029B00930B46014694
:10A970005A200AF04BF800236BE00B9B002B05D10B
:10A9800007AB184600F00CFF01230B93FFF7A6FD61
:10A9900000F0CCFCFFF790FD0A9B93F844305BB2CB
:10A9A000B3F1FF3F03D10A9B002283F844200A9BA6
:10A9B00093F845305BB2B3F1FF3F03D10A9B00220D
:10A9C00083F84520FFF78AFD03AA07AB1146184616
:10A9D00000F0F8FE0346002B26D10A9800F076FA24
:10A9E0000346002B1AD00A9B1033039A11461846CF
:10A9F00000F048FE0A9800F0FDF900F0A1FC0346C3
:10AA0000002B7FF45FAF154B4FF080525A6040BF70
:10AA1000BFF34F8F00BFBFF36F8F19E00A9800F0AC
:10AA2000E9F900F08DFC4DE70A9800F0E3F900F039
:10AA300087FC0A9B18460AF0EFFC049A0399029BD4
:10AA400000930B4601465A2009F0E0FF002300E086
:10AA500038E718460DB05DF804FB00BF00ED00E0DC
:10AA600000B58BB00390029101920093039B089371
:10AA7000FFF762FE0790089B9A6B089BDB6B9A427C
:10AA800002D3009B022B39D1089B93F845308DF8F7
:10AA90001B30089B9B6B0593089B18460AF0BCFC77
:10AAA0000146019B1A46602009F0E2FE009A0299D5
:10AAB000089800F011F99DF91B30B3F1FF3F12D156
:10AAC000089B5B6A002B16D0089B2433184600F0C5
:10AAD0000FFE0346002B0ED0019B002B0BD0019BD9
:10AAE00001221A6007E09DF81B300133DBB25AB235
:10AAF000089B83F84520012309930BE0089B184627
:10AB00000AF08AFC0146019B1A46602009F0B0FE5B
:10AB100000230993079B0493049B83F3118800BFD0
:10AB2000099B18460BB05DF804FB000010B58CB013
:10AB300005900491039200230B93059B0A93FFF762
:10AB4000BBFC0A9B9B6B0993099B002B32D0049999
:10AB50000A9800F02AF90A9B18460AF05DFC0446A0
:10AB600000200AF059FC0246039B01210091214676
:10AB70005C2009F04BFF099B5A1E0A9B9A630A9BB3
:10AB80001B69002B12D00A9B1033184600F0B0FD51
:10AB90000346002B0AD04F4B4FF080525A6040BF03
:10ABA000BFF34F8F00BFBFF36F8F00BFFFF796FC5F
:10ABB00001238CE0039B002B13D1FFF78FFC0A9B32
:10ABC00018460AF029FC044600200AF025FC02463B
:10ABD000039B0121009121465C2009F017FF00230F
:10ABE00075E00B9B002B05D107AB184600F0D8FD94
:10ABF00001230B93FFF772FC00F098FBFFF75CFC5E
:10AC00000A9B93F844305BB2B3F1FF3F03D10A9B38
:10AC1000002283F844200A9B93F845305BB2B3F1DD
:10AC2000FF3F03D10A9B002283F84520FFF756FC23
:10AC300003AA07AB1146184600F0C4FD0346002BDB
:10AC400026D10A9800F02DF90346002B1AD00A9B52
:10AC50002433039A1146184600F014FD0A9800F0B8
:10AC6000C9F800F06DFB0346002B7FF468AF194B69
:10AC70004FF080525A6040BFBFF34F8F00BFBFF309
:10AC80006F8F23E00A9800F0B5F800F059FB56E703
:10AC90000A9800F0AFF800F053FB0A9800F001F9B1
:10ACA0000346002B3FF44BAF0A9B18460AF0B4FB57
:10ACB000044600200AF0B0FB0246039B01210091EC
:10ACC00021465C2009F0A2FE002300E037E7184689
:10ACD0000CB010BD00ED00E000B587B0039002910C
:10ACE000019200230593039B9B6B0493039B1B6CB6
:10ACF000002B0DD1039B1B68002B4DD1039B9B6840
:10AD0000184600F0A9FE0590039B00229A6043E0DC
:10AD1000019B002B19D1039B5868039B1B6C1A469F
:10AD200002990AF06AFE039B5A68039B1B6C1A4443
:10AD3000039B5A60039B5A68039B9B689A422BD3E0
:10AD4000039B1A68039B5A6026E0039BD868039B09
:10AD50001B6C1A4602990AF050FE039BDA68039BAB
:10AD60001B6C5B421A44039BDA60039BDA68039B0B
:10AD70001B689A4207D2039B9A68039B1B6C5B4239
:10AD80001A44039BDA60019B022B05D1049B002B24
:10AD900002D0049B013B0493049B5A1C039B9A63BF
:10ADA000059B184607B05DF804FB00B583B0019021
:10ADB0000091019B1B6C002B18D0019BDA68019B52
:10ADC0001B6C1A44019BDA60019BDA68019B9B684B
:10ADD0009A4203D3019B1A68019BDA60019BD968F0
:10ADE000019B1B6C1A4600980AF007FE00BF03B0D7
:10ADF0005DF804FB00B585B00190FFF75DFB019B9A
:10AE000093F845308DF80F3013E0019B5B6A002BFF
:10AE100014D0019B2433184600F06AFC0346002B33
:10AE200001D000F015FD9DF80F30013BDBB28DF82D
:10AE30000F309DF90F30002BE7DC00E000BF019BD5
:10AE4000FF2283F84520FFF749FBFFF735FB019B05
:10AE500093F844308DF80E3013E0019B1B69002BF2
:10AE600014D0019B1033184600F042FC0346002B1F
:10AE700001D000F0EDFC9DF80E30013BDBB28DF807
:10AE80000E309DF90E30002BE7DC00E000BF019B87
:10AE9000FF2283F84420FFF721FB00BF05B05DF8D7
:10AEA00004FB00B585B00190FFF706FB019B9B6B8F
:10AEB000002B02D10123039301E000230393FFF74A
:10AEC0000DFB039B184605B05DF804FB00B585B08B
:10AED0000190FFF7F1FA019B9A6B019BDB6B9A42A1
:10AEE00002D10123039301E000230393FFF7F6FA55
:10AEF000039B184605B05DF804FB000000B585B063
:10AF000001900091002303931EE0134A039B52F823
:10AF10003330002B15D11049039B009A41F83320A0
:10AF20000D4A039BDB001344019A5A60019B1846AB
:10AF30000AF072FA0146009B1A46712009F098FC4B
:10AF400006E0039B01330393039B012BDDD900BF74
:10AF500000BF05B05DF804FB3470002000B587B079
:10AF6000039002910192039B0593FFF7A5FA059BBD
:10AF700093F844305BB2B3F1FF3F03D1059B00224D
:10AF800083F84420059B93F845305BB2B3F1FF3F53
:10AF900003D1059B002283F84520FFF79FFA059B0C
:10AFA0009B6B002B06D1059B2433019A029918460E
:10AFB00000F07EFB0598FFF71DFF00BF07B05DF8AE
:10AFC00004FB84B0EFF311830193019B03934023AF
:10AFD0000293029B83F3118800BF039B184604B0C1
:10AFE000704700B58DB00790069104931346ADF8F5
:10AFF0001630BDF816309B001846FFF781F809900F
:10B00000099B002B0ED05020FFF77AF80B900B9B7A
:10B01000002B03D00B9B099A1A6305E00998FFF7F0
:10B02000C1F801E000230B930B9B002B14D0BDF85B
:10B030001620002303930B9B02930F9B01930E9BFF
:10B040000093049B0699079800F00EF80B9800F007
:10B0500081F801230A9302E04FF0FF330A930A9B21
:10B0600018460DB05DF804FB00B587B0039002915F
:10B07000019200930A9B186B019B9B001A46A52125
:10B080000AF0E4FC0A9B1A6B019B03F18043013B2D
:10B090009B0013440493049B23F0070304930023B1
:10B0A000059312E0029A059B134419780A9A059BAE
:10B0B000134434330A461A70029A059B13441B78D2
:10B0C000002B06D0059B01330593059B092BE9D97D
:10B0D00000E000BF0A9B002283F83D20089B042B60
:10B0E00001D9042308930A9B089ADA620A9B089AFA
:10B0F0001A640A9B00225A640A9B04331846FFF71D
:10B100007CF80A9B18331846FFF777F80A9B0A9ACF
:10B110001A61089BC3F105020A9B9A610A9B0A9A6D
:10B120005A620A9B00229A640A9B002283F84C20F0
:10B13000009A03990498FFF761F902460A9B1A6086
:10B14000099B002B02D0099B0A9A1A6000BF07B026
:10B150005DF804FB30B585B00390FFF7ADF93B4BCC
:10B160001B680133394A1360394B1B68002B09D126
:10B17000374A039B1360354B1B68012B10D100F03D
:10B1800089FB0DE0334B1B68002B09D1304B1B684A
:10B19000DA6A039BDB6A9A4202D82D4A039B13604A
:10B1A0002D4B1B6801332C4A1360039B002B16D0D8
:10B1B000039B18460AF00CF80398039B03F1340133
:10B1C000039BDA6A039B1B6B1D46039B1B681C4693
:10B1D000039B1B6BE31A00932B4604F027F8039B99
:10B1E00018460AF079F8039BDA6A1C4B1B689A42EE
:10B1F00003D9039BDB6A194A1360039BDA6A13467F
:10B200009B0013449B00164A1A44039B04331946BF
:10B210001046FEF7FAFFFFF761F90E4B1B68002B93
:10B2200011D00B4B1B68DA6A039BDB6A9A420AD285
:10B230000C4B4FF080525A6040BFBFF34F8F00BF9E
:10B24000BFF36F8F00BF00BF05B030BD1C71002081
:10B2500044700020287100203871002024710020E3
:10B260004870002000ED00E000B585B0019000239B
:10B270000393019B002B0CD000F058F80199232078
:10B2800009F0BAFA0021019800F0FEFC00F058F82D
:10B290000390039B002B0AD1074B4FF080525A605A
:10B2A00040BFBFF34F8F00BFBFF36F8F00BF00BF22
:10B2B00005B05DF804FB00BF00ED00E000B585B00F
:10B2C000144B01930023009300233C22124913489E
:10B2D000FFF787FE0390039B012B02D100F03AFD9C
:10B2E0000390039B012B11D140230293029B83F314
:10B2F000118800BF0A4B4FF0FF321A60094B012240
:10B300001A60094B00221A60FFF7B0F800BF05B0C1
:10B310005DF804FB407100202C70030061B802004E
:10B320003C7100202871002020710020034B1B6815
:10B330000133024A136000BF704700BF4471002010
:10B3400000B585B00023039300230293FFF7B4F800
:10B350003C4B1B68013B3B4A13603A4B1B68002B7C
:10B3600069D1394B1B68002B65D033E0374BDB6864
:10B37000DB680393039B18331846FEF799FF039B82
:10B3800004331846FEF794FF039B184609F0A4FF08
:10B39000039BDA6A2E4B1B689A4203D9039BDB6A34
:10B3A0002B4A1360039BDA6A13469B0013449B00ED
:10B3B000284A1A44039B043319461046FEF725FF1A
:10B3C000039BDA6A244B1B68DB6A9A4202D3234B45
:10B3D00001221A601D4B1B68002BC7D1039B002B59
:10B3E00001D000F003FB1E4B1B680193019B002B57
:10B3F00010D000F04FF80346002B02D0174B01226B
:10B400001A60019B013B0193019B002BF1D1144B6E
:10B4100000221A60114B1B68002B0CD001230293F1
:10B42000104B4FF080525A6040BFBFF34F8F00BFA8
:10B43000BFF36F8F00BFFFF751F8029B184605B0AE
:10B440005DF804FB447100201C710020DC700020BA
:10B4500024710020487000204470002030710020CA
:10B460002C71002000ED00E082B0034B1B680193BB
:10B47000019B184602B070472071002082B0002363
:10B480000193034B1B680093009B184602B0704762
:10B490002071002000B587B000230593404B1B6846
:10B4A000002B6DD13F4B1B68013304933D4A049B35
:10B4B0001360049B002B10D13B4B1B6803933B4B49
:10B4C0001B68394A1360394A039B1360384B1B6869
:10B4D0000133374A136000F089FA364B1B68049A2F
:10B4E0009A4252D3304B1B681B68002B04D1314B5E
:10B4F0004FF0FF321A6048E02B4B1B68DB68DB68BB
:10B500000293029B5B680193049A019B9A4203D2C7
:10B51000284A019B136038E0029B04331846FEF76B
:10B52000C7FE029B9B6A002B04D0029B183318466F
:10B53000FEF7BEFE029B184609F0CEFE029BDA6AB9
:10B540001D4B1B689A4203D9029BDB6A1A4A13609F
:10B55000029BDA6A13469B0013449B00174A1A4465
:10B56000029B043319461046FEF74FFE029BDA6A2F
:10B57000134B1B68DB6A9A42B4D301230593B1E7EE
:10B58000104B1B6801330F4A13600F4B1B68002BD5
:10B5900001D001230593059B184607B05DF804FB15
:10B5A0004471002020710020D4700020D870002049
:10B5B000347100203C71002024710020487000206C
:10B5C000447000202C7100203071002000B583B041
:10B5D000264B1B68002B03D0254B01221A6041E04B
:10B5E000234B00221A60234B1B68019302E0019B4E
:10B5F000013B01932049019A13469B0013449B0091
:10B600000B441B68002BF2D0019A13469B00134495
:10B610009B00194A13440093009B5B685A68009B87
:10B620005A60009B5A68009B08339A4204D1009BE1
:10B630005B685A68009B5A60009B5B68DB680F4A36
:10B6400013600C4A019B13600C4B1A680C4B1B686F
:10B650009A4202D109F0A0FD04E0084B1B6818468D
:10B6600009F0F8FD00BF03B05DF804FB4471002051
:10B6700030710020247100204870002044700020A8
:10B680004071002000B583B001900091074B1B680A
:10B69000183319460198FEF7D7FD0121009800F0F4
:10B6A000F3FA00BF03B05DF804FB00BF4470002054
:10B6B00000B585B00390029101920C4B1B681833C2
:10B6C00019460398FEF7A1FD019B002B02D04FF015
:10B6D000FF330293242009F073F80199029800F0D7
:10B6E000D3FA00BF05B05DF804FB00BF4470002032
:10B6F00000B585B00190019BDB68DB680293029B7B
:10B7000018331846FEF7D4FD1F4B1B68002B21D1C0
:10B71000029B04331846FEF7CBFD029B184609F046
:10B72000DBFD029BDA6A194B1B689A4203D9029B24
:10B73000DB6A164A1360029BDA6A13469B001344C5
:10B740009B00134A1A44029B043319461046FEF725
:10B750005CFD05E0029B183319460E48FEF755FDC7
:10B76000029BDA6A0C4B1B68DB6A9A4205D90123FB
:10B7700003930A4B01221A6001E000230393039B09
:10B78000184605B05DF804FB4471002024710020C8
:10B7900048700020DC7000204470002030710020D0
:10B7A00082B00190054B1A68019B1A60044B1A681D
:10B7B000019B5A6000BF02B0704700BF3471002087
:10B7C0002071002000B587B001900091FEF774FE53
:10B7D0001D4B1B680493019B5B68049AD31A039367
:10B7E000009B1B68B3F1FF3F02D10023059323E0C8
:10B7F000019B1A68154B1B689A4207D0019B5B6836
:10B80000049A9A4202D30123059315E0009B1B681A
:10B81000039A9A420BD2009B1A68039BD21A009B90
:10B820001A600198FFF7BCFF0023059304E0009B1A
:10B8300000221A6001230593FEF750FE059B18466F
:10B8400007B05DF804FB00BF2071002034710020B8
:10B85000024B01221A6000BF704700BF3071002008
:10B8600000B583B0019000F053F8084B1B68012B22
:10B87000F9D9074B4FF080525A6040BFBFF34F8F4A
:10B8800000BFBFF36F8F00BFEDE700BF487000201F
:10B8900000ED00E000B583B0002301930CE0019AB5
:10B8A00013469B0013449B00114A13441846FEF7AD
:10B8B00089FC019B01330193019B042BEFD90D48B7
:10B8C000FEF780FC0C48FEF77DFC0C48FEF77AFC86
:10B8D0000B48FEF777FC0B48FEF774FC0A4B054A51
:10B8E0001A600A4B044A1A6000BF03B05DF804FBFB
:10B8F00048700020AC700020C0700020DC70002078
:10B90000F070002008710020D4700020D870002052
:10B9100000B583B019E0FEF7CFFD104BDB68DB68A4
:10B920000193019B04331846FEF7C2FC0C4B1B68C5
:10B93000013B0B4A13600B4B1B68013B094A136028
:10B94000FEF7CCFD019800F041F8064B1B68002B78
:10B95000E1D100BF00BF03B05DF804FBF070002030
:10B960001C7100200471002084B001900023039317
:10B9700005E0019B01330193039B01330393019B7A
:10B980001B78A52BF5D0039B9B080393039B9BB2CD
:10B99000184604B07047000000B587B00190019BC5
:10B9A000002B02D1084B1B6800E0019B0593059B0F
:10B9B0001B6B04930498FFF7D7FF03460393039B85
:10B9C000184607B05DF804FB4470002000B583B052
:10B9D0000190019B1B6B1846FEF7E4FB0198FEF7F4
:10B9E000E1FB00BF03B05DF804FB000082B00B4B2D
:10B9F0001B681B68002B04D1094B4FF0FF321A6003
:10BA000008E0064B1B68DB68DB680193019B5B6801
:10BA1000034A136000BF02B0704700BFD47000201B
:10BA20003C71002082B00A4B1B68002B02D101231D
:10BA3000019308E0074B1B68002B02D102230193FE
:10BA400001E000230193019B184602B0704700BF3C
:10BA5000287100204471002000B585B00190019B41
:10BA6000029300230393019B002B3CD0029B5B6C51
:10BA70005A1E029B5A64029BDA6A029B1B6C9A4212
:10BA800031D0029B5B6C002B2DD1029B04331846F6
:10BA9000FEF70EFC019B19464A2008F0ADFE029B02
:10BAA0001A6C029BDA62029BDB6AC3F10502029BFD
:10BAB0009A61029BDA6A0E4B1B689A4203D9029B79
:10BAC000DB6A0B4A1360029BDA6A13469B0013443D
:10BAD0009B00084A1A44029B043319461046FEF79D
:10BAE00094FB01230393039B184605B05DF804FB08
:10BAF000247100204870002000B585B001900091AD
:10BB0000FEF7DAFC224B1B689B6C002B16D1204BF6
:10BB10001B68012283F84C20009B002B0ED00121D2
:10BB2000009800F0B1F81B4B4FF080525A6040BFB4
:10BB3000BFF34F8F00BFBFF36F8F00BFFEF7CEFC88
:10BB4000FEF7BAFC019B009A1946422008F090FECD
:10BB50000F4B1B689B6C0393039B002B0CD0019B2A
:10BB6000002B04D00A4B1B6800229A6404E0084BA7
:10BB70001B68039A013A9A64054B1B68002283F8FC
:10BB80004C20FEF7ABFC039B184605B05DF804FBA8
:10BB90004470002000ED00E000B587B001900091F6
:10BBA000019B0593FFF70DFA0490059B93F84C3029
:10BBB0008DF80F30059B022283F84C20059B9B6C6F
:10BBC0005A1C059B9A64059B184609F025FC014602
:10BBD000009B1A46412008F04BFE9DF80F30012BC8
:10BBE0003CD1234B1B68002B21D1059B0433184605
:10BBF000FEF75EFB059B184609F06EFB059BDA6AB3
:10BC00001C4B1B689A4203D9059BDB6A194A1360D7
:10BC1000059BDA6A13469B0013449B00164A1A449C
:10BC2000059B043319461046FEF7EFFA05E0059B25
:10BC3000183319461148FEF7E8FA059BDA6A104BEB
:10BC40001B68DB6A9A4209D9009B002B03D0009B3A
:10BC500001221A6002E00B4B01221A60049B02933E
:10BC6000029B83F3118800BF00BF07B05DF804FB9F
:10BC7000447100202471002048700020DC700020F6
:10BC8000447000203071002000B585B00190009113
:10BC90002A4B1B6803932A4B1B6804331846FEF794
:10BCA00007FB019BB3F1FF3F10D1009B002B0DD090
:10BCB000234B1B681B21184609F050FB204B1B68C7
:10BCC000043319461F48FEF7A0FA32E0039A019B9D
:10BCD000134402931A4B1B68029A5A60029A039B00
:10BCE0009A420FD2164B1B680421184609F036FB06
:10BCF000154B1A68124B1B68043319461046FEF7A1
:10BD0000A3FA16E00E4B1B680421184609F026FB27
:10BD10000E4B1A680A4B1B68043319461046FEF78F
:10BD200093FA0B4B1B68029A9A4202D2084A029B72
:10BD3000136000BF05B05DF804FB00BF2071002058
:10BD40004470002008710020D8700020D4700020BA
:10BD50003C71002000B585B00023039300F0CAFABF
:10BD6000094B1B68002B0AD0084B01930223009358
:10BD70000023502206490748FFF733F90390039B3D
:10BD8000184605B05DF804FB787100207C71002036
:10BD90003470030025BF020000B589B005900491FE
:10BDA000039202932820FEF7ABF90790079B002B24
:10BDB0000DD0079B002283F82420079B01930A9B48
:10BDC0000093029B039A0499059800F005F8079BDD
:10BDD000184609B05DF804FB00B585B003900291E8
:10BDE00001920093079B002B1ED000F083FA079B63
:10BDF000039A1A60079B029A9A61079B009ADA617C
:10BE0000079B069A1A62079B04331846FEF7F5F95A
:10BE1000019B002B08D0079B93F8243043F00403C8
:10BE2000DAB2079B83F8242000BF05B05DF804FB5D
:10BE300000B58BB003900291019200930023099307
:10BE4000184B1B68002B27D0029B0593019B069380
:10BE5000039B0793029B052B16DCFFF7E3FD0346CC
:10BE6000022B08D10F4B186805A900230C9AFEF786
:10BE70001FFD099010E00B4B186805A90023002254
:10BE8000FEF716FD099007E0064B186805A9002388
:10BE9000009AFEF7E5FD0990099B18460BB05DF886
:10BEA00004FB00BF7871002000B587B003900291B9
:10BEB0001B4B1B68DB68DB680593059B0433184646
:10BEC000FEF7F6F9059B93F8243003F00403002BEA
:10BED00015D0059B9A69039BD118039B029A05987C
:10BEE00000F0BAF80346002B12D000230093002381
:10BEF000039A00210598FFF79BFF049008E0059B3B
:10BF000093F8243023F00103DAB2059B83F8242050
:10BF1000059B1B6A0598984700BF07B05DF804FBB6
:10BF20007071002000B585B0019002AB184600F09A
:10BF300057F80390029B1946039800F003F800F0AD
:10BF4000CDF8F2E700B585B001900091FFF7EEF96A
:10BF500002AB184600F062F80390029B002B32D12E
:10BF6000009B002B0AD1019A039B9A4206D8FFF747
:10BF7000E7F903990198FFF797FF27E0009B002B53
:10BF800008D0144B1B681B68002B01D1012300E073
:10BF900000230093104B1868019A039BD31A009A50
:10BFA0001946FEF7DBFFFFF7CBF90346002B0DD157
:10BFB0000A4B4FF080525A6040BFBFF34F8F00BF13
:10BFC000BFF36F8F02E0FFF7BBF9FFE700BF05B0DB
:10BFD0005DF804FB747100207871002000ED00E032
:10BFE00084B001900C4B1B681B68002B01D101220F
:10BFF00000E00022019B1A60019B1B68002B05D109
:10C00000054B1B68DB681B68039301E00023039367
:10C01000039B184604B070477071002000B585B0CE
:10C020000190FFF721FA03900A4B1B68039A9A428A
:10C0300005D200F009F9019B01221A6002E0019B80
:10C0400000221A60034A039B1360039B184605B045
:10C050005DF804FB8071002000B587B00390029169
:10C060000192009300230593039B029A5A60039B5D
:10C07000039A1A61029A019B9A4212D8019A009B74
:10C08000D21A039B9B699A4202D3012305931BE0BA
:10C09000104B1A68039B043319461046FEF7D4F878
:10C0A00012E0019A009B9A4206D2029A009B9A42A1
:10C0B00002D30123059307E0074B1A68039B04335F
:10C0C00019461046FEF7C0F8059B184607B05DF804
:10C0D00004FB00BF747100207071002000B58DB0AA
:10C0E0009FE0049B002B0ADA04AB04330B930B9BF9
:10C0F0001B680B9A50680B9A926811469847049BEC
:10C10000002BC0F28D80069B0A930A9B5B69002B73
:10C1100004D00A9B04331846FEF7CAF803AB18464E
:10C12000FFF77CFF0990049B092B7AD801A252F8F3
:10C1300023F000BF5DC102005DC102005DC10200CD
:10C14000B7C10200CBC10200F7C102005DC102000D
:10C150005DC10200B7C10200CBC102000A9B93F887
:10C16000243043F00103DAB20A9B83F82420059AB5
:10C170000A9B9B69D118059B099A0A98FFF76CFFE7
:10C180000346002B4DD00A9B1B6A0A9898470A9BCE
:10C1900093F8243003F00403002B42D0059A0A9B45
:10C1A0009B691A4400230093002300210A98FFF79B
:10C1B0003FFE089035E00A9B93F8243023F00103FA
:10C1C000DAB20A9B83F824202BE00A9B93F82430F0
:10C1D00043F00103DAB20A9B83F82420059A0A9BF4
:10C1E0009A610A9B9A69099BD118099B099A0A9836
:10C1F000FFF732FF15E00A9B93F8243003F00203A7
:10C20000002B03D10A98FDF7CDFF0AE00A9B93F8B3
:10C21000243023F00103DAB20A9B83F8242000E0E3
:10C2200000BF084B1B6804A900221846FEF77EFCDD
:10C230000346002B7FF455AF00BF00BF0DB05DF883
:10C2400004FB00BF7871002000B589B03AE0274BAD
:10C250001B68DB681B680693244B1B68DB68DB6884
:10C260000593059B04331846FEF722F8059B1B6ACD
:10C2700005989847059B93F8243003F00403002B9E
:10C2800020D0059B9B69069A13440493049A069B4D
:10C290009A420ED9059B049A5A60059B059A1A6129
:10C2A000124B1A68059B043319461046FDF7CCFF64
:10C2B00008E0002300930023069A00210598FFF769
:10C2C000B7FD0390094B1B681B68002BBFD1074BC0
:10C2D0001B680793064B1B68044A1360044A079BBC
:10C2E000136000BF09B05DF804FB00BF707100204F
:10C2F0007471002008B5FEF7DFF8134B1B68002BA4
:10C300001DD11248FDF75EFF1148FDF75BFF114B91
:10C310000E4A1A60104B0E4A1A600022102120208B
:10C32000FEF776FA0346084A1360074B1B68002B9A
:10C3300005D0054B1B6809491846FEF7DFFDFEF7DF
:10C34000CDF800BF08BD00BF787100204871002003
:10C350005C71002070710020747100203C7003003B
:10C3600000B585B00190019B0393FEF7A5F8039BF0
:10C37000DB690293FEF7B2F8029B184605B05DF840
:10C3800004FB000082B00190019B1B681F2B02D8A8
:10C390004FF0A04306E0019B1B6803F01F02019BC6
:10C3A0001A60024B184602B0704700BF00030050ED
:10C3B00000B585B00190084611461A4603468DF82F
:10C3C00003300B468DF8023013468DF8013001AB77
:10C3D0001846FFF7D7FF03909DF803209DF8023021
:10C3E0005B001A439DF801309B001A439DF81830FA
:10C3F0001B0242EA03019DF81C301B04019A1943F9
:10C40000039B02F5E07243F8221000BF05B05DF80F
:10C4100004FB00B585B00390002301930023009333
:10C420000023012201210398FFF7C2FF00BF05B0DE
:10C430005DF804FB00B585B003900B468DF80B301A
:10C440009DF80B3000220192002200920022002170
:10C450000398FFF7ADFF00BF05B05DF804FB00B522
:10C4600085B0019001AB1846FFF78CFF0390019B4C
:10C47000012202FA03F31946039800F069F800BF9D
:10C4800005B05DF804FB00B585B0019001AB18461E
:10C49000FFF778FF0390019B012202FA03F319468C
:10C4A000039800F05FF800BF05B05DF804FB00B52D
:10C4B00085B0019001AB1846FFF764FF0390039B22
:10C4C000D3F804350293029BDA43019B012101FA60
:10C4D00003F31A40039BC3F80825019B01229A40ED
:10C4E000029B1A40039BC3F80C2500BF05B05DF802
:10C4F00004FB00B583B001900091009B002B03D199
:10C500000198FFF7C0FF02E00198FFF7A8FF00BF06
:10C5100003B05DF804FB00B585B0019001AB18468F
:10C52000FFF730FF0390039800F00AF80246019BE2
:10C5300022FA03F303F00103184605B05DF804FB8B
:10C5400082B00190019BD3F80435184602B07047C1
:10C5500082B001900091019B009AC3F8082500BFAA
:10C5600002B0704782B001900091019B009AC3F81D
:10C570000C2500BF02B0704700B585B001900F4A8E
:10C58000019B13441B781846FFF7C5FF0346002B99
:10C5900014BF012300238DF80F309DF80F30002BBE
:10C5A00014BF01230023DBB283F00103DBB203F0ED
:10C5B0000103DBB2184605B05DF804FB44700300CC
:10C5C00000B583B00190064A019B13441B780021FB
:10C5D0001846FFF78EFF00BF03B05DF804FB00BFF5
:10C5E0004470030000B583B00190064A019B1344D8
:10C5F0001B7801211846FFF77CFF00BF03B05DF8F0
:10C6000004FB00BF4470030000B583B00023019316
:10C6100005E00198FFF7E6FF019B01330193019BC1
:10C62000032BF6D900BF00BF03B05DF804FB00B5D3
:10C6300083B00023019305E00198FFF7C1FF019B40
:10C6400001330193019B032BF6D900BF00BF03B058
:10C650005DF804FB00B583B00190054A019B1344CB
:10C660001B781846FFF723FF00BF03B05DF804FBFB
:10C670004470030000B583B00023019309E0094A28
:10C68000019B13441B781846FFF7C3FE019B01333F
:10C690000193019B032BF2D9FFF7B6FF00BF03B054
:10C6A0005DF804FB4470030000B583B000230193E0
:10C6B0000AE0094A019B13441B7803211846FFF73F
:10C6C000B9FE019B01330193019B032BF1D900BFFC
:10C6D00000BF03B05DF804FB4870030000B583B0F1
:10C6E0000190019B03F00103002B01D0FFF7C2FF73
:10C6F000019B03F00203002B01D0FFF7D5FF00BF21
:10C7000003B05DF804FB000082B003468DF80730EB
:10C710009DF90730002B13DB9DF8073003F01F0253
:10C7200009499DF907305B09012000FA02F2203324
:10C7300041F82320BFF34F8F00BFBFF36F8F00BFBF
:10C7400000BF02B0704700BF00E100E0044BD3F827
:10C750000034002B14BF01230023DBB218467047BE
:10C760000000014008B5FFF7F1FF034683F0010325
:10C77000DBB2002B04D000F0BEFA024B00229A700C
:10C7800000BF08BD8471002000B583B00023019371
:10C79000184B1B78002B02D0852301931CE0154B0E
:10C7A00000229A60134B00225A60124B00221A6139
:10C7B000104B0022DA60104800F06EFA019006F08B
:10C7C00085FA034683F00103DBB2002B01D000F0B1
:10C7D0007DFA084B01221A70FFF7B8FF0346002BC1
:10C7E00002D0044B01229A70019B184603B05DF8F9
:10C7F00004FB00BF8471002075C9020084B0019061
:10C800000091019B1B68039306E0039A009B9A42E8
:10C810000DD0039B1B680393039B002BF5D1019B59
:10C820001A68009B1A60019B009A1A6000E000BF22
:10C8300004B0704784B00190019B1B680393039B75
:10C84000002B03D0039B1A68019B1A60039B1846B8
:10C8500004B0704700B585B00190214B9B78DBB2E6
:10C86000002B19D0019B002B03D0019B5B6801209A
:10C87000984700238DF80F300DF10F031846FCF791
:10C880004BF8174BDB680133154AD3609DF80F3026
:10C890001846FCF74BF81EE000238DF80E300DF122
:10C8A0000E031846FCF738F8019B002B03D00199C2
:10C8B0000C48FFF7A3FF0A4BDB68002B01D100F007
:10C8C0000DFA074BDB680133054AD3609DF80E3043
:10C8D0001846FCF72BF800BF05B05DF804FB00BF5D
:10C8E000847100209471002000B583B000238DF87E
:10C8F00007300DF107031846FCF70EF8094BDB680B
:10C90000013B084AD360074BDB68002B01D1FFF7DE
:10C9100029FF9DF807301846FCF708F800BF03B060
:10C920005DF804FB8471002000B585B003468DF8E6
:10C9300007309DF80730002B02D10C4B039301E028
:10C940000B4B03930398FFF775FF0290029B002B9C
:10C9500006D0029B5B689DF8072010469847F1E7D8
:10C9600000BF00BF05B05DF804FB00BF8C71002064
:10C970009471002000B583B003468DF807309DF810
:10C980000730002B05D10A4B01225A700020FFF717
:10C99000CBFF9DF80730012B05D1054B01229A7082
:10C9A0000120FFF7C1FF00BF03B05DF804FB00BF2B
:10C9B0008471002000B583B001900091019B002B91
:10C9C00005D1054B01225A700020FFF7ADFF00BFD3
:10C9D00003B05DF804FB00BF8471002000B585B092
:10C9E000034600918DF807309DF80730032B29D0BE
:10C9F000032B2CDC002B02D0012B04D027E00020DD
:10CA0000FFF782FE24E000238DF80F300DF10F03B5
:10CA10001846FBF781FF104B1B7883F00103DBB254
:10CA2000002B01D0FFF7B0FE0B4BDB6801330A4A45
:10CA3000D360094B01229A709DF80F301846FBF71E
:10CA400075FF05E000F042F9FFF74EFF00E000BF80
:10CA500000BF05B05DF804FB8471002082B003467E
:10CA60008DF807309DF90730002B0CDB9DF807305F
:10CA700003F01F0205499DF907305B09012000FA08
:10CA800002F241F8232000BF02B0704700E100E04D
:10CA900082B0034600918DF807309DF90730002BD6
:10CAA0000ADB009BDAB20C499DF907305201D2B281
:10CAB0000B4483F800230BE0009BDAB207499DF892
:10CAC000073003F00F03043B5201D2B20B441A7635
:10CAD00000BF02B0704700BF00E100E000ED00E0E1
