:020000022000DC
:1070000000000420757302005D7302005F730200CC
:1070100061730200637302006573020000000000E8
:10702000000000000000000000000000C5A70200F2
:107030006973020000000000E9A702006D730200FE
:1070400049DA02006F7302008D37030079ED020008
:107050006F7302006F73020015DF02006F7302008E
:107060006F730200000000006F7302006F73020074
:107070006F7302006F7302006F7302006F73020080
:10708000000000009DAC02006F7302006F730200ED
:107090006F7302006F730200B52C03006F73020060
:1070A0006F7302006F7302006F7302006F73020050
:1070B0006F7302006F730200000000000000000008
:1070C0006F7302006F7302006F7302006F73020030
:1070D0006F7302006F7302006F7302006F73020020
:1070E0006F7302006F7302006F73020000000000F4
:1070F000000000006F730200000000006F730200C8
:10710000000000000000000000000000000000007F
:10711000000000000000000000000000000000006F
:10712000000000000000000000000000000000005F
:10713000000000000000000000000000000000004F
:10714000000000000000000000000000000000003F
:10715000000000000000000000000000000000002F
:10716000000000000000000000000000000000001F
:10717000000000000000000000000000000000000F
:1071800000000000000000000000000000000000FF
:1071900000000000000000000000000000000000EF
:1071A00000000000000000000000000000000000DF
:1071B00000000000000000000000000000000000CF
:1071C00000000000000000000000000000000000BF
:1071D00000000000000000000000000000000000AF
:1071E000000000000000000000000000000000009F
:1071F000000000000000000000000000000000008F
:10720000354936480A1A02D0072291438D4634493F
:1072100034480A1A06D00722914381F309880222D2
:1072200082F3148830483149314A00F044F831483B
:107230003149324A00F03FF831483249324A00F0D1
:107240003AF832483249334A00F035F83248334987
:10725000334A00F030F833483349344A00F02BF811
:1072600033483449344A00F026F83448344900227F
:1072700000F02CF833483449002200F027F8334856
:107280003349091A082902DB002202604160314AB1
:1072900090471F481F49884205D00268043003B454
:1072A000904703BCF7E700208646EC46002000210B
:1072B000294A9047FEE7884207D0521A05D0037842
:1072C00001300B700131013AF9D17047884202D088
:1072D00002700130FAE770470000042000F8032034
:1072E000000004200000042010AA030078590020A8
:1072F000185A0020D0730200D0730200D476030025
:1073000010AA030078590020785900201078030053
:10731000107803001C780300107803001078030035
:10732000107803001C7803001C78030010AA0300E7
:10733000B0AA0300185A0020185A0020185A00203A
:1073400070970020709700207097002070970020A1
:10735000709B00209D73020039F70200FEE7FEE7F4
:10736000FEE7FEE7FEE7FEE7FEE7FEE7FEE7FEE7F5
:1073700000F002B8FFF7FCBF0F484FF00701884349
:1073800085460E4880470E48016841F4700101604F
:10739000BFF34F8FBFF36F8FFFF732BF09480A4922
:1073A0000A4A884207D0521A05D0037801300B7080
:1073B0000131013AF9D170470000042039A30200DD
:1073C00088ED00E0107803007859002078590020FB
:1073D000FEE7000000B585B00190019B002B0AD0AC
:1073E000074B43F001030393019B9B010293039B13
:1073F0000298984700E000BF05B05DF804FB00BFAD
:107400003078030000B583B00190019B002B0AD0B7
:107410004FF47A70FFF7DEFF019B013B0193019B64
:10742000002BF5D100E000BF03B05DF804FB08B508
:1074300008F0FAFD00BF08BD00B589B003900291C5
:107440000192019B002B33D0002307930323069363
:10745000029A079B1344019A1946002008F094FDF4
:107460000590079A059B13440793019A059BD31A2D
:107470000193059B002B13D10F4B1B7883F0010365
:10748000DBB2002B13D10120FFF7BCFF069B013BB1
:107490000693069B002B03D1074B00221A7007E0CE
:1074A000054B01221A70019B002BD1D100E000BFD7
:1074B00000BF09B05DF804FB185A002000B585B084
:1074C00003900291054B00934023054A02990398CB
:1074D00000F012F800BF05B05DF804FB397402003B
:1074E0001C5A002082B0019000BF02B0704782B0E9
:1074F000019000BF02B0704700B5A1B005900491A3
:1075000003920293049802F017FC039B1593029BCD
:1075100016930023179300238DF8603000231993EE
:10752000229B1A9300231F930FA91F9B08220498E4
:1075300002F0DCFC08231F93119B1293BDF840302E
:10754000ADF84C30BDF84230ADF84E3000238DF828
:1075500051309DF83C3003F00303DBB2012B26D100
:107560000F9BC3F395231C939DF83C30C3F3C203D8
:10757000DBB28DF85030BDF83C30C3F38313DBB27F
:107580001B931B9B9A0009A91F9B049802F0AEFC59
:107590001B9B9B001F9A13441F9312AA09A915ABAA
:1075A000009313461B9A1C9800F0CAFE2FE09DF82A
:1075B0003C3003F00303DBB2022B28D1BDF83E3090
:1075C000C3F389139BB21E939DF83C30C3F3C203EF
:1075D000DBB28DF850301E9B082B28BF08231D936B
:1075E00007A91F9B1D9A049802F080FC1F9A1D9BFF
:1075F00013441F931E9A1D9BD31A1E9315AB12AAF8
:1076000007A81D9900F03EFF1E9B002BE3D10498B4
:1076100002F0A1FB00BF21B05DF804FB82B0019035
:10762000019BDB6801225A7100BF02B07047000065
:1076300000B583B04FF0FF330193FFF7F8FE04214C
:10764000084800F099FD0190019B002B03DA0649E0
:10765000412001F0A4FA0348FFF7E0FF00BF03B0A8
:107660005DF804FB007803004878030000B583B0A0
:1076700001900091019B1B681B6800990198984735
:1076800000BF03B05DF804FB00B583B00190019B1F
:107690001B685B680198984700BF03B05DF804FB66
:1076A00000B583B00190019B1B689B6801989847C7
:1076B00000BF03B05DF804FB82B001900B468DF86B
:1076C0000330019BDB689DF803201A7100BF02B0F4
:1076D000704782B00190019BDB681B79184602B0AD
:1076E000704782B00190019BDB6801225A7100BF94
:1076F00002B0704782B00190019BDB685B7918464D
:1077000002B0704700B585B0019000910C4B00228B
:107710001A700C4802F074FA0390039B002B01D0FE
:10772000039B08E0084802F001FC084A084BD31A02
:10773000DB0802930023184605B05DF804FB00BF88
:10774000C45B002064770300B8780300007803006E
:1077500078770300024A034BD31ADB0818467047B8
:10776000007803007877030000B587B001900B46DE
:107770008DF803309DF80330002B1FD0FFF7EAFF90
:1077800004900023059313E0059B9B000E4A1344CD
:107790000393039B1B881A46019B1B689A4204D1E2
:1077A000019B059A1A60002309E0059B01330593AC
:1077B000059A049B9A42E7D3052300E0002318466C
:1077C00007B05DF804FB00BF7859002000B585B014
:1077D00001900B468DF803309DF8032001AB114654
:1077E0001846FFF7C1FF0346002B07D1019BDB00C2
:1077F000054A13440393039B1B6800E000231846CB
:1078000005B05DF804FB00BF7877030084B00190F9
:107810000B468DF80330019BDB00174A134402939B
:107820009DF80330013B032B1CD801A252F823F032
:107830004178020049780200517802005B7802002A
:1078400002238DF80F3011E004238DF80F300DE086
:10785000029B1B798DF80F3008E0029B5B798DF855
:107860000F3003E000238DF80F3000BF9DF80F307C
:10787000184604B0704700BF7877030084B00190C9
:10788000009100238DF80F30019B1B7803F0040357
:10789000DBB2002B24D0019B1B78C3F30103DBB2C6
:1078A000012B02D0022B0CD017E0009B1B68019A21
:1078B0001288C2F38312D2B213449A1C009B1A603E
:1078C0000BE0009B1B68019A5288C2F3891292B2A6
:1078D00013449A1C009B1A6000BF01238DF80F30DF
:1078E0009DF80F30184604B07047000000B58BB00B
:1078F0000023ADF826303E4801F0A7FA3D4801F0DC
:10790000A4FA3D4B9B6804933C4B1B680693049A76
:10791000069B134002339B00374A134404330893F9
:1079200004AB19460898FFF7A9FF0346002B09D0BE
:10793000049A069B134002339B002F4A13440433DE
:107940000893EDE700BF0023079311E0049B5A1C46
:107950000492069A1340079A920001A90A44264904
:1079600002339B000B445B681360079B0133079352
:10797000079B012BEAD99DF80430C3F30103DBB266
:10798000012B10D0022B1CD1BDF80A30ADF82630E7
:10799000BDF80630C3F389139BB203339A08049BE6
:1079A0001344049313E0BDF80A30ADF82630BDF857
:1079B0000430C3F38313DBB21A46049B13440493CD
:1079C00005E00F494FF4C27001F0E9F800BF094823
:1079D00001F047FA0590059B002B02D0049B064A54
:1079E0009360BDF8263018460BB05DF804FB00BF6D
:1079F000DC5F0020D85F0020C45B0020805900209D
:107A0000C878030000B585B00021074801F08EF961
:107A10000390039B0293029B83F310030193019B4A
:107A2000184605B05DF804FBE05F002000B589B0A2
:107A30000390029101920093039B1B0C0793FFF7A5
:107A4000E1FF0690FFF786FE0246079B934204D3B0
:107A5000214940F2A91001F0A2F8069B1904009BED
:107A60005A1C0A9B1340079A0A431C4902339B0085
:107A70000B445A60009A0A9B134002339B00174A3A
:107A8000134404330593039B03F00703D9B2059A0B
:107A9000137861F3C5031370019B03F00F03D9B290
:107AA000059A138861F389131380029BC3F31501B0
:107AB000059A136861F39F231360059A13780121D7
:107AC00061F301031370059A13786FF38203137047
:107AD00000BF09B05DF804FBC8780300C45B002058
:107AE00000B58DB00390029113468DF80730039BCB
:107AF00002330A9301238DF8273000238DF81B30C1
:107B00000DF11B03184600F0FDFF404B5A68029B25
:107B10001A603F4B1A683D4B99683C4B5B68CB1A27
:107B2000134401330B9314E001213A4801F05DF94D
:107B3000FFF7DCFE07900799364801F056F9344B01
:107B40001A68324B9968314B5B68CB1A1344013386
:107B50000B930A9A0B9B9A42E6D89DF82730002B8C
:107B600048D0002305939DF80730002B17D09DF8CF
:107B70001430012262F301038DF814309DF81430A3
:107B800043F004038DF81430039B03F00F03DAB2C3
:107B9000BDF8143062F38913ADF8143016E09DF887
:107BA0001430022262F301038DF814309DF8143072
:107BB00043F004038DF81430039BC3F309039AB216
:107BC000BDF8163062F38F13ADF816300F4B5A68BC
:107BD0000F4B1B68134002339B000C4A13440433C1
:107BE0000893059A089B1A60084B5A680A9B13442D
:107BF000064A53609DF81B30184600F099FF9DF827
:107C0000273018460DB05DF804FB00BFC45B0020B0
:107C100080590020E05F002000B58BB005900491F2
:107C2000039202931F4B1B68079306AB0122194670
:107C30000298FFF755FF0346002B24D0069B023322
:107C400009930023089311E0089B9B00039A1A44B0
:107C5000099B591C099107990B401268124902337C
:107C60009B000B445A60089B01330893089A029BBF
:107C70009A42E9D3069A079B00931346029A049905
:107C80000598FFF7D3FE084B1B78002B05D000BFEB
:107C900000F068F80346002BFAD100BF0BB05DF886
:107CA00004FB00BF80590020C45B002000B583B0F6
:107CB000019000910023002200990198FFF7ACFF8A
:107CC00000BF03B05DF804FB00B587B003900291DC
:107CD0000192019B059305AA012302990398FFF7DE
:107CE0009BFF00BF07B05DF804FB00B587B00390B1
:107CF000029101920093019B0493009B059304AAB7
:107D0000022302990398FFF787FF00BF07B05DF8D1
:107D100004FB00B58BB00390029101920093019B8C
:107D20000593009B06930C9B07930D9B08930E9B5A
:107D3000099305AA052302990398FFF76DFF00BF79
:107D40000BB05DF804FB0000054B9A68044B5B68C0
:107D50009A420CBF01230023DBB21846704700BFD4
:107D6000C45B002000B599B0FFF7EEFF0346002B7F
:107D700001D00023C0E19B4B0022C3F81824BFF3BD
:107D80004F8F00BF974B9B680493974B1B681093D2
:107D9000049A109B134002339B00924A134404330D
:107DA0001193002317930023169300230F9304AB22
:107DB00019461198FFF762FD0346002B19D0894B35
:107DC000D3F81834002B14D1864B5A68049B9A427E
:107DD00005D8844B5B68834A936000238CE1049A46
:107DE000109B134002339B007E4A134404331193CB
:107DF000DDE70023159311E0049B5A1C0492109AAE
:107E00001340159A920001A90A44764902339B0057
:107E10000B445B681360159B01331593159B012B75
:107E2000EAD99DF8043003F00303DBB2022B40F0E3
:107E30009C80BDF80630C3F389139BB20D93BDF847
:107E40000630C3F389139BB2502B28BF50239BB23B
:107E50000C930C9BC3F309039AB2BDF8063062F38E
:107E60008F13ADF806300C9B08330B939DF804304C
:107E7000C3F3C203DBB20F930B995C4801F0CBFE56
:107E80001790179B002B00F0D380179801F054FF38
:107E900001A9169B0822179802F00AF8169B0833CE
:107EA0001693049BDA43109B134001339B000A9303
:107EB0000C9A0A9B9A4242D90A9B002B08D0049A3A
:107EC000109B134002339B00464A1344043300E0E6
:107ED000474B08930A9B002B02D00A9BDBB201E0C0
:107EE0000C9BDBB28DF81F300A9B002B01D0404B5E
:107EF00000E0002306930A9B002B06D00C9BDAB20D
:107F00000A9BDBB2D31ADBB200E000238DF81730F6
:107F10009DF81F20169B0899179801F0C9FF9DF83E
:107F20001F30169A13441693069B002B16D09DF80B
:107F30001720169B0699179801F0BAFF0EE0049AD5
:107F4000109B134002339B00264A134404330993C9
:107F5000169B0C9A0999179801F0AAFF0D9B033301
:107F60009A08049B1344049362E09DF8043003F0E4
:107F70000303DBB2012B5BD1BDF80430C3F38313E1
:107F8000DBB2062B28BF0623DAB2BDF8043062F359
:107F90008913ADF80430BDF80430C3F38313DBB2AA
:107FA00002330E939DF80430C3F3C203DBB20F9388
:107FB0000E9B9B0019460D4801F02DFE1790179B54
:107FC000002B35D0179801F0B7FE01A9169B0822A7
:107FD000179801F06DFF169B083316930023159335
:107FE0001DE000BFC45B00208059002064770300BF
:107FF000D05B0020049B5A1C0492109A1340023359
:108000009B003F4A1344191D169B0422179801F048
:108010004FFF169B04331693159B01331593BDF840
:108020000430C3F38313DBB21A46159B9342E1D3AA
:10803000179B002B40D0324BD3F810341493304BA5
:10804000D3F81834002B1BD0179801F084FE4DE0B4
:1080500000238DF84F301498FFF74CFB0346002B9C
:1080600002D001238DF84F309DF84F30002B03D004
:1080700017991498FFF7FAFA149BDB681B6814939E
:10808000149B002BE4D1179801F065FE00238DF8B6
:1080900003300DF10303184600F034FD184BD3F8FC
:1080A0001834002B02D1049B154A93609DF80330CD
:1080B000184600F03DFD19E0114BD3F8103412932F
:1080C00006E01298FFF7ECFA129BDB681B6812932C
:1080D000129B002BF5D10B4A0B4BD31ADB081B0468
:1080E00043F0020309491846FFF7E0FDFFF72CFEB5
:1080F000034683F00103DBB2184619B05DF804FBB8
:10810000C45B0020A0770300787703003079030078
:1081100000B585B00023039323E0164BD3F8103449
:10812000029301238DF807300FE00298FFF7D1FA90
:1081300003461A46039B934203D100238DF8073070
:1081400006E0029BDB681B680293029B002BECD1CC
:108150009DF80730002B01D0039B07E0039B013300
:108160000393039B092BD8DD4FF0FF33184605B06E
:108170005DF804FBC45B002000B585B001900B46A0
:108180008DF80330FFF7C4FF0390039BB3F1FF3F6B
:1081900001D1039B22E0039BDBB219460198FFF754
:1081A0008BFA104BD3F81034002B08D10D4A019BE9
:1081B000C2F81034019BDB6800221A600DE0094B05
:1081C000D3F81034DA68019BDB6812681A60054B3B
:1081D000D3F81034DB68019A1A60039B184605B087
:1081E0005DF804FBC45B002000B583B00C4BD3F8F2
:1081F000103401930A4B01221A7009E00198FFF72D
:1082000070FA0198FFF740FA019BDB681B68019345
:10821000019B002BF2D100BF00BF03B05DF804FB4F
:10822000C45B002082B00190009100BF02B0704793
:1082300010B584B003900291039BDB88002B0AD019
:10824000039BDB881A461F4B009313461E4A1F49A7
:10825000029800F043FF039B1B7A052B2ED0039B53
:108260005B7A002B12D0039B9B881A46039B1B7AD8
:1082700019461046FFF7CAFA03461A46144B53F83C
:1082800022301A461349029800F028FF039B1B680E
:1082900019460298FFF7C6FF039B1B7A1A460E4B3E
:1082A00053F82240039B9B8800211846FFF78EFA63
:1082B000034622460949029800F010FF00BF04B0AF
:1082C00010BD00BF6479030074790300AC7903002A
:1082D00098590020C479030084590020C87903000C
:1082E00000B585B00390029113468DF80730039BCB
:1082F0001B7A052B0FD0039B5B7A002B06D00D4B0E
:108300001B681A460C49029800F0E8FE0B490298D7
:1083100000F0E4FE07E09DF80730002B03D007498A
:10832000029800F0DBFE029800F0B6FE00BF05B038
:108330005DF804FB98590020C4790300D479030048
:1083400030B58BB007900691059204930E9B1B7B72
:108350008DF827300E9B00221A730E990498FFF7B0
:1083600067FF059B062B7FD801A252F823F000BFC0
:108370008D83020097830200A7830200BB83020063
:10838000D9830200018402003184020007990E980B
:1083900000F0A4FE69E0069B1B681A4607990E9838
:1083A00000F09CFE61E0069B1A68069B04331B6884
:1083B00007990E9800F092FE57E0069B1A68069BFC
:1083C00004331968069B08331B6800930B46079912
:1083D0000E9800F083FE48E0069B1968069B043364
:1083E0001868069B08331B68069A0C3212680192C3
:1083F000009303460A4607990E9800F06FFE34E09A
:10840000069B1868069B04331C68069B08331B6890
:10841000069A0C321268069910310968029101928D
:1084200000932346024607990E9800F057FE1CE081
:10843000069B1C68069B04331D68069B08331B685B
:10844000069A0C32126806991031096806981430A1
:10845000006803900291019200932B4622460799EF
:108460000E9800F03BFE00E000BF00220E99049839
:10847000FFF736FF0E9B9DF827201A7300BF0BB045
:1084800030BD00BF00B587B0039002910192009308
:10849000029B082B60D8009B1B7B8DF81330009B40
:1084A00000221A7300990198FFF7C2FE002305937A
:1084B00014E0059A029B9A4209D2039A059B134441
:1084C0001B781A462649009800F008FE03E025496B
:1084D000009800F003FE059B01330593059B072BD5
:1084E000E7D92149009800F0F9FD0023059326E023
:1084F000059A029B9A421BD2039A059B13441B7850
:108500008DF812309DF812307E2B0AD89DF812306B
:1085100018460EF051F90346002B02D09DF8123098
:1085200000E02E231A461149009800F0D7FD03E021
:108530000F49009800F0D2FD059B01330593059B80
:10854000072BD5D9012200990198FFF7C9FE009B9E
:108550009DF813201A7300E000BF07B05DF804FB1C
:10856000D8790300E0790300E4790300E879030097
:10857000EC79030086B003900291019201238DF8FB
:1085800017309DF81730204A039B13601E4A029B48
:1085900053601D4A019B9360039B44F20102934286
:1085A00012D0039B44F20202934220D1019B164A4F
:1085B000D360154BDB681B68134A9361124BDB6871
:1085C0005B68114AD36112E0019B0F4A13610E4BA5
:1085D0001B699B680C4A53610B4B1B691B680A4A59
:1085E0009361094B1B695B68074AD36100BF72B690
:1085F00000BF00BF9DF81730DBB2002BFAD162B686
:1086000000BF00BF06B07047E45F002000B583B034
:1086100002900091019244F2010071466A4600F016
:1086200003F803B000BD00BF30B58BB007900691D2
:10863000059272B600BFFFF7D7FD00BFFFF792FBB0
:108640000346002BFAD1079B44F2020293422FD03B
:10865000079B44F20202934269D8079B44F201024D
:10866000934237D0079B44F2010293425FD8079BA5
:10867000012B05D0079B41F2010293420CD056E03A
:10868000394A3A4BD31ADB081B0443F0010338493B
:108690001846FFF70BFB57E0334A344BD31ADB087D
:1086A0001B0443F0010333491846FFF7FFFA4BE080
:1086B000059B09932C4A2D4BD31ADB081B0443F06E
:1086C0000100099B5B681A46099B1B682A49FFF752
:1086D0000CFB39E0059B0893234A244BD31ADB0893
:1086E0001B0443F00104089B9D68089B9B68184687
:1086F00001F096FC03461846089B5B681946089BE8
:108700001B68069A02920193009103462A461B4970
:108710002046FFF7FEFA144A144BD31ADB081B0459
:1087200043F0010316491846FFF7C0FA0CE00E4A61
:108730000E4BD31ADB081B0443F00103069A1149C0
:108740001846FFF7C1FA00BF0F4B1B6803F0010387
:10875000002B00D000BE059A06990798FFF70AFF84
:1087600000BF0BB030BD00BFA077030078770300D7
:10877000607A0300807A0300A47A0300C07A0300C1
:10878000E87A0300FC7A0300F0ED00E000B585B064
:108790000190019804F08CFB0390039B5B68019AA5
:1087A0009A4203D010496A2000F0F9F9039B9B68B4
:1087B000002B03D10C496B2000F0F1F9039B1B7BCC
:1087C000002B0CD0039B5B7B83F00103DAB2039B8D
:1087D0001A73039B9B68039A12681046984700BF60
:1087E00005B05DF804FB00BF147B030000B58BB03F
:1087F00005900B4603928DF81330059B1B68089378
:1088000000230993039B002B02D0059B002B01D171
:10881000072338E0089B1B7B002B01D0082332E0A4
:10882000089B5B68002B2BD11022002108980EF0CA
:1088300009F99DF81330002B14BF01230023DBB28C
:1088400007939DF81330002B0CBF01230023DAB2ED
:10885000089B5A73089B039A9A600D4B0093089BE0
:10886000079A4FF47A710B4803F0FCFF0246089B0D
:108870005A60089B5B68002B04D10E23099301E02A
:10888000082300E0099B18460BB05DF804FB00BF0D
:108890008D8702007C7B030000B58BB005900491AE
:1088A0000392059B0993099B5B680893089B002B27
:1088B00001D108235FE0099B1B7B002B01D0002323
:1088C00059E0099B039A1A60EFF305830793079B0E
:1088D000002B30D00023069306AB00220092049AAE
:1088E0000921089804F014F80346012B01D0042351
:1088F00041E003F0BFF9024606AB002100910621DA
:10890000089804F005F80346012B01D0042332E057
:10891000069B002B0CD00CF01DFD194B4FF0805224
:108920005A6040BFBFF34F8F00BFBFF36F8F1EE091
:108930000CF0F4FC1BE0022300930023049A0421B2
:10894000089803F0E5FF0346012B01D0042312E051
:1089500003F086F9024602230093002301210898C0
:1089600003F0D6FF0346012B01D0042303E0099B4B
:1089700001221A73002318460BB05DF804FB00BFF8
:1089800000ED00E000B589B00390039B0793079BBF
:108990005B680693069B002B01D1082338E0EFF3B8
:1089A00005830593059B002B21D00023049304AB82
:1089B0000022009200220821069803F0A9FF034636
:1089C000012B01D0042323E0049B002B0CD00CF0DE
:1089D000C1FC114B4FF080525A6040BFBFF34F8F24
:1089E00000BFBFF36F8F0FE00CF098FC0CE0022388
:1089F0000093002300220321069803F089FF034619
:108A0000012B01D0042303E0079B00221A730023EB
:108A1000184609B05DF804FB00ED00E082B0EFF30A
:108A200010830093009B019372B600BF019B184610
:108A300002B0704762B600BF00BF704700B585B096
:108A40000190FFF7EBFF0390164B9B68002B1BD1A7
:108A5000144B01229A60144BD3F88020134B13401F
:108A6000104A1360104B114AC3F880200E4BD3F804
:108A700084300C4A53600C4B4FF0FF32C3F8842013
:108A8000019B00221A7002E0019B01221A70039BD5
:108A9000002B01D1FFF7CEFF0023184605B05DF88B
:108AA00004FB00BF0460002000E100E0FC06FFBD05
:108AB00000B585B003468DF80730104B9B68002B3E
:108AC00016D09DF80730002B12D1FFF7A7FF0390B7
:108AD0000B4A0A4B1B681360094A084B5B685360DA
:108AE000064B00229A60039B002B01D1FFF7A2FFE7
:108AF0000023184605B05DF804FB00BF04600020A9
:108B000000E100E000B583B0019000F02BF80346CF
:108B1000012B03D00549432000F041F80198FFF7ED
:108B20008DFF00BF03B05DF804FB00BF807B030036
:108B300000B583B003468DF8073000F013F8034604
:108B4000012B03D00649512000F029F89DF8073089
:108B50001846FFF7ADFF00BF03B05DF804FB00BF90
:108B6000807B030084B0EFF305830193019BC3F383
:108B700008030393039B002B0DD1EFF314830093A1
:108B8000009B0293029B03F00103002B0CBF012307
:108B90000023DBB200E00123184604B0704700B5A3
:108BA00085B003460091ADF80630BDF8063002935B
:108BB000009B039302AB1A46002144F20200FFF728
:108BC00033FD00BF05B05DF804FB86B00190009155
:108BD000019B53E8021F1FFAA1F2D888824202BF0C
:108BE000BFF32F8F00230DE0D88902449889824279
:108BF00028BF121AC1EA024243E802200028E8D145
:108C00004FF001038DF80F30059002910492029A03
:108C1000009B1A609DF80F30DBB2184606B0704713
:108C200084B00190019951E8023FC3EA234341E82F
:108C30000232002AF7D10392029300BF04B07047BA
:108C400000B585B001900091009B19460198FFF78F
:108C5000BCFF0346002B07D0019B1B68009A52887B
:108C600013440393039B00E00023184605B05DF80E
:108C700004FB00B583B001900091009B1A88009B13
:108C80005B889A4204D10198FFF7CAFF012300E0F4
:108C90000023184603B05DF804FB00B585B00190D1
:108CA0000091009B5B099B00019A1A44009B03F012
:108CB0001F03012101FA03F31946104600F04DF895
:108CC000039000BF05B05DF804FB00B585B00190CE
:108CD0000091009B5B099B00019A1A44009B03F0E2
:108CE0001F03012101FA03F3DB431946104600F08C
:108CF00064F8039000BF05B05DF804FB82B00190FA
:108D00000091009B5B099B00019A13441A68009B29
:108D100003F01F0322FA03F303F00103002B14BF37
:108D200001230023DBB2184602B0704710B487B0AD
:108D300001900091019B009A53E8004F104643E8D0
:108D4000000191F0000FF7D1059404900391059B69
:108D5000184607B05DF8044B704710B487B0019017
:108D60000091019B009A53E8004F44EA020043E857
:108D7000000191F0000FF6D1059404900391049B3B
:108D8000184607B05DF8044B704710B487B00190E7
:108D90000091019B009A53E8004F04EA020043E867
:108DA000000191F0000FF6D1059404900391059B0A
:108DB000184607B05DF8044B704710B487B00190B7
:108DC0000091019B009A53E8004F04EA020043E837
:108DD000000191F0000FF6D1059404900391049BDB
:108DE000184607B05DF8044B704710B487B0019087
:108DF0000091019B009A53E8004F04EB020043E806
:108E0000000191F0000FF6D1059404900391049BAA
:108E1000184607B05DF8044B704710B487B0019056
:108E20000091019B009A53E8004FA4EB020043E835
:108E3000000191F0000FF6D1059404900391049B7A
:108E4000184607B05DF8044B704700B583B0019039
:108E500001210198FFF781FF0346184603B05DF832
:108E600004FB00B583B0019000210198FFF78DFF4E
:108E70000346184603B05DF804FB000000B583B05C
:108E800001900B468DF80330019B002B03D108495C
:108E9000E820FFF784FE019BDA689DF80330019912
:108EA000098A01FB03F31344184603B05DF804FB81
:108EB000E87B030000B583B001900091019B002B7B
:108EC00003D10849F520FFF76AFE009B019AD2689A
:108ED0009B1A019A128AB3FBF2F3DBB2184603B075
:108EE0005DF804FBE87B030000B585B00190019BB1
:108EF000002B01D10E234CE0019B1B68002B03D1FA
:108F00002649FF20FFF74BFE019B5B68002B04D135
:108F100022494FF48070FFF742FE019B9B68002BB3
:108F200004D11E4940F20110FFF739FE019BDB68B6
:108F3000002B04D119494FF48170FFF730FE019BDB
:108F40001B8A002B04D1154940F20310FFF727FEBE
:108F5000019B9A68019B5B68D31A8DF80F30019BC7
:108F60001B68019A52681A6007E0019B1A6813682F
:108F7000591C11609DF80F201A709DF80F305A1E71
:108F80008DF80F20002BF0D1019B1B6800221A7175
:108F90000023184605B05DF804FB00BFE87B030022
:108FA00000B585B00190019B002B04D11F494FF4FF
:108FB0009270FFF7F4FD0023039300238DF80A302D
:108FC0000DF10A031846FFF79DFD019B1B681A6807
:108FD000019B5B689A421FD9019B1B681A68013A82
:108FE0001A601B681B7819460198FFF747FF03902A
:108FF000019B9A68019B1B681B68D31A8DF80B3084
:10900000019B1B681B799DF80B209A4204D9019B98
:109010001B689DF80B201A719DF80A301846FFF75F
:1090200087FD039B184605B05DF804FBE87B030051
:1090300010B584B001900091019B002B04D115491B
:1090400040F24710FFF7ABFD009B002B04D1114904
:109050004FF4A470FFF7A3FD009B039300238DF84A
:109060000B300DF10B031846FFF74CFD019B1B68FD
:109070001C68621C1A6003990198FFF71BFF0346E6
:1090800023709DF80B301846FFF752FD00BF04B067
:1090900010BD00BFE87B030000B583B00190019BC9
:1090A000002B03D10C493120FFF779FD019B9B6810
:1090B000002B0CD0019B5B69019A1069019A116821
:1090C000019A92689847019B00229A6000E000BFD5
:1090D00003B05DF804FB00BF4C7C03000EB400B588
:1090E00084B00190019B002B03D118494220FFF767
:1090F00056FD019B5B69002B03D114494320FFF708
:109100004EFD019B1B68002B03D110494420FFF743
:1091100046FD019B5B68002B03D10C494520FFF7FE
:109120003EFD059B002B0AD00023039306AB03935F
:1091300003AB1A460599019800F0B0F900E000BFB2
:1091400004B05DF804EB03B0704700BF4C7C030033
:1091500000B583B001900B468DF80330019B1A686F
:10916000019B9B68581C0199886013449DF803205B
:109170001A70019B9A68019B5B689A4202D301981E
:10918000FFF78AFF00BF03B05DF804FB00B587B0AE
:10919000039002910192009300230593009B03F03A
:1091A0000103002B24D00BE0029B01330293059BAB
:1091B000013305939DF8133019460398FFF7C8FF54
:1091C000029B1B788DF813309DF81330002BEBD1E8
:1091D00006E0019B013B019320210398FFF7B8FFB4
:1091E000019A059B9A422ED9019B002BF1D12AE0CE
:1091F000029B002B0BD002980DF0A0FC059006E01E
:10920000019B013B019320210398FFF7A1FF019AE5
:10921000059B9A420FD9019B002BF1D10BE0029BD9
:1092200001330293059B013305939DF813301946D2
:109230000398FFF78DFF029B1B788DF813309DF884
:109240001330002BEBD100BF07B05DF804FB00002A
:1092500000B589B00390029101920093029B07939D
:109260000123069307E0079A019BB2FBF3F30793F0
:10927000069B01330693079A019B9A42F3D2009A08
:10928000069B9A4201D9009B06930B9B03F00103B6
:10929000002B22D10A9B002B1FD00B9B03F0020353
:1092A000002B06D0009B002B03D130238DF8173004
:1092B00002E020238DF8173008E00A9B013B0A9357
:1092C0009DF8173019460398FFF742FF0A9B002BC1
:1092D00003D0069A0A9B9A42EFD301230793009B7F
:1092E000012B03D9009B013B009309E0029A079BE5
:1092F000B2FBF3F30493049A019B9A4200D205E077
:10930000079B019A02FB03F30793E8E7029A079B86
:10931000B2FBF3F30493049B079A02FB03F3029A54
:10932000D31A0293154A049B13441B7819460398D9
:10933000FFF70EFF079A019BB2FBF3F30793079B1E
:10934000002BE3D10B9B03F00103002B11D00A9BF0
:10935000002B0ED006E00A9B013B0A9320210398C4
:10936000FFF7F6FE0A9B002B03D0069A0A9B9A424F
:10937000F1D300BF09B05DF804FB00BF047D03001A
:1093800000B589B00590049103920293049B002BD1
:10939000B8BF5B4206930123079307E0039B069A3D
:1093A00092FBF3F30693079B01330793039B069A03
:1093B0009A42F3DA029A079B9A4201D9029B0793D9
:1093C0000A9B002B0AD0049B002B04DB0B9B03F0B1
:1093D0000403002B02D00A9B013B0A930B9B03F072
:1093E0000203002B02D0029B002B16D00B9B03F034
:1093F0000103002B11D10A9B002B0ED006E00A9B23
:10940000013B0A9320210598FFF7A2FE0A9B002B3F
:1094100003D0079A0A9B9A42F1D3049B002B07DAE8
:10942000049B5B4204932D210598FFF791FE08E011
:109430000B9B03F00403002B03D02B210598FFF7AF
:1094400087FE0B9B03F00203002B19D00B9B03F04C
:109450000103002B14D1029B002B11D10A9B002B7E
:109460000ED006E00A9B013B0A9330210598FFF7D6
:109470006FFE0A9B002B03D0079A0A9B9A42F1D3F6
:1094800004990B9B01930A9B0093029B039A0598F6
:10949000FFF7DEFE00BF09B05DF804FB00B58FB03A
:1094A000059004910392059B002B04D1AD4940F235
:1094B0005220FFF774FB059B5B69002B04D1A9497F
:1094C0004FF41570FFF76BFB059B1B68002B04D155
:1094D000A44940F25520FFF762FB059B5B68002B17
:1094E00004D1A04940F25620FFF759FB049B002B02
:1094F00000F09381049B1B788DF83730049B013377
:1095000004939DF83730002B00F07E819DF83730B2
:10951000252B40F06D8100230A9301230C93049BBB
:109520001B788DF837309DF83730302B0DD0302B2D
:109530001BDC2B2B11D02D2B17D10A9B43F00103E1
:109540000A93049B0133049312E00A9B43F0020345
:109550000A93049B013304930AE00A9B43F004033B
:109560000A93049B0133049302E000230C9300BF91
:109570000C9B002BD3D1002309939DF837302A2B65
:109580000CD1039B1B68191D039A11601B68099A73
:1095900013440993049B013304931AE0049B1B7842
:1095A0008DF837309DF837302F2B12D99DF8373092
:1095B000392B0ED8049B01330493099A13469B0060
:1095C00013445B001A469DF837301344303B09932F
:1095D000D3E700230B93049B1B788DF837309DF85D
:1095E00037302E2B1DD1049B01330493049B1B7831
:1095F0008DF837309DF837302F2B12D99DF8373042
:10960000392B0ED8049B013304930B9A13469B000D
:1096100013445B001A469DF837301344303B0B93DC
:10962000E4E7049B1B788DF837309DF837306C2BBE
:1096300003D09DF83730682B07D1049B0133049386
:10964000049B1B788DF83730EFE79DF83730252BDA
:1096500000F0C480252BC0F2C680782B00F3C380B5
:10966000582BC0F2C080583B202B00F2BC8001A2D6
:1096700052F823F069970200E7970200E79702008B
:10968000E7970200E7970200E7970200E7970200DA
:10969000E7970200E7970200E7970200E7970200CA
:1096A000F99602001B970200E7970200E797020075
:1096B000E7970200E79702001B970200E797020076
:1096C000E7970200E7970200E7970200E79702009A
:1096D000E7970200A9970200E7970200E7970200C8
:1096E0008D970200E79702003F970200E79702007C
:1096F000E797020069970200039B1B68191D039AF4
:1097000011601B680C930C9B8DF81F309DF81F3067
:1097100019460598FFF71CFD66E0039B1B68191DA1
:10972000039A11601B680C930A9B0193099B009399
:109730000B9B0A220C990598FFF722FE54E0039B2D
:109740001B68191D039A11601B680C930C990A9BE6
:109750000193099B00930B9B0A220598FFF778FD64
:1097600042E000BFA47C0300039B1B68191D039A01
:1097700011601B680C930C990A9B0193099B009341
:109780000B9B10220598FFF763FD2DE0039B1B68E0
:10979000191D039A11601B6808930A9B099A08997E
:1097A0000598FFF7F3FC1FE0039B1B68191D039A44
:1097B00011601B680C9330210598FFF7C9FC7821D4
:1097C0000598FFF7C5FC0C9900230193082300932B
:1097D000082310220598FFF73BFD05E02521059899
:1097E000FFF7B6FC00E000BF049B0133049305E0E3
:1097F0009DF8373019460598FFF7AAFC049B1B78A3
:10980000002B7FF477AE00E000BF059B1B7B002B95
:1098100004D00598FFF740FC00E000BF0FB05DF8F2
:1098200004FB00BF29DF704700BF184628DF7047E0
:1098300000BF184600B589B001900091019B1B68DC
:109840009B68002B35D002AB00221A605A609A60E8
:10985000DA601A615A61009B0393019B9B6807932E
:10986000019B1B79002B02D0012B0DD01AE00123A4
:109870008DF80830019B1B690493019BDB680593FD
:10988000019B5B6906930DE002238DF80830019B74
:10989000DB684FF4805202FB03F30493019B5B6986
:1098A000069300BF019B1B689B6802AA104698475D
:1098B00000E000BF09B05DF804FB00B587B001907F
:1098C000019B5A69019B9B69D31AB3F5805F28BF3E
:1098D0004FF4805305930422059BB3FBF2F3012B55
:1098E00038BF01230593019B1A69019B9B691344AF
:1098F0000493019BDB681A46019B9B691344039305
:10990000059A03990498FFF78DFF0346184607B0A0
:109910005DF804FB00B583B00190019BDA68019B00
:109920001B6913441846FFF781FF0346184603B02E
:109930005DF804FB08B5034B03491846FFF799F996
:1099400000BF08BD106000203860002008B5084B3B
:1099500008491846FFF774F90346074A1360064B97
:109960001B68002B14BF01230023DBB2184608BD7F
:1099700010600020386000203460002000B583B003
:109980002A4B1B7A002B0BD1FFF7E0FF034683F035
:109990000103DBB2002B03D0244B00225A6042E0CB
:1099A000224B02221A72224B1B681B79002B02D019
:1099B000012B07D00DE01E4B1B681846FFF77DFFFB
:1099C000019009E01A4B1B681846FFF7A3FF0190AE
:1099D00002E00323019300BF019B002B03D0019BF6
:1099E000112B0CD00FE0114B1B7C83F00103DBB279
:1099F000002B17D00021022000F06EF812E00B4B74
:109A000001221A720FE00A4B1B6803211846FFF768
:109A100011FF064B00221A72044B00225A60FFF716
:109A200089FF00E000BF03B05DF804FB2060002068
:109A30003460002084B001901B4B0022DA60019B4F
:109A40001B79002B02D0012B19D028E0019B5A6909
:109A5000019B9B69D31AB3F5805F28BF4FF48053F5
:109A60000393019B9A69039B1A44019B9A61019B92
:109A70009A69019B5B699A420ED1012310E0019B18
:109A80001B695A1C019B1A61019B1A69019B5B6946
:109A90009A4203D1012303E000BF00E000BF00238E
:109AA000184604B0704700BF2060002082B00190CB
:109AB000084BDB680133074AD360064BDB68082B91
:109AC00004D9044B0022DA60012300E00023184689
:109AD00002B070472060002000B585B00190009171
:109AE000019B022B02D0019B032B48D1274B1B7AF1
:109AF000022B05D0022B35DC002B42D0012B31E0AC
:109B000000238DF80F30019B022B03D0019B032B08
:109B100009D011E01E4B1B681846FFF78BFF034668
:109B20008DF80F3008E01A4B1B681846FFF7BEFF90
:109B300003468DF80F3000BF9DF80F30002B10D07A
:109B4000124B00221A72124B1A68019B022B01D190
:109B5000002300E00D2319461046FFF76BFEFFF7C8
:109B6000E9FE00BF094B5B7C83F00103DBB2002BF5
:109B700002D0FFF703FF05E009F052F802E000BF52
:109B800000E000BF05B05DF804FB00BF20600020CE
:109B90003460002082B0034600918DF80730064BF8
:109BA00001225A74044B1B7A002B0CBF01230023A3
:109BB000DBB2184602B070472060002000B583B0C9
:109BC000034600918DF807309DF80730012B03D034
:109BD0009DF80730032B0DD1084B00225A749DF8D5
:109BE0000730012B0CBF01230023DAB2034B1A7498
:109BF000FFF7C4FE00BF03B05DF804FB2060002047
:109C000000B583B001900198FFF76EF9034618463E
:109C100003B05DF804FB00B58BB001900091019B8F
:109C20001B8A043B0793009A079B1344DA1C079B8B
:109C3000B2FBF3F38DF81B300198FFF7B1F90590F3
:109C4000059B002B01D1002338E0059B00221A71EF
:109C5000059B01225A71079B9AB2059BDA80059BEE
:109C600009939DF81B30013B0493099B019A1A60EC
:109C7000002308931DE00198FFF792F90390039BDE
:109C8000002B0ED0059B5B790133DAB2059B5A712C
:109C9000099B039A1A60039B019A1A60039B09931C
:109CA00004E0059800F00EF8002307E0089B01335C
:109CB0000893089A049B9A42DDD3059B18460BB083
:109CC0005DF804FB00B58BB00190019B0793079BE7
:109CD0005B798DF81B30019B08939DF81B30013B8D
:109CE00005930023099305E0089B1B680893099BD3
:109CF00001330993099A059B9A42F5D3089B1B6887
:109D00000493019B0893002309930BE0089B1B68B5
:109D1000039308990498FFF78BF9039B0893099B19
:109D2000013309939DF81B30099A9A42EED300BF84
:109D300000BF0BB05DF804FB00B585B00190019B3E
:109D40000393039B043301211846FFF74EF800BF2D
:109D500005B05DF804FB00B587B00190019B059349
:109D6000059B043301211846FFF757F80346039378
:109D700003AB0493049B1B78002B02D10198FFF7DF
:109D8000A1FF00BF07B05DF804FB000000B591B073
:109D90000390029101920093039B002B03D143494E
:109DA000B620FEF7FCFE039B0993039B0F93099BD0
:109DB000DB881A46099B5B7902FB03F3043B08939B
:109DC000009A089B9A4203D33849C420FEF7E7FE65
:109DD000099BDB880793009B1A1D079BB2FBF3F3DB
:109DE0000E93009B0433079AB3FBF2F2079901FB31
:109DF00002F29B1A0D93019B1A68009B1344089A68
:109E00009A4203D2089A009BD31A01E0019B1B6877
:109E10000C93019B0C9A1A6005E00F9B1B680F9333
:109E20000E9B013B0E930E9B002BF6D100230B9350
:109E3000079A0D9BD31A0A930A9A0C9B934228BF48
:109E400013460A932AE0029A0B9B134406930F9A37
:109E50000D9B1344043305939DF84830002B05D027
:109E60000A9A059906980CF0C4FD04E00A9A06992E
:109E700005980CF0BEFD00230D930F9B1B680F93FC
:109E80000C9A0A9BD31A0C930B9A0A9B13440B93BC
:109E9000079A0C9B934228BF13460A930C9B002BF6
:109EA000D1D100BF00BF11B05DF804FBC87E030034
:109EB00000B589B00590049103920293039B079328
:109EC00007AA00230093029B04990598FFF75EFF01
:109ED000079B039A9A4203D00349F620FEF75FFEE0
:109EE00000BF09B05DF804FBC87E030000B589B06F
:109EF0000590049103920293039B079307AA012301
:109F00000093029B04990598FFF740FF079B039A73
:109F10009A4204D004494FF48070FEF740FE00BF1F
:109F200009B05DF804FB00BFC87E030082B0019059
:109F3000019B9B6800229A60019B9B6800221A612A
:109F4000019B9B6800225A61019B9B680022DA609A
:109F5000019B9B6800225A60019B9B6800221A604B
:109F600000BF02B07047000000B583B001900091BF
:109F7000019B002B03D110495020FEF710FE009BDF
:109F8000002B03D10C495120FEF709FE019B009ADA
:109F90001A60019B1B681A68019B5A60019B5A68F2
:109FA000019B1B685B689A4202D1019B00225A60A8
:109FB00000BF03B05DF804FB2C7F030000B583B045
:109FC0000190019B002B03D114496320FEF7E7FDAC
:109FD000019B1B68002B03D110496420FEF7DFFDB5
:109FE000019B5B68002B14D0019B5B681A46019BA8
:109FF0001B689B6813441A46019B5A60019B5A6870
:10A00000019B1B685B689A4204D1019B00225A6045
:10A0100000E000BF03B05DF804FB00BF2C7F03002D
:10A0200000B585B00190019800F00EF80390039BF5
:10A03000002B01D0039B00E0024B184605B05DF8F1
:10A0400004FB00BFA87F030086B00190164B059368
:10A05000164B04931FE0049A059BD31ADB10DA0F0A
:10A0600013445B10DB00059A13440393039B1B68A6
:10A070000293029A019B9A4202D9039B04930AE03D
:10A08000029A019B9A4203D2039B0833059302E094
:10A09000039B5B6804E0059A049B9A42DBD3002390
:10A0A000184606B0704700BFA8830300D0840300A1
:10A0B000BFF34F8F00BF064BDB6803F4E062044937
:10A0C000044B1343CB60BFF34F8F00BF00BFFDE7CE
:10A0D00000ED00E00400FA0582B0124B1B6801930A
:10A0E000114B1B680093019B082B17D1009B032B7E
:10A0F00012D801A252F823F009A102000DA102001A
:10A1000011A1020015A10200012308E0012306E0CD
:10A11000012304E0012302E0012300E000231846AC
:10A1200002B07047300100103401001082B0124BB1
:10A130001B680193114B1B680093019B082B17D1DF
:10A14000009B032B12D801A252F823F05DA102005C
:10A1500061A1020065A1020069A10200012308E0DB
:10A16000012306E0012304E0012302E0012300E0D3
:10A170000023184602B0704730010010340100106F
:10A1800082B0124B1B680193114B1B680093019B1B
:10A19000082B17D1009B032B12D801A252F823F0F1
:10A1A000B1A10200B5A10200B9A10200BDA1020047
:10A1B000012308E0002306E0002304E0002302E07E
:10A1C000002300E00023184602B070473001001061
:10A1D0003401001082B0124B1B680193114B1B68B5
:10A1E0000093019B082B17D1009B032B12D801A2CF
:10A1F00052F823F005A2020009A202000DA20200FB
:10A2000011A20200012308E0002306E0002304E07D
:10A21000002302E0002300E00023184602B070474C
:10A22000300100103401001082B0124B1B68019302
:10A23000114B1B680093019B082B17D1009B032B2C
:10A2400012D801A252F823F059A202005DA2020026
:10A2500061A2020065A20200012308E0002306E0DB
:10A26000002304E0002302E0002300E0002318465E
:10A2700002B07047300100103401001082B0124B60
:10A280001B680193114B1B680093019B082B17D18E
:10A29000009B032B12D801A252F823F0ADA20200BA
:10A2A000B1A20200B5A20200B9A20200012308E097
:10A2B000002306E0002304E0002302E0002300E086
:10A2C0000023184602B0704730010010340100101E
:10A2D00082B0124B1B680193114B1B680093019BCA
:10A2E000082B17D1009B032B12D801A252F823F0A0
:10A2F00001A3020005A3020009A302000DA30200AE
:10A30000012308E0012306E0012304E0012302E029
:10A31000012300E00023184602B07047300100100E
:10A3200034010010024B034A1A6000BF704700BF9F
:10A33000BC5900200090D00308B5FFF7CDFE0346BE
:10A34000002B0ED04FF080430022C3F80C214FF0B9
:10A3500080430022C3F810214FF080430022C3F84D
:10A360003825FFF7E3FE0346002B76D04FF08053ED
:10A370007D4AD3F80434C2F820354FF080537A4A2E
:10A38000D3F80834C2F824354FF08053764AD3F816
:10A390000C34C2F828354FF08053734AD3F8103488
:10A3A000C2F82C354FF080536F4AD3F81434C2F8FA
:10A3B00030354FF080536C4AD3F81834C2F8343536
:10A3C0004FF08053684AD3F81C34C2F840354FF040
:10A3D0008053654AD3F82034C2F844354FF0805397
:10A3E000614AD3F82434C2F848354FF080535E4AAE
:10A3F000D3F82834C2F84C354FF080535A4AD3F87A
:10A400002C34C2F850354FF08053574AD3F83034CB
:10A41000C2F854354FF08053534AD3F83434C2F85D
:10A4200060354FF08053504AD3F83834C2F8643561
:10A430004FF080534C4AD3F83C34C2F868354FF0A3
:10A440008053494AD3F84034C2F86C354FF08053FA
:10A45000454AD3F84434C2F87035FFF791FE0346FD
:10A46000002B02D0414B424A1A60FFF7B3FE03466D
:10A47000002B03D03F4BFB22C3F81825FFF7D4FE77
:10A480000346002B0AD03C4B1B6823F00F023B4BCA
:10A490001B6803F00F03384913430B60FFF7EEFE10
:10A4A0000346002B03D0364B4FF400721A60FFF7BF
:10A4B0000FFF0346002B0DD04FF08043D3F800343C
:10A4C00003F00103002B05D04FF080436FF0010231
:10A4D000C3F800242B4BD3F888302A4A43F4700386
:10A4E000C2F88830BFF34F8F00BFBFF36F8F00BF3C
:10A4F0004FF01023D3F80032002B05DB4FF0102370
:10A50000D3F80432002B2BDA1F4B0122C3F80425A9
:10A5100000BF1D4BD3F80034002BFAD04FF01023AE
:10A520001222C3F8002200BF174BD3F80034002BCF
:10A53000FAD04FF010231222C3F8042200BF124BAE
:10A54000D3F80034002BFAD00F4B0022C3F80425B7
:10A5500000BF0D4BD3F80034002BFAD0FFF7A8FD55
:10A56000FFF7E0FE00BF08BD00C000408C56004071
:10A570004881030000F00040E40E00405802001043
:10A580004096024000ED00E000E0014000B585B0DB
:10A59000019000230393019B03F00703002B0ED0CF
:10A5A000019B23F007030833019A9A4205D2019BCD
:10A5B00023F007030833019301E00023019301F026
:10A5C000A5FA184B1B68002B05D1174B23F0070386
:10A5D0001A46144B1A60019B002B1BD0134B1A68B0
:10A5E000019B134440F6F772934213D80F4B1A683D
:10A5F000019B1A440D4B1B689A420BD9094B1A68F0
:10A600000A4B1B6813440393084B1A68019B1344BD
:10A61000064A136001F084FA039B184605B05DF802
:10A6200004FB00BF40700020446000203C7000200C
:10A6300000B583B00190019B002B03D00349892012
:10A64000FEF7ADFA00BF03B05DF804FBD085030050
:10A65000034B1B68C3F57F6308331846704700BF80
:10A660003C70002082B00190019B03F10802019B25
:10A670005A60019B4FF0FF329A60019B03F1080280
:10A68000019BDA60019B03F10802019B1A61019BA7
:10A6900000221A6000BF02B0704782B00190019B97
:10A6A00000221A6100BF02B0704784B0019000918F
:10A6B000019B5B680393009B039A5A60039B9A6813
:10A6C000009B9A60039B9B68009A5A60039B009AC8
:10A6D0009A60009B019A1A61019B1B685A1C019B9E
:10A6E0001A6000BF04B0704784B001900091009BD5
:10A6F0001B680293029BB3F1FF3F03D1019B1B69CF
:10A7000003930CE0019B0833039302E0039B5B6817
:10A710000393039B5B681B68029A9A42F6D2039BE1
:10A720005A68009B5A60009B5B68009A9A60009B85
:10A73000039A9A60039B009A5A60009B019A1A61DF
:10A74000019B1B685A1C019B1A6000BF04B0704734
:10A7500084B00190019B1B690393019B5B68019A84
:10A7600092689A60019B9B68019A52685A60039BA9
:10A770005B68019A9A4203D1019B9A68039B5A60D5
:10A78000019B00221A61039B1B685A1E039B1A60DF
:10A79000039B1B68184604B0704700000848006817
:10A7A00080F3088862B661B6BFF34F8FBFF36F8F37
:10A7B0004FF4F07080F3118800DF00BF00BF00008D
:10A7C00000700200074B19680868B0E8F04F80F38A
:10A7D0000988BFF36F8F4FF0000080F31188704736
:10A7E00000BF000060700020EFF30980BFF36F8F9F
:10A7F000154B1A681EF0100F08BF20ED108A20E9D3
:10A80000F04F10604DF8043D4FF0400080F3118888
:10A81000BFF34F8FBFF36F8F01F0E4FA4FF00000EA
:10A8200080F3118808BC19680868B0E8F04F1EF082
:10A83000100F08BFB0EC108A80F30988BFF36F8F48
:10A84000704700BF00BF000060700020034BDB6852
:10A850001B0A03F007031846704700BF00ED00E035
:10A8600082B0034600918DF807309DF90730002B28
:10A870000ADB009BDAB20C499DF907305201D2B2D3
:10A880000B4483F800230BE0009BDAB207499DF8E4
:10A89000073003F00F03043B5201D2B20B441A7687
:10A8A00000BF02B0704700BF00E100E000ED00E033
:10A8B00084B0039002910192039B043B0393002315
:10A8C00043F080731A46039B1A60039B043B039377
:10A8D000029A039B1A60039B043B03930B4A039B5E
:10A8E0001A60039B143B0393019A039B1A60039B1A
:10A8F000043B0393039B6FF002021A60039B203B0F
:10A900000393039B184604B0704700BF11A90200CF
:10A9100000B583B0074B1B68B3F1FF3F03D0064976
:10A920009E20FEF73CF940230193019B83F311889D
:10A9300000BFFEE7447000203C86030000B585B0F0
:10A94000304B1B68304A934203D03049B020FEF7A9
:10A9500026F92F4B0393039B1B78DBB20293039BD7
:10A96000FF221A70039B1B78DBB28DF807309DF82D
:10A970000730DBB203F00203DAB2264B1A70264B23
:10A9800007221A600BE0244B1B68013B224A13602C
:10A990009DF80730DBB25B00DBB28DF807309DF825
:10A9A0000730DBB203F08003802BECD01A4B1B681E
:10A9B00003F00703184A1360029BDAB2039B1A7074
:10A9C0000F216FF00100FFF74BFF00F0B3F9134BBD
:10A9D00000221A6000F06EF8114B5B68104A43F0D9
:10A9E00040435360074B1B69064A43F01003136151
:10A9F000FFF7D4FEFFF78CFF0023184605B05DF883
:10AA000004FB00BF00ED00E041C20F413C860300A3
:10AA100000E400E0487000204C70002044700020EA
:10AA200030EF00E000B583B040230193019B83F336
:10AA3000118800BF0B4B1B6801330A4A1360094B96
:10AA40001B68012B0AD1084B5B68C3F30803002B7A
:10AA500004D0064940F21110FEF7A1F800BF03B080
:10AA60005DF804FB4470002000ED00E03C8603002C
:10AA700000B583B00D4B1B68002B04D10C494FF47B
:10AA80008C70FEF78CF8094B1B68013B074A13607A
:10AA9000064B1B68002B05D100230193019B83F318
:10AAA000118800BF00BF03B05DF804FB44700020B4
:10AAB0003C860300044BD3F88830034A43F4700308
:10AAC000C2F8883000BF704700ED00E000B585B0E7
:10AAD000EFF305830193019B0093BDF80030C3F3AE
:10AAE00008039BB20393039B0F2B12D9114A039BBC
:10AAF000103B134493F800338DF80B300E4B1B784A
:10AB00009DF80B209A4204D20C494FF4A970FEF72D
:10AB100046F8FFF79BFE0246094B1B689A4204D990
:10AB200006494FF4B170FEF73AF800BF05B05DF882
:10AB300004FB00BF00E100E0487000203C860300F9
:10AB40004C70002082B003468DF807309DF9073025
:10AB5000002B0CDB9DF8073003F01F0205499DF91F
:10AB600007305B09012000FA02F241F8232000BF00
:10AB700002B0704700E100E082B0034600918DF81A
:10AB800007309DF90730002B0ADB009BDAB20C4935
:10AB90009DF907305201D2B20B4483F800230BE039
:10ABA000009BDAB207499DF8073003F00F03043B1E
:10ABB0005201D2B20B441A7600BF02B0704700BFF8
:10ABC00000E100E000ED00E084B0EFF311830193B9
:10ABD000019B039340230293029B83F3118800BFE0
:10ABE000039B184604B0704782B001900091019B0E
:10ABF000009AC3F8042300BF02B0704784B00190EC
:10AC00000B46ADF80230BDF80230019A1344002221
:10AC10001A60BDF80230019A13441B680393039B2A
:10AC200000BF04B0704782B00190019BD3F8043597
:10AC3000184602B07047000000B583B00190009143
:10AC4000009BB3F5805F04D306494FF4BE70FDF757
:10AC5000A6FF019B009AC3F8082500BF03B05DF86A
:10AC600004FB00BFA886030082B001900B468DF85C
:10AC700003309DF80320019B13441A4601231360FF
:10AC800000BF02B0704782B001900091019B009A12
:10AC9000C3F8442300BF02B07047000000B587B07E
:10ACA00000230593FFF790FF03900AF0F7FA1F487F
:10ACB000FFF7B9FF02904FF480711C48FFF79EFF29
:10ACC00000F0CEFF0246029B9B1A23F07F430493C1
:10ACD000049B012B0DD901F0B9FA0346022B08D0D1
:10ACE0000123049305E000F0D5FF0246059B1343C2
:10ACF0000593049B5A1E0492002BF4D1059B002B54
:10AD000007D00AF027FB0A4B4FF080525A6040BF31
:10AD100001E00AF003FB039B0193019B83F311887D
:10AD200000BF00BF07B05DF804FB00BF001001408A
:10AD300000ED00E008B5002002F0A8FB1F210E483E
:10AD4000FFF77AFF01210C48FFF74EFF08210A4860
:10AD5000FFF78AFF00210848FFF786FF0221064817
:10AD6000FFF791FF0F211120FFF706FF1120FFF7DA
:10AD7000E9FE00BF08BD00BF0010014084B0EFF342
:10AD800011830193019B039340230293029B83F35E
:10AD9000118800BF039B184604B0704700B585B00A
:10ADA00001900091019B0393039B002B04D12C493C
:10ADB00040F20D10FDF7F3FEFFF734FE039B1A6817
:10ADC000039BDB6B0399096C01FB03F31A44039BA0
:10ADD0009A60039B00229A63039B1A68039B5A6044
:10ADE000039B1A68039BDB6B013B0399096C01FB16
:10ADF00003F31A44039BDA60039BFF2283F8442089
:10AE0000039BFF2283F84520009B002B16D1039B58
:10AE10001B69002B1CD0039B1033184601F092F8DD
:10AE20000346002B14D00F4B4FF080525A6040BFA6
:10AE3000BFF34F8F00BFBFF36F8F09E0039B103349
:10AE40001846FFF70FFC039B24331846FFF70AFC54
:10AE5000FFF70EFE0123184605B05DF804FB00BFA6
:10AE6000D886030000ED00E000B58BB0059004919A
:10AE700013468DF80F30059B002B04D11F494FF46A
:10AE8000C370FDF78CFE059B049A02FB03F3099344
:10AE9000049B002B0BD0099A049BB2FBF3F3059A99
:10AEA0009A4204D015494FF4C770FDF778FE099B0C
:10AEB00013F1490F04D9114940F29110FDF76FFECB
:10AEC000099B48331846FFF761FB0890089B002B4D
:10AED0000ED0089B0793079B483307939DF80F20DC
:10AEE000089B00931346079A0499059800F008F808
:10AEF000089B18460BB05DF804FB00BFD886030022
:10AF000000B585B00390029101928DF80330029B49
:10AF1000002B03D1069B069A1A6002E0069B019A59
:10AF20001A60069B039ADA63069B029A1A6401214F
:10AF30000698FFF733FF9DF80330029A03997320B8
:10AF400009F00AFE00BF05B05DF804FB00B58DB046
:10AF5000059004910392029300230B93059B0A939F
:10AF60000A9B002B04D17A494FF44370FDF717FE7A
:10AF7000049B002B08D10A9B1B6C002B04D0744946
:10AF800040F20D30FDF70BFE029B022B08D10A9B0D
:10AF9000DB6B012B04D06E4940F20E30FDF7FFFD54
:10AFA00001F054F90346002B07D1039B002B04D07A
:10AFB000674940F21130FDF7F2FDFFF733FD0A9BC0
:10AFC0009A6B0A9BDB6B9A4202D3029B022B3BD10A
:10AFD0000A9B18460AF01AFB049A0399029B0093F5
:10AFE0000B4601465A2009F02DFE029A04990A9850
:10AFF00000F03EFA09900A9B5B6A002B12D00A9B74
:10B000002433184600F09EFF0346002B18D0514B06
:10B010004FF080525A6040BFBFF34F8F00BFBFF365
:10B020006F8F0DE0099B002B0AD04A4B4FF08052E6
:10B030005A6040BFBFF34F8F00BFBFF36F8F00BF99
:10B04000FFF716FD01237FE0039B002B10D1FFF7D4
:10B050000FFD0A9B18460AF0D9FA049A0399029B3D
:10B0600000930B4601465A2009F0ECFD00236BE0EB
:10B070000B9B002B05D107AB184600F0C5FF012341
:10B080000B93FFF7F5FC00F041FDFFF7CBFC0A9BAB
:10B0900093F844305BB2B3F1FF3F03D10A9B002227
:10B0A00083F844200A9B93F845305BB2B3F1FF3F2D
:10B0B00003D10A9B002283F84520FFF7D9FC03AA9D
:10B0C00007AB1146184600F0B1FF0346002B26D10E
:10B0D0000A9800F0C7FA0346002B1AD00A9B1033D7
:10B0E000039A1146184600F0E3FE0A9800F04EFA63
:10B0F00000F016FD0346002B7FF45FAF154B4FF0B9
:10B1000080525A6040BFBFF34F8F00BFBFF36F8FB5
:10B1100019E00A9800F03AFA00F002FD4DE70A98AB
:10B1200000F034FA00F0FCFC0A9B18460AF06EFAB4
:10B13000049A0399029B00930B4601465A2009F09A
:10B1400081FD002300E038E718460DB05DF804FBF0
:10B15000D886030000ED00E000B58BB003900291AB
:10B1600001920093039B0893089B002B04D1424952
:10B170004FF47870FDF713FD029B002B08D1089B5C
:10B180001B6C002B04D03C4940F2E130FDF707FD79
:10B19000009B022B08D1089BDB6B012B04D03649A6
:10B1A00040F2E230FDF7FBFCFFF790FCFFF7E6FD15
:10B1B0000790089B9A6B089BDB6B9A4202D3009B1B
:10B1C000022B42D1089B93F845308DF81B30089B29
:10B1D0009B6B0593089B18460AF018FA0146019BE1
:10B1E0001A46602009F060FC009A0299089800F065
:10B1F0003FF99DF91B30B3F1FF3F12D1089B5B6A09
:10B20000002B1FD0089B2433184600F09BFE0346FA
:10B21000002B17D0019B002B14D0019B01221A6038
:10B2200010E09DF91B307F2B04D1134940F26B4095
:10B23000FDF7B5FC9DF81B300133DBB25AB2089B19
:10B2400083F84520012309930BE0089B18460AF078
:10B25000DDF90146019B1A46602009F025FC002318
:10B260000993079B0493049B83F3118800BF099BF8
:10B2700018460BB05DF804FBD886030010B58CB0FF
:10B2800005900491039200230B93059B0A930A9B5C
:10B29000002B04D1744940F22F50FDF780FC049B31
:10B2A000002B08D10A9B1B6C002B04D06E4940F286
:10B2B0003350FDF774FC00F0C9FF0346002B07D1A3
:10B2C000039B002B04D068494FF4A760FDF767FC8F
:10B2D000FFF7A8FB0A9B9B6B0993099B002B32D0BD
:10B2E00004990A9800F02DF90A9B18460AF08EF985
:10B2F000044600200AF08AF90246039B01210091CE
:10B3000021465C2009F09EFC099B5A1E0A9B9A6309
:10B310000A9B1B69002B12D00A9B1033184600F0C1
:10B3200011FE0346002B0AD0504B4FF080525A605A
:10B3300040BFBFF34F8F00BFBFF36F8F00BFFFF75A
:10B3400097FB01238CE0039B002B13D1FFF790FBAD
:10B350000A9B18460AF05AF9044600200AF056F9EA
:10B360000246039B0121009121465C2009F06AFC02
:10B37000002375E00B9B002B05D107AB184600F0AE
:10B3800043FE01230B93FFF773FB00F0BFFBFFF7B6
:10B3900049FB0A9B93F844305BB2B3F1FF3F03D102
:10B3A0000A9B002283F844200A9B93F845305BB245
:10B3B000B3F1FF3F03D10A9B002283F84520FFF73A
:10B3C00057FB03AA07AB1146184600F02FFE0346B1
:10B3D000002B26D10A9800F030F90346002B1AD032
:10B3E0000A9B2433039A1146184600F061FD0A981F
:10B3F00000F0CCF800F094FB0346002B7FF468AF1C
:10B400001A4B4FF080525A6040BFBFF34F8F00BFBE
:10B41000BFF36F8F23E00A9800F0B8F800F080FBCC
:10B4200056E70A9800F0B2F800F07AFB0A9800F0AC
:10B4300004F90346002B3FF44BAF0A9B18460AF071
:10B44000E5F8044600200AF0E1F80246039B0121DA
:10B45000009121465C2009F0F5FB002300E037E76E
:10B4600018460CB010BD00BFD886030000ED00E008
:10B4700000B587B003900291019200230593039BCE
:10B480009B6B0493039B1B6C002B0DD1039B1B68D0
:10B49000002B4DD1039B9B68184600F0F1FE0590F0
:10B4A000039B00229A6043E0019B002B19D1039B70
:10B4B0005868039B1B6C1A4602990BF09AFA039B7F
:10B4C0005A68039B1B6C1A44039B5A60039B5A687F
:10B4D000039B9B689A422BD3039B1A68039B5A6079
:10B4E00026E0039BD868039B1B6C1A4602990BF05D
:10B4F00080FA039BDA68039B1B6C5B421A44039B34
:10B50000DA60039BDA68039B1B689A4207D2039BAD
:10B510009A68039B1B6C5B421A44039BDA60019B95
:10B52000022B05D1049B002B02D0049B013B04930A
:10B53000049B5A1C039B9A63059B184607B05DF851
:10B5400004FB00B583B001900091019B1B6C002BA4
:10B5500018D0019BDA68019B1B6C1A44019BDA60CE
:10B56000019BDA68019B9B689A4203D3019B1A688E
:10B57000019BDA60019BD968019B1B6C1A460098FD
:10B580000BF037FA00BF03B05DF804FB00B585B0DF
:10B590000190FFF747FA019B93F845308DF80F3083
:10B5A00013E0019B5B6A002B14D0019B24331846E7
:10B5B00000F0C8FC0346002B01D000F08FFD9DF881
:10B5C0000F30013BDBB28DF80F309DF90F30002BAF
:10B5D000E7DC00E000BF019BFF2283F84520FFF776
:10B5E00047FAFFF71FFA019B93F844308DF80E30AD
:10B5F00013E0019B1B69002B14D0019B10331846EC
:10B6000000F0A0FC0346002B01D000F067FD9DF880
:10B610000E30013BDBB28DF80E309DF90E30002B61
:10B62000E7DC00E000BF019BFF2283F84420FFF726
:10B630001FFA00BF05B05DF804FB00B585B00190AE
:10B64000FFF7F0F9019B9B6B002B02D101230393C1
:10B6500001E000230393FFF70BFA039B184605B0A4
:10B660005DF804FB00B585B00190FFF7DBF9019BA5
:10B670009A6B019BDB6B9A4202D10123039301E099
:10B6800000230393FFF7F4F9039B184605B05DF818
:10B6900004FB000000B585B00190009100230393E6
:10B6A0001EE0134A039B52F83330002B15D110498A
:10B6B000039B009A41F833200D4A039BDB0013449F
:10B6C000019A5A60019B184609F0A0FF0146009BB1
:10B6D0001A46712009F0E8F906E0039B0133039351
:10B6E000039B012BDDD900BF00BF05B05DF804FB53
:10B6F0005070002000B587B0039002910192039B27
:10B700000593FFF78FF9059B93F844305BB2B3F1D3
:10B71000FF3F03D1059B002283F84420059B93F84B
:10B7200045305BB2B3F1FF3F03D1059B002283F8A4
:10B730004520FFF79DF9059B9B6B002B06D1059BD0
:10B740002433019A0299184600F0D2FB0598FFF7BE
:10B750001DFF00BF07B05DF804FB84B0EFF3118359
:10B760000193019B039340230293029B83F311886F
:10B7700000BF039B184604B0704700B58DB007901A
:10B78000069104931346ADF81630BDF816309B00B1
:10B790001846FEF7FBFE0990099B002B0ED05020A7
:10B7A000FEF7F4FE0B900B9B002B03D00B9B099A2A
:10B7B0001A6305E00998FEF73BFF01E000230B93B5
:10B7C0000B9B002B14D0BDF81620002303930B9B7A
:10B7D00002930F9B01930E9B0093049B069907987D
:10B7E00000F00EF80B9800F08DF801230A9302E0A8
:10B7F0004FF0FF330A930A9B18460DB05DF804FB27
:10B8000000B587B003900291019200930A9B186BD8
:10B81000019B9B001A46A5210BF014F90A9B1A6B99
:10B82000019B03F18043013B9B0013440493049B61
:10B8300023F007030493049B03F00703002B04D0B9
:10B840002F494FF45C70FDF7AAF90023059312E02D
:10B85000029A059B134419780A9A059B13443433C2
:10B860000A461A70029A059B13441B78002B06D0D7
:10B87000059B01330593059B092BE9D900E000BF27
:10B880000A9B002283F83D20089B042B01D9042346
:10B8900008930A9B089ADA620A9B089A1A640A9B20
:10B8A00000225A640A9B04331846FEF7F6FE0A9BF0
:10B8B00018331846FEF7F1FE0A9B0A9A1A61089B94
:10B8C000C3F105020A9B9A610A9B0A9A5A620A9B73
:10B8D00000229A640A9B002283F84C20009A039964
:10B8E0000498FEF7E5FF02460A9B1A60099B002BAD
:10B8F00002D0099B0A9A1A6000BF07B05DF804FBEA
:10B900003487030030B585B00390FFF78BF83B4BCD
:10B910001B680133394A1360394B1B68002B09D16E
:10B92000374A039B1360354B1B68012B10D100F085
:10B93000F7FB0DE0334B1B68002B09D1304B1B6824
:10B94000DA6A039BDB6A9A4202D82D4A039B136092
:10B950002D4B1B6801332C4A1360039B002B16D020
:10B96000039B184609F02EFD0398039B03F1340155
:10B97000039BDA6A039B1B6B1D46039B1B681C46DB
:10B98000039B1B6BE31A00932B4604F065F8039BA3
:10B99000184609F09BFD039BDA6A1C4B1B689A4210
:10B9A00003D9039BDB6A194A1360039BDA6A1346C7
:10B9B0009B0013449B00164A1A44039B0433194608
:10B9C0001046FEF772FEFFF753F80E4B1B68002B74
:10B9D00011D00B4B1B68DA6A039BDB6A9A420AD2CE
:10B9E0000C4B4FF080525A6040BFBFF34F8F00BFE7
:10B9F000BFF36F8F00BF00BF05B030BD38710020AE
:10BA000060700020447100205471002040710020BB
:10BA10006470002000ED00E000B585B001900023C7
:10BA20000393019B002B15D0134B1B68002B04D0F4
:10BA3000124940F21C50FDF7B2F800F067F8019986
:10BA4000232008F0F5FF0021019800F079FE00F0B6
:10BA500067F80390039B002B0AD1094B4FF08052EB
:10BA60005A6040BFBFF34F8F00BFBFF36F8F00BF5F
:10BA700000BF05B05DF804FB60710020348703004F
:10BA800000ED00E000B585B0194B01930023009351
:10BA900000233C2217491848FFF76FFE0390039BD1
:10BAA000012B02D100F0B2FE0390039B012B12D1B7
:10BAB00040230293029B83F3118800BF0F4B4FF08A
:10BAC000FF321A600E4B01221A600E4B00221A60E0
:10BAD000FEF734FF08E0039BB3F1FF3F04D10A49AE
:10BAE00040F2EB70FDF75BF800BF05B05DF804FBBA
:10BAF0005C71002090870300EDC0020058710020A7
:10BB0000447100203C71002034870300034B1B6804
:10BB10000133024A136000BF704700BF607100200C
:10BB200000B585B00023039300230293424B1B68AA
:10BB3000002B04D1414940F64F00FDF730F8FEF7E5
:10BB400071FF3D4B1B68013B3B4A13603A4B1B683E
:10BB5000002B69D13A4B1B68002B65D033E0394B81
:10BB6000DB68DB680393039B18331846FEF7F0FD90
:10BB7000039B04331846FEF7EBFD039B184609F0C0
:10BB8000A5FC039BDA6A304B1B689A4203D9039BDE
:10BB9000DB6A2D4A1360039BDA6A13469B00134449
:10BBA0009B002A4A1A44039B043319461046FEF7A9
:10BBB0007CFD039BDA6A264B1B68DB6A9A4202D340
:10BBC000244B01221A601F4B1B68002BC7D1039B1B
:10BBD000002B01D000F01EFB1F4B1B680193019B43
:10BBE000002B10D000F056F80346002B02D0194B62
:10BBF00001221A60019B013B0193019B002BF1D1B3
:10BC0000154B00221A60134B1B68002B0CD001232C
:10BC10000293124B4FF080525A6040BFBFF34F8FD8
:10BC200000BFBFF36F8F00BFFEF722FF029B1846D5
:10BC300005B05DF804FB00BF60710020348703008D
:10BC400038710020F87000204071002064700020DE
:10BC5000607000204C7100204871002000ED00E071
:10BC600082B0034B1B680193019B184602B07047DA
:10BC70003C71002000B583B0FEF728FF002301933C
:10BC8000034B1B680093009B184603B05DF804FB50
:10BC90003C71002000B587B000230593454B1B681D
:10BCA000002B77D1444B1B6801330493424A049B19
:10BCB0001360049B002B1AD1404B1B681B68002BA0
:10BCC00004D03F4940F64220FCF769FF3B4B1B681C
:10BCD00003933C4B1B68394A13603A4A039B136039
:10BCE000394B1B680133384A136000F093FA374B25
:10BCF0001B68049A9A4252D3304B1B681B68002B76
:10BD000004D1324B4FF0FF321A6048E02B4B1B68D6
:10BD1000DB68DB680293029B5B680193049A019BDA
:10BD20009A4203D2294A019B136038E0029B0433F4
:10BD30001846FEF70DFD029B9B6A002B04D0029B68
:10BD400018331846FEF704FD029B184609F0BEFBA7
:10BD5000029BDA6A1E4B1B689A4203D9029BDB6A7C
:10BD60001B4A1360029BDA6A13469B0013449B0034
:10BD7000184A1A44029B043319461046FEF795FCF4
:10BD8000029BDA6A144B1B68DB6A9A42B4D3012324
:10BD90000593B1E7114B1B680133104A1360104B38
:10BDA0001B68002B01D001230593059B184607B0A3
:10BDB0005DF804FB607100203C710020F0700020F1
:10BDC00034870300F4700020507100205871002067
:10BDD00040710020647000206070002048710020D5
:10BDE0004C71002000B583B02A4B1B68002B03D098
:10BDF000294B01221A6049E0274B00221A60274B89
:10BE00001B6801930AE0019B002B04D1244940F6F2
:10BE10005F30FCF7C4FE019B013B01932149019A6D
:10BE200013469B0013449B000B441B68002BEAD075
:10BE3000019A13469B0013449B001A4A1344009333
:10BE4000009B5B685A68009B5A60009B5A68009B85
:10BE500008339A4204D1009B5B685A68009B5A6081
:10BE6000009B5B68DB68104A13600C4A019B1360FF
:10BE70000D4B1A680D4B1B689A4202D109F086FAE5
:10BE800004E0094B1B68184609F0DEFA00BF03B056
:10BE90005DF804FB607100204C71002040710020AF
:10BEA0003487030064700020607000205C71002003
:10BEB00000B583B001900091019B002B04D10A4989
:10BEC00040F66F30FCF76BFE084B1B6818331946C1
:10BED0000198FEF709FC0121009800F031FC00BF39
:10BEE00003B05DF804FB00BF3487030060700020DE
:10BEF00000B585B0039002910192039B002B04D101
:10BF00000E4940F69A30FCF74AFE0D4B1B68183379
:10BF100019460398FEF7C9FB019B002B02D04FF096
:10BF2000FF330293242008F067FD0199029800F086
:10BF300007FC00BF05B05DF804FB00BF34870300B9
:10BF40006070002000B585B00190019BDB68DB6864
:10BF50000293029B002B04D1244940F6CA30FCF71F
:10BF60001EFE029B18331846FEF7F2FB204B1B689F
:10BF7000002B21D1029B04331846FEF7E9FB029BFC
:10BF8000184609F0A3FA029BDA6A1A4B1B689A4218
:10BF900003D9029BDB6A174A1360029BDA6A1346D5
:10BFA0009B0013449B00144A1A44029B0433194615
:10BFB0001046FEF77AFB05E0029B183319460F483E
:10BFC000FEF773FB029BDA6A0D4B1B68DB6A9A4231
:10BFD00005D9012303930B4B01221A6001E00023D2
:10BFE0000393039B184605B05DF804FB34870300F8
:10BFF000607100204071002064700020F870002003
:10C00000607000204C71002082B00190054B1A68CE
:10C01000019B1A60044B1A68019B5A6000BF02B072
:10C02000704700BF507100203C71002000B587B000
:10C0300001900091019B002B04D1254940F6354029
:10C04000FCF7ADFD009B002B04D1214940F63640A2
:10C05000FCF7A5FDFEF7E6FC1E4B1B680493019B55
:10C060005B68049AD31A0393009B1B68B3F1FF3FEC
:10C0700002D10023059323E0019B1A68164B1B682D
:10C080009A4207D0019B5B68049A9A4202D301232B
:10C09000059315E0009B1B68039A9A420BD2009B04
:10C0A0001A68039BD21A009B1A600198FFF7ACFF35
:10C0B0000023059304E0009B00221A6001230593EE
:10C0C000FEF7D6FC059B184607B05DF804FB00BFE1
:10C0D000348703003C71002050710020024B012284
:10C0E0001A6000BF704700BF4C71002000B583B0DC
:10C0F000019000F053F8084B1B68012BF9D9074B4E
:10C100004FF080525A6040BFBFF34F8F00BFBFF364
:10C110006F8F00BFEDE700BF6470002000ED00E00E
:10C1200000B583B0002301930CE0019A13469B00F5
:10C1300013449B00114A13441846FEF793FA019BDF
:10C1400001330193019B042BEFD90D48FEF78AFAC6
:10C150000C48FEF787FA0C48FEF784FA0B48FEF706
:10C1600081FA0B48FEF77EFA0A4B054A1A600A4B21
:10C17000044A1A6000BF03B05DF804FB647000203D
:10C18000C8700020DC700020F87000200C710020C6
:10C1900024710020F0700020F470002000B583B0FE
:10C1A00019E0FEF73FFC104BDB68DB680193019B55
:10C1B00004331846FEF7CCFA0C4B1B68013B0B4AC4
:10C1C00013600B4B1B68013B094A1360FEF750FCE0
:10C1D000019800F00FF8064B1B68002BE1D100BF5F
:10C1E00000BF03B05DF804FB0C7100203871002023
:10C1F0002071002000B583B00190019B1B6B184695
:10C20000FEF716FA0198FEF713FA00BF03B05DF8C7
:10C2100004FB000082B00B4B1B681B68002B04D191
:10C22000094B4FF0FF321A6008E0064B1B68DB68D1
:10C23000DB680193019B5B68034A136000BF02B097
:10C24000704700BFF07000205871002082B00A4B88
:10C250001B68002B02D10123019308E0074B1B68E8
:10C26000002B02D10223019301E000230193019BE3
:10C27000184602B0704700BF447100206071002072
:10C2800000B585B00190019B029300230393019BAD
:10C29000002B4FD02A4B1B68029A9A4204D029499E
:10C2A00040F65A70FCF77BFC029B5B6C002B04D1C0
:10C2B000244940F65B70FCF772FC029B5B6C5A1ED3
:10C2C000029B5A64029BDA6A029B1B6C9A4231D031
:10C2D000029B5B6C002B2DD1029B04331846FEF7AA
:10C2E00037FA019B19464A2008F0A2FB029B1A6C00
:10C2F000029BDA62029BDB6AC3F10502029B9A6130
:10C30000029BDA6A104B1B689A4203D9029BDB6AD4
:10C310000D4A1360029BDA6A13469B0013449B008C
:10C320000A4A1A44029B043319461046FEF7BDF927
:10C3300001230393039B184605B05DF804FB00BF7F
:10C34000607000203487030040710020647000207A
:10C3500000B585B001900091FEF764FB224B1B688D
:10C360009B6C002B16D1204B1B68012283F84C20BC
:10C37000009B002B0ED00121009800F0E1F91B4B2F
:10C380004FF080525A6040BFBFF34F8F00BFBFF3E2
:10C390006F8F00BFFEF76CFBFEF744FB019B009A1A
:10C3A0001946422008F080FB0F4B1B689B6C0393DF
:10C3B000039B002B0CD0019B002B04D00A4B1B6865
:10C3C00000229A6404E0084B1B68039A013A9A64BD
:10C3D000054B1B68002283F84C20FEF749FB039BAA
:10C3E000184605B05DF804FB6070002000ED00E029
:10C3F00000B589B00590049103920293FEF712FBF9
:10C400002C4B1B6893F84C30DBB2022B1DD0294B10
:10C410001B68996C059AD2430A409A64254B1B68A5
:10C42000012283F84C20029B002B0ED001210298A0
:10C4300000F086F9204B4FF080525A6040BFBFF3A6
:10C440004F8F00BFBFF36F8F00BFFEF711FBFEF7EA
:10C45000E9FA039A029B00931346049A0599402037
:10C4600008F0F0FB039B002B04D0124B1B689A6C66
:10C47000039B1A600F4B1B6893F84C30DBB2022B06
:10C4800002D00023079308E00A4B1B68996C049ABA
:10C49000D2430A409A6401230793064B1B6800228B
:10C4A00083F84C20FEF7E4FA079B184609B05DF8C4
:10C4B00004FB00BF6070002000ED00E000B58BB011
:10C4C00005900491029313468DF80F3001230993D0
:10C4D000059B002B04D14E4941F2F610FCF75FFB9F
:10C4E000059B0893FEF79EFA029B002B03D0089B46
:10C4F0009A6C029B1A60089B93F84C308DF81F30A1
:10C50000089B022283F84C209DF80F30042B29D879
:10C5100001A252F823F000BF65C502002DC502003C
:10C520003BC5020047C502004FC50200089B9A6C3C
:10C53000049B1A43089B9A6414E0089B9B6C5A1C4A
:10C54000089B9A640EE0089B049A9A640AE09DF89E
:10C550001F30022B03D0089B049A9A6401E0002349
:10C56000099300BF089B184609F050F801469DF852
:10C570000F20029B00931346049A3E2008F062FBB2
:10C580009DF81F30012B3BD1089B04331846FEF762
:10C59000DFF8089B184608F099FF089BDA6A1D4BE4
:10C5A0001B689A4203D9089BDB6A1A4A1360089BEE
:10C5B000DA6A13469B0013449B00174A1A44089BEF
:10C5C000043319461046FEF770F8089B9B6A002B4F
:10C5D00004D00F4941F22E20FCF7E1FA089BDA6AF9
:10C5E0000E4B1B68DB6A9A420AD90D4B4FF0805202
:10C5F0005A6040BFBFF34F8F00BFBFF36F8F00BFC4
:10C60000FEF736FA099B18460BB05DF804FB00BF35
:10C6100034870300407100206470002060700020A7
:10C6200000ED00E000B587B001900091019B002B68
:10C6300004D13C4941F2DC20FCF7B1FAFEF746FA9E
:10C64000019B0593FFF789F80490059B93F84C3004
:10C650008DF80F30059B022283F84C20059B9B6CC4
:10C660005A1C059B9A64059B184608F0CFFF0146AB
:10C67000009B1A46412008F017FA9DF80F30012B55
:10C6800045D1059B9B6A002B04D0264941F202301C
:10C69000FCF785FA244B1B68002B21D1059B043342
:10C6A0001846FEF755F8059B184608F00FFF059B46
:10C6B000DA6A1E4B1B689A4203D9059BDB6A1B4A48
:10C6C0001360059BDA6A13469B0013449B00184ACB
:10C6D0001A44059B043319461046FDF7E6FF05E0B2
:10C6E000059B183319461348FDF7DFFF059BDA6AEF
:10C6F000114B1B68DB6A9A4209D9009B002B03D0BF
:10C70000009B01221A6002E00C4B01221A60049B7C
:10C710000293029B83F3118800BF00BF07B05DF84E
:10C7200004FB00BF348703006071002040710020CB
:10C7300064700020F8700020607000204C710020B0
:10C7400000B585B0019000912A4B1B6803932A4BDA
:10C750001B6804331846FDF7FBFF019BB3F1FF3F55
:10C7600010D1009B002B0DD0234B1B681B211846BA
:10C7700008F0EEFE204B1B68043319461F48FDF7F6
:10C7800094FF32E0039A019B134402931A4B1B68F7
:10C79000029A5A60029A039B9A420FD2164B1B6868
:10C7A0000421184608F0D4FE154B1A68124B1B687A
:10C7B000043319461046FDF797FF16E00E4B1B6831
:10C7C0000421184608F0C4FE0E4B1A680A4B1B6879
:10C7D000043319461046FDF787FF0B4B1B68029A7E
:10C7E0009A4202D2084A029B136000BF05B05DF86E
:10C7F00004FB00BF3C710020607000202471002009
:10C80000F4700020F07000205871002000B585B051
:10C810000023039300F016FB0D4B1B68002B0AD07E
:10C820000C4B019302230093002350220A490B482A
:10C83000FEF7A3FF0390039B002B04D1084940F2AD
:10C840000D10FCF7ACF9039B184605B05DF804FB2E
:10C850009471002098710020988703002DCA02006F
:10C86000A087030000B589B005900491039202935C
:10C870002820FDF78BFE0790079B002B0DD0079B10
:10C88000002283F82420079B01930A9B0093029BBC
:10C89000039A0499059800F005F8079B184609B01B
:10C8A0005DF804FB00B585B00390029101920093FE
:10C8B000029B002B04D1154940F25F10FCF76FF981
:10C8C000079B002B1ED000F0BDFA079B039A1A604D
:10C8D000079B029A9A61079B009ADA61079B069A66
:10C8E0001A62079B04331846FDF7D7FE019B002B05
:10C8F00008D0079B93F8243043F00403DAB2079B77
:10C9000083F8242000BF05B05DF804FBA087030076
:10C9100000B58BB00390029101920093002309931C
:10C92000039B002B04D11B494FF4C170FCF737F96E
:10C93000194B1B68002B27D0029B0593019B069384
:10C94000039B0793029B052B16DCFFF77FFC034636
:10C95000022B08D1104B186805A900230C9AFEF78A
:10C96000F5FA099010E00C4B186805A90023002285
:10C97000FEF7ECFA099007E0074B186805A90023B9
:10C98000009AFEF7E9FB0990099B18460BB05DF889
:10C9900004FB00BFA08703009471002000B587B09E
:10C9A000039002911F4B1B68DB68DB680593059BB6
:10C9B00004331846FDF7CCFE059B93F8243003F0B2
:10C9C0000403002B1DD0059B9A69039BD118039B80
:10C9D000029A059800F0C4F80346002B1AD00023F1
:10C9E00000930023039A00210598FFF791FF04901C
:10C9F000049B002B0ED10C494FF40570FCF7CFF8C7
:10CA000008E0059B93F8243023F00103DAB2059B7C
:10CA100083F82420059B1B6A0598984700BF07B040
:10CA20005DF804FB8C710020A087030000B585B081
:10CA3000019002AB184600F057F80390029B19468C
:10CA4000039800F003F800F0CDF8F2E700B585B0E8
:10CA500001900091FFF75AF802AB184600F062F817
:10CA60000390029B002B32D1009B002B0AD1019A2C
:10CA7000039B9A4206D8FFF753F803990198FFF7F2
:10CA80008DFF27E0009B002B08D0144B1B681B6810
:10CA9000002B01D1012300E000230093104B186804
:10CAA000019A039BD31A009A1946FEF723FEFFF75B
:10CAB00037F80346002B0DD10A4B4FF080525A60D5
:10CAC00040BFBFF34F8F00BFBFF36F8F02E0FFF790
:10CAD00027F8FFE700BF05B05DF804FB9071002068
