:020000022000DC
:1070000000000420757302005D730200D994020031
:1070100061730200637302006573020000000000E8
:1070200000000000000000000000000045AA02006F
:10703000697302000000000065AA02006D7302007F
:10704000A5B802006F7302006F73020081C00200D6
:107050006F7302006F73020011BB02006F730200B6
:107060006F7302006F7302006F7302006F73020090
:107070006F7302006F7302006F7302006F73020080
:107080006F73020089AB02006F7302006F7302001E
:107090006F7302006F730200B9F602006F73020093
:1070A0006F7302006F7302006F7302006F73020050
:1070B0006F7302006F730200000000000000000008
:1070C0006F7302006F7302006F7302006F73020030
:1070D0006F7302006F7302006F7302006F73020020
:1070E0006F7302006F7302006F73020000000000F4
:1070F000000000006F730200000000006F730200C8
:10710000000000000000000000000000000000007F
:10711000000000000000000000000000000000006F
:10712000000000000000000000000000000000005F
:10713000000000000000000000000000000000004F
:10714000000000000000000000000000000000003F
:10715000000000000000000000000000000000002F
:10716000000000000000000000000000000000001F
:10717000000000000000000000000000000000000F
:1071800000000000000000000000000000000000FF
:1071900000000000000000000000000000000000EF
:1071A00000000000000000000000000000000000DF
:1071B00000000000000000000000000000000000CF
:1071C00000000000000000000000000000000000BF
:1071D00000000000000000000000000000000000AF
:1071E000000000000000000000000000000000009F
:1071F000000000000000000000000000000000008F
:10720000354936480A1A02D0072291438D4634493F
:1072100034480A1A06D00722914381F309880222D2
:1072200082F3148830483149314A00F044F831483B
:107230003149324A00F03FF831483249324A00F0D1
:107240003AF832483249334A00F035F83248334987
:10725000334A00F030F833483349344A00F02BF811
:1072600033483449344A00F026F83448344900227F
:1072700000F02CF833483449002200F027F8334856
:107280003349091A082902DB002202604160314AB1
:1072900090471F481F49884205D00268043003B454
:1072A000904703BCF7E700208646EC46002000210B
:1072B000294A9047FEE7884207D0521A05D0037842
:1072C00001300B700131013AF9D17047884202D088
:1072D00002700130FAE770470000042000F8032034
:1072E0000000042000000420AC2703008C5900207B
:1072F000B4590020D0730200D0730200F4FC0200E5
:10730000AC2703008C5900208C5900203CFE020061
:107310003CFE02003CFE02003CFE02003CFE02007D
:107320003CFE02003CFE02003CFE0200AA270300D5
:10733000D4270300B4590020B4590020B4590020C8
:10734000F8660020F8660020F8660020F866002045
:10735000F86A00209D730200F5C10200FEE7FEE717
:10736000FEE7FEE7FEE7FEE7FEE7FEE7FEE7FEE7F5
:1073700000F002B8FFF7FCBF0F484FF00701884349
:1073800085460E4880470E48016841F4700101604F
:10739000BFF34F8FBFF36F8FFFF732BF09480A4922
:1073A0000A4A884207D0521A05D0037801300B7080
:1073B0000131013AF9D1704700000420F9A7020019
:1073C00088ED00E028FE0200785900208C5900204A
:1073D0007047704700B583B0044B00934023044AC4
:1073E00000F034F803B05DF804FB00BFF573020051
:1073F000B85900200AB3F8B50F46144603260025F5
:1074000003E00E4B01221A70B4B122467919002014
:1074100004F0A6FF0544241A0028F2D1074B1B787C
:1074200053B14FF47A40064B43F001039847013EB5
:10743000E7D1024B00221A70F8BD7047B459002002
:1074400040FE020008B504F0C1FF08BDF0B595B0DC
:107450000E4615461C46084603F0AAF80E950F94F2
:10746000002410948DF8444012941A9B13932346E1
:10747000082208A9304603F0C5F80A9B0B93BDF813
:107480002430ADF83030BDF82630ADF832308DF80C
:1074900035409DF8203003F00303012B06D0022B6A
:1074A00021D0304603F08AF815B0F0BD089DC5F331
:1074B00095259DF82030C3F3C2038DF83430BDF814
:1074C0002040C4F383140823A2000DEB03013046CF
:1074D00003F098F80EAB00930BAB224602A92846A6
:1074E00000F07CFEDDE7BDF82250C5F389159DF85C
:1074F0002030C3F3C2038DF8343008272C46082D02
:1075000028BF08243B46224602A9304603F07AF8F9
:1075100027442D1B0EAB0BAA214602A800F0C2FE89
:10752000002DEBD1BDE7000008B5FFF78BFF04216C
:10753000064800F0BFFD002803DB054B01225A710D
:1075400008BD0449412002F095F8F6E718FE020054
:107550008C59002054FE0200037813F0040F19D058
:1075600003F00303012B03D0022B0AD00120704744
:107570000388C3F383130A68134402330B600120AA
:1075800070474388C3F389130A68134402330B60BE
:107590000120704700207047002002E001238BB9D2
:1075A000013009280CDC084BD3F81034002BF5D03F
:1075B000DB681A79824201D01B68F7E70023EEE707
:1075C0004FF0FF30704700BFC85A002010B584B09C
:1075D0002D4C04F5836002F09DF904F2144002F092
:1075E00099F9A0680390C0B2023004EB8000043027
:1075F00006E09DF80C00831C234800EB8300043058
:1076000003A9FFF7A9FF0028F3D100220BE0039B99
:10761000591C0391DBB202331B4901EB83035B6806
:107620004DF822300132012AF1D99DF8003003F0E3
:107630000303012B16D0022B1ED1BDF80640BDF866
:107640000230C3F389130333039A02EB93030393CA
:107650000E4802F064F910B10B4B039A9A60204671
:1076600004B010BDBDF80640BDF80030C3F383126E
:10767000039B13440393EBE705494FF4C27001F0F9
:10768000F9FF0024E4E700BFC85A0020DC5E0020B8
:10769000D4FE020010B5074B00221A70064802F013
:1076A0003BFF044608B1204610BD044802F0C0FF6D
:1076B000F9E700BFC85A00204CFD020054FF020049
:1076C0000248034BC01AC008704700BF18FE0200F2
:1076D00060FD020099B110B50446FFF7F1FF0023E9
:1076E00083420AD2074A32F823102268914201D01D
:1076F0000133F5E72360002000E0052010BD0020E5
:10770000704700BF8C59002000B583B0019001A8DC
:10771000FFF7E0FF30B9019A034B53F8320003B092
:107720005DF804FB0020FAE760FD0200094B03EB63
:10773000C0030139032909D8DFE801F0020A040671
:1077400002207047187970475879704700207047B9
:107750000420704760FD0200034B98685B68984204
:1077600014BF002001207047C85A00202DE9F041C5
:1077700086B0FFF7F1FF002840F0248104469248CC
:107780000023C0F81834BFF34F8F83680593DBB232
:10779000023300EB8300043005E0DBB202338A4899
:1077A00000EB8303181D05A9FFF7D6FE30B3864B07
:1077B000D3F8183423BB844B5A68059B9A42ECD803
:1077C000814B9A60FAE0059B591C0591DBB20233AC
:1077D0007D4901EB8303596802AB43F82210013263
:1077E000012AF0D99DF8083003F00303022B09D0D9
:1077F000012B73D0744BD3F81044CEE00022EFE796
:107800000022EDE7BDF80A30C3F389163446502E46
:1078100028BF502464F38F13ADF80A3004F1080137
:107820006A4802F094FE054600283ED002F0C0FEF1
:10783000002308220DEB0201284602F0CDFE059937
:10784000CB43DBB201339A00B4EB830F3AD932B1A8
:10785000CBB202335C4901EB8303191D00E05C49A4
:107860004AB1D7B24AB1DFF868814AB1E4B2D2B2C4
:10787000A21AD4B205E0E7B2F4E74FF00008F4E74B
:10788000002408233A46284602F0A6FE07F1080322
:10789000B8F1000F04D022464146284602F09CFE73
:1078A0000336059B03EB96060596002DA2D0464BAA
:1078B000D3F81044D3F81834002B47D0284602F0F0
:1078C0007DFE76E0CBB202333F4901EB8301082312
:1078D00022460431284602F07FFEE1E7BDF8082089
:1078E000C2F38313062B28BF062363F38912ADF876
:1078F000082002339900354802F029FE0546002889
:10790000D3D002F055FE002308220DEB02012846D9
:1079100002F062FE002408260FE0059B5A1C059227
:10792000DBB20233284901EB8301334604221144C0
:10793000284602F051FE04360134BDF80830C3F386
:107940008313A342E9D8B0E7E3681C684CB1E3684D
:107950005B79002BF8D023681B682946204698479E
:10796000F2E7284602F02AFE00238DF807300DF1D9
:10797000070000F04DFE144BD3F8183413B9124B26
:10798000059A9A609DF8070000F076FE11E02368E2
:107990009B6820469847E3681C68002CF7D10D4B84
:1079A0000D48C01AC00800040C4940F0020000F065
:1079B00017F8FFF7D1FE80F00104E4B2204606B0CC
:1079C000BDE8F0810024F9E7C85A00204CFD020010
:1079D000D45A002060FD020078FD02003CFF020046
:1079E0002DE9F04182B005460E4600238DF80730A0
:1079F0000DF1070000F00CFE364B5C689B681B1B0A
:107A000003F5807311E0334F07F21C480121404613
:107A100001F06AFFFFF7DAFD0146404601F064FF1E
:107A2000BB687A689B1A03F58073012BEBD900229F
:107A3000012363F3010242F004026FF38912254F20
:107A40007968CBB2023307EB83035A600231796065
:107A50009DF8070000F010FE4FEA1548002107F2DC
:107A60001C4001F000FF80F31007FFF729FE80455E
:107A70002AD2631CDBB248EA0747164A023302EBFC
:107A800083035F60E4B2023402EB8404237965F37C
:107A9000C5032371A3886FF38913A380636866F31A
:107AA0009F2363602379012161F301032371DBB21A
:107AB0006FF38203237113781BB1FFF757FE002881
:107AC000FBD102B0BDE8F081034940F2A91001F0FA
:107AD000D1FDCEE7C85A0020D4FE02002DE9F041C6
:107AE00082B005460E46019200238DF803300DF159
:107AF000030000F08DFD3E4B5C689B681B1B03F58B
:107B0000807311E03A4F07F21C480121404601F012
:107B1000EBFEFFF75BFD0146404601F0E5FEBB686A
:107B20007A689B1A03F58073022BEBD9002201239C
:107B300063F3010242F0040263F389122C484168A6
:107B4000CBB2023300EB83035A60033141609DF8EE
:107B5000030000F091FDA01C00236BB9C2B202A982
:107B600001EB830151F8047C911C214A02EB810254
:107B7000576001330130F0E72F0C00211D4801F060
:107B800072FE80F31008FFF79BFD87422AD2631C28
:107B9000DBB247EA0847164A023302EB83035F6011
:107BA000E4B2023402EB8404237965F3C503237144
:107BB000A388012161F38913A380636866F39F237F
:107BC0006360237961F301032371DBB26FF38203F6
:107BD000237113781BB1FFF7C9FD0028FBD102B058
:107BE000BDE8F081044940F2A91001F043FDCEE761
:107BF000C85A0020E45E0020D4FE02002DE9F041C6
:107C000084B005460E460292039300238DF8073098
:107C10000DF1070000F0FCFC3F4B5C689B681B1BF0
:107C200003F5807311E03C4F07F21C4801214046E8
:107C300001F05AFEFFF7CAFC0146404601F054FE2F
:107C4000BB687A689B1A03F58073032BEBD900227B
:107C5000012363F3010242F00402022363F3891259
:107C60002D484168CBB2023300EB83035A600431E4
:107C700041609DF8070000F0FFFCA01C0023012BD1
:107C80000DD8C2B204A901EB830151F8087C911C04
:107C9000214A02EB8102576001330130EFE72F0CDC
:107CA00000211E4801F0DFFD80F31008FFF708FDFA
:107CB00087422BD2631CDBB247EA0847164A0233DD
:107CC00002EB83035F60E4B2023402EB84042379A5
:107CD00065F3C5032371A388022161F38913A3808F
:107CE000636866F39F2363602379012161F30103D5
:107CF0002371DBB26FF38203237113781BB1FFF79B
:107D000035FD0028FBD104B0BDE8F081044940F204
:107D1000A91001F0AFFCCDE7C85A0020E45E0020B6
:107D2000D4FE02002DE9F04184B005460E460192D2
:107D300002930A9B039300238DF803300DF1030097
:107D400000F066FC3F4B5C689B681B1B03F580736F
:107D500011E03C4F07F21C480121404601F0C4FDF0
:107D6000FFF734FC0146404601F0BEFDBB687A686F
:107D70009B1A03F58073042BEBD90022012363F3D4
:107D8000010242F00402032363F389122D48416883
:107D9000CBB2023300EB83035A60053141609DF89A
:107DA000030000F069FCA01C0023022B0DD8C2B216
:107DB00004A901EB830151F80C7C911C214A02EBD0
:107DC0008102576001330130EFE72F0C00211E487C
:107DD00001F049FD80F31008FFF772FC87422BD2B7
:107DE000631CDBB247EA0847164A023302EB8303FF
:107DF0005F60E4B2023402EB8404237965F3C503C7
:107E00002371A388032161F38913A380636866F358
:107E10009F2363602379012161F301032371DBB2A6
:107E20006FF38203237113781BB1FFF79FFC0028C7
:107E3000FBD104B0BDE8F081044940F2A91001F083
:107E400019FCCDE7C85A0020E45E0020D4FE0200F1
:107E50002DE9F04186B005460E46029203930C9B35
:107E600004930D9B059300238DF807300DF1070057
:107E700000F0CEFB3F4B5C689B681B1B03F58073D7
:107E800011E03C4F07F21C480121404601F02CFD57
:107E9000FFF79CFB0146404601F026FDBB687A686F
:107EA0009B1A03F58073052BEBD90022012363F3A2
:107EB000010242F00402042363F389122D48416851
:107EC000CBB2023300EB83035A60063141609DF868
:107ED000070000F0D1FBA01C0023032B0DD8C2B279
:107EE00006A901EB830151F8107C911C214A02EB99
:107EF0008102576001330130EFE72F0C00211E484B
:107F000001F0B1FC80F31008FFF7DAFB87422BD2B7
:107F1000631CDBB247EA0847164A023302EB8303CD
:107F20005F60E4B2023402EB8404237965F3C50395
:107F30002371A388042161F38913A380636866F326
:107F40009F2363602379012161F301032371DBB275
:107F50006FF38203237113781BB1FFF707FC00282E
:107F6000FBD106B0BDE8F081044940F2A91001F050
:107F700081FBCDE7C85A0020E45E0020D4FE020059
:107F80002DE9F04186B005460E46019202930C9B06
:107F900003930D9B04930E9B059300238DF80330F0
:107FA0000DF1030000F034FB3F4B5C689B681B1B2A
:107FB00003F5807311E03C4F07F21C480121404655
:107FC00001F092FCFFF702FB0146404601F08CFCF9
:107FD000BB687A689B1A03F58073062BEBD90022E5
:107FE000012363F3010242F00402052363F38912C3
:107FF0002D484168CBB2023300EB83035A6007314E
:1080000041609DF8030000F037FBA01C0023042B07
:108010000DD8C2B206A901EB830151F8147C911C62
:10802000214A02EB8102576001330130EFE72F0C48
:1080300000211E4801F017FC80F31008FFF740FBF9
:1080400087422BD2631CDBB247EA0847164A023349
:1080500002EB83035F60E4B2023402EB8404237911
:1080600065F3C5032371A388052161F38913A380F8
:10807000636866F39F2363602379012161F3010341
:108080002371DBB26FF38203237113781BB1FFF707
:108090006DFB0028FBD106B0BDE8F081044940F239
:1080A000A91001F0E7FACDE7C85A0020E45E0020ED
:1080B000D4FE020010B50446FFF76EFAB0F1FF3FA0
:1080C0000ED0E36818710A4BD3F810344BB1DA685C
:1080D000E36812681A60064BD3F81034DB681C6042
:1080E00010BD034BC3F81044E36800221A60F7E7A1
:1080F000C85A002010B5094BD3F8104401221A7059
:1081000008E0E36801225A7123685B6820469847BB
:10811000E3681C68002CF4D110BD00BFC85A0020D1
:1081200070B582B004460D46C388A3B9217A0529EB
:108130000FD0637ABBB9227A104B53F8226000212A
:10814000A088FFF7E1FA034632460D49284601F0C0
:10815000C1FC02B070BD0B4A00920B4A0B49284685
:1081600001F0B8FCE2E7A088FFF7E0FA084B53F80B
:1081700020200849284601F0ADFCDCE7240003007C
:108180008CFF020080FF020060FF020068FF020017
:108190000000030088FF020010B50C46037A052B8F
:1081A0000FD0437A3BB90A49204601F093FC2046A0
:1081B00001F07CFC10BD074A0749204601F08AFC0B
:1081C000F1E7002AF3D00249204601F083FCEEE7F4
:1081D00098FF020080FF020088FF02002DE9F043B3
:1081E00085B080460D4617461E460C9C94F80C90B0
:1081F0000023237321463046FFF792FF062F09D84C
:10820000DFE807F00412181F2833400041462046DB
:1082100001F060FC002221463046FFF7BDFF84F8E4
:108220000C9005B0BDE8F0832A684146204601F075
:1082300051FCEFE76B682A684146204601F04AFC92
:10824000E8E7AB6800936B682A684146204601F076
:1082500041FCDFE7EB680193AB6800936B682A6829
:108260004146204601F036FCD4E72B690293EB68C7
:108270000193AB6800936B682A684146204601F081
:1082800029FCC7E76B6903932B690293EB680193A1
:10829000AB6800936B682A684146204601F01AFCDF
:1082A000B8E70000082900D970472DE9F0470746D4
:1082B0000E4690461D4693F80C9000241C731946F8
:1082C0001046FFF72DFF04E01C49284601F002FC90
:1082D0000134072C07D8B442F6D23A5D1849284633
:1082E00001F0F8FBF4E71749284601F0F3FB0024FE
:1082F00009E0824607F014FC78B15246124928463C
:1083000001F0E8FB0134072C0FD8B44208D2385DE5
:108310007E28EED94FF02E0AEFE74FF02E0AECE759
:108320000A49284601F0D6FBECE7012229464046DF
:10833000FFF732FF85F80C90BDE8F087A4FF02003C
:108340009CFF0200A8FF0200ACFF020094FF0200A5
:1083500082B001238DF807309DF80730134B186069
:1083600059609A6044F20103984213D044F2020328
:10837000984207D10D4BDA60DA6812689A61DA68C0
:108380005268DA6172B69DF80730002BFBD162B6F5
:1083900002B07047054B1A611A6992685A611A69EE
:1083A00012689A611A695268DA61EBE7805F00200F
:1083B00000B583B002900091019244F20100714631
:1083C0006A4600F003F803B000BD00002DE9F0415B
:1083D00084B004460E46154672B6FFF78BFEFFF7D3
:1083E000C5F90028FBD144F201039C423BD010D8D0
:1083F000012C1FD041F201039C4250D12E482F4B3B
:10840000C01AC00800042E4940F00100FFF7E8FA46
:108410001AE044F202039C4241D12748274BC01A7C
:10842000C00800042B686A68264940F00100FFF785
:10843000E5FB09E02048214BC01AC008000422498E
:1084400040F00100FFF7CCFA204BD3F8F03013F0E6
:10845000010F00D000BE2A4631462046FFF778FFC4
:1084600004B0BDE8F081144F144BFF1AFF083F041D
:1084700047F00107D5F80880404602F041F903466D
:108480006A6829680296019100924246104938466E
:10849000FFF776FD0F493846FFF7A2FAD4E7064802
:1084A000064BC01AC008000432460B4940F00100D8
:1084B000FFF714FBC8E700BF78FD020060FD020073
:1084C00064000300880003004400030000ED00E0A6
:1084D000A4000300CC000300E000030030B585B029
:1084E0004568002D48D00446037B002B46D102602E
:1084F000EFF3058323B300230393009303AB0A46F2
:108500000921284603F046F8012801D0042036E06E
:1085100002F07CFD02460023009303AB06212846AF
:1085200003F038F80128F1D1039B0BB3164B4FF041
:1085300080525A6040BFBFF34F8FBFF36F8F17E079
:108540000223009300230A460421284603F022F860
:10855000012801D0042012E002F052FD024602235D
:10856000009300230121284603F014F8012808D1C4
:1085700001232373002002E0082000E0002005B062
:1085800030BD0420FBE700BF00ED00E010B584B073
:108590000446406830B3EFF30583B3B10022039281
:1085A000009203AB082102F0F5FF01280BD1039BD9
:1085B000A3B10E4B4FF080525A6040BFBFF34F8FB4
:1085C000BFF36F8F0AE004200AE002230093002328
:1085D0001A46032102F0DEFF012805D10020207396
:1085E00004B010BD0820FBE70420F9E700ED00E02F
:1085F000EFF30583C3F308033BB9EFF3148313F0E0
:10860000010F0CBF012000207047012070470000BF
:1086100038B50446FFF7ECFF01281CD1EFF31082B8
:1086200072B6114B9B68DBB90F4901238B600F4B6E
:10863000D3F880000E4D28400860C3F88050D3F86E
:10864000840048604FF0FF31C3F88410002323708A
:1086500002B962B638BD0749432001F00BF8DDE7E7
:1086600001232370F4E700BFA05F002000E100E0D9
:10867000FC06FFBDF800030010B50446FFF7B8FF85
:10868000012811D10B4B9B686BB164B9EFF31081DA
:1086900072B6084B1868084A10605868506000228B
:1086A0009A6001B962B610BD0449512000F0E2FFA2
:1086B000E8E700BFA05F002000E100E0F800030051
:1086C00038B50546002402E0284698470134032CBB
:1086D00005D8034B53F82430002BF5D1F6E738BD0D
:1086E000B85F00200378013B052B34D8DFE803F0A6
:1086F00003061120293100230B70704701230B70F2
:1087000003898B818388CB81C3688B6000230B74C2
:10871000704702230B7003898B818388CB81C368E8
:108720008B60837D062B14BF002301230B747047DD
:1087300003230B70C3888B810389CB81C3688B6053
:10874000704704230B70C3888B810023CB818B601F
:10875000704705230B707047884207D20368B3F156
:10876000FF3F01D001207047002070470020704774
:108770004388033300EB8300704738B504460D4649
:10878000FFF7F6FF85420CD3A2884FF6FF739A429B
:1087900009D023884BB1A368B3F1FF3F07D0002075
:1087A00038BD0220FCE70120FAE70120F8E70120AC
:1087B000F6E7000060B10A4AD26882420AD8084A45
:1087C0001269824208D310F0030F07D101207047CD
:1087D000002070470020704700207047002070473D
:1087E00078590020094A00EB800C02EB8C0CBCF895
:1087F00008300B44BCF80A0010FA83F080B2B0F5E0
:10880000806F8CBF00200120704700BFEC5F00200C
:108810000023012B19D810B403E001339BB2012BC4
:108820000ED803EB83020A4C04EB820252688A42A0
:10883000F3D202F580528A42EFD90380002001E092
:1088400048F209605DF8044B704748F209607047D0
:10885000EC5F00208B7D022B04D9CB880289134466
:1088600003330381CA8843899B1A033B43817047C2
:10887000F8B5033086B240F2FE339E4221D80D4651
:10888000002401E00134A4B2012C17D804EB8403C6
:108890000D4A12F82330002BF4D131462046FFF761
:1088A000A1FF0028EED02C80074B04EB840203EBE1
:1088B0008202508930445081002001E048F2066075
:1088C000F8BD48F20860FBE7EC5F0020054A01EBC9
:1088D000810C02EB8C0CBCF80A301B1A033BACF881
:1088E0000A307047EC5F0020F8B50E4600EB8000C0
:1088F000134B03EB8000446804F580550868A0B171
:10890000FFF736FF044629462046FFF725FF0746B6
:1089100098B129462046FFF730FF012807D00228EA
:108920000AD00028EFD1346007E00834EBE7204696
:10893000FFF71EFF0446E6E700273846F8BD00BFF4
:10894000EC5F002030B583B005460C464068FFF769
:1089500031FF20B12A89174B1B899A4218D0002376
:1089600023802388012B23D80023019301A9208889
:10897000FFF7BAFF0146B8B1019B2A689868904298
:10898000F4D16B600B4B1B892B81084603B030BDC3
:108990002A6869688B689A42E1D12046FFF738FF60
:1089A000B0FA80F14909F0E7238801332380D8E742
:1089B0000021EAE7D05F0020F8B51C461F4B1B786A
:1089C000002B34D005460F461646002A32D03CB95B
:1089D00048F2046027E000232360A3880133A380CA
:1089E000A388012B20D803EB8303154A12F8233008
:1089F000002BF2D12146A088FFF776FF0028EAD0AD
:108A000023681DB199882A889142F3D11FB1198832
:108A10003A889142EED19B68336023687360094BBA
:108A20001B8933810020F8BD48F20960FBE748F25A
:108A30000160F8E748F20460F5E700BFC85F002076
:108A4000EC5F0020D05F00200B4A138901331381B3
:108A50000023538013730CE003EB83018A00074962
:108A60008A5CB2FA82F25209034919448A720133CC
:108A70009BB2012BF0D97047D05F0020EC5F002043
:108A800000B58646002301E001339BB2012B1BD8C1
:108A90000F4A1A44927A002AF6D00D4A1A4400214D
:108AA000917203EB83020B4901EB8202D268002A28
:108AB000EAD103EB830C01EB8C0C9CF8100000282E
:108AC000E2D0AEF8003000E000205DF804FB00BF0B
:108AD000D05F0020EC5F0020044B5B685B880333B1
:108AE000034A918811FA83F393807047D05F002086
:108AF0002860002030B40E4804680E4B5B880E4995
:108B000003EB830C4FEA8C020A44556805605460FD
:108B1000B0F804C0A2F808C00222828003EB8303ED
:108B200003FA02F2114400230B7430BC704700BFFB
:108B300028600020D05F0020EC5F002008B5124BB9
:108B40001B78072B0AD8DFE803F00409090A10167E
:108B5000161AFFF779FF0C4B01221A7008BDFFF7B8
:108B6000BBFF094B02221A70F8E7FFF7C3FF064B61
:108B700006221A70F2E7044B07221A70EEE7024B46
:108B800001221A70EAE700BFD05F002008B5014655
:108B9000014800F0EDFD08BD1460002008B5064B4B
:108BA00005221A70054902238B80002301220968DF
:108BB000034801F0A3FA08BDD05F00202860002020
:108BC0007859002008B50D4B5B8803EB83010C4AF4
:108BD00002EB8102D26872B9084A0421117003EBDA
:108BE0008303074901EB83010023012249680548FB
:108BF00001F084FA08BDFFF7D1FFFBE7D05F00204A
:108C0000EC5F00207859002000B583B0002300936A
:108C10000823044A04490968044801F09FF903B095
:108C20005DF804FBC401030028600020785900208F
:108C300008B5044B07221A7000225A60FFF7E4FFC0
:108C400008BD00BFD05F002000B583B001460023FF
:108C500000930823034A044801F080F903B05DF84B
:108C600004FB00BFBC01030078590020F8B530B9FF
:108C70000B79032B61D8DFE803F0081E3944324B2F
:108C800000225A604FF4064005E001230B71FFF704
:108C9000BBFF002851D1F8BD0B4600EB80029200CB
:108CA0000021995400EB800003EB80004068FFF73F
:108CB000CBFF012310E00023012B0AD8184603EB59
:108CC0008302224911F82220022AE5D001339BB207
:108CD000F2E7002348F20E60002BDAD11A4B012292
:108CE0001A7000225A6041F61D50D4E700230B7120
:108CF000174902228A8001220968164801F0FEF90C
:108D0000C7E700250D71124C2068FFF79DFF124B3D
:108D10005B8826680D4903EB830201EB82025768EA
:108D200027605660B4F804C0A2F808C00222A280EE
:108D300003EB83039340CD54ABE7034B00225A600F
:108D400048F20D60A7E700BFC85F0020EC5F00207D
:108D50002860002078590020D05F002008B5064B1D
:108D600006221A705B8803EB83039A00034B1344BB
:108D70005868FFF769FF08BDD05F0020EC5F002056
:108D800000B583B002238375002300930423C21827
:108D9000044801F0E3F810B903B05DF804FB48F2B1
:108DA0000D60F9E77859002000B583B0036973B10D
:108DB0000323837500230093042300F10C02083180
:108DC000054801F0CBF820B903B05DF804FB01239E
:108DD000EFE748F20D60F7E77859002000B583B05F
:108DE00001238375C388002200929B0002690C3125
:108DF000044801F0B3F810B903B05DF804FB48F281
:108E00000D60F9E77859002000B583B00378032B93
:108E10000ED00623837500230093042300F108027B
:108E20001944064801F09AF820B903B05DF804FB34
:108E30000523EFE748F20D60F7E700BF78590020FF
:108E400010B582B00C46002300930423084A014663
:108E5000084801F083F840B904EB8404064901EBAB
:108E600084040123237402B010BD48F20D60FAE7B8
:108E7000B801030078590020EC5F002070B50C4663
:108E80008B8A03EB83022D4E06EB8206A8B92B4A90
:108E900003EB830102EB8101496803EB830302EBDF
:108EA00083031D8901EB8505A37D062B0BD8DFE825
:108EB00003F0162E22280D343E003046FFF7CAFC80
:108EC0004FF4064515E048F20E650EE01C480023FD
:108ED0004360A36903601B49FFF734FD50B3294683
:108EE0002046FFF74DFF05461DB121463046FFF7EE
:108EF000B1FC284670BD29462046FFF755FF0546C0
:108F0000F2E729462046FFF769FF0546ECE72946C8
:108F10002046FFF779FF0546E6E70623A375094BD0
:108F20001988074B5868FFF78BFF0546DCE741F6C9
:108F30001D55DAE748F20965DBE700BFEC5F00206A
:108F4000AC5F00203060002010B584B004460023E0
:108F5000009301930293C36800930DF10E016846DC
:108F6000FFF7F0FC18B948F2096004B010BD019891
:108F70008388E38003882381BDF80E10FFF760FF2C
:108F8000F3E7000000B583B00B4842680B4B19684B
:108F9000B3F804C0538803339BB24FF0030E80F83C
:108FA00000E0002000909B0001EB8C01044800F0E1
:108FB000D5FF03B05DF804FBD05F002028600020DF
:108FC0007859002008B5064B191D5888FFF78CFC0E
:108FD00010B1FFF7D7FF08BDFFF7F4FDFBE700BFB7
:108FE000D05F002008B50748FFF74AFD10B1FFF732
:108FF000E9FF08BD044B00221A705A805A6041F6FE
:109000001D50F6E7D25F0020D05F002030BB08B5CE
:10901000154B1B7B6BB1144B00221A73124B1B7840
:10902000013B062B1DD8DFE803F0070A0D101C13C7
:109030001600FFF783FDF1E7FFF7D4FF08BDFFF748
:10904000C1FFFBE7FFF79EFFF8E7FFF7BBFDF5E782
:10905000FFF784FEF2E7FFF7EBFDEFE74FF4064082
:10906000704748F20E60E9E7D05F002010B584B089
:109070000B4B01AA00210630FFF79EFC40B9084BBC
:1090800099880298FFF7DCFE0446204604B010BD24
:10909000044608220021024806F0A7FDF5E700BFBC
:1090A00034600020C8B908B50B79012B0BD0022B16
:1090B00016D013B148F20E6008BD02230B710846AA
:1090C000FFF742FFF8E70846FFF7D0FF48F20963D1
:1090D0009842F1D141F61D50EEE74FF4064070473B
:1090E00041F61D50E8E7000008B50146014800F0D0
:1090F0004BFB08BD1460002008B5084B1B683BB152
:109100000121064800F0FBFB003818BF012008BD14
:1091100003494FF4247000F0ADFAF1E72460002019
:109120006001030010B586B004462CE02E48FFF71E
:109130002DFD2E4B18602AE02D4940F29E5000F084
:1091400099FA28E02046FFF791FD002849D0002336
:109150000193029303930493059341F61D539842A0
:109160003DD00290214C01A92068FFF7BBFA01A86D
:10917000FFF7A6FA002323601B48FFF7B5FFFFF7B0
:10918000BBFF70B30024194B1B68002BCED0174BCC
:109190001B68002BD0D0154B19680B78013B052BB1
:1091A0001AD801A252F823F045910200C1910200A1
:1091B000C1910200C9910200C9910200D19102003F
:1091C0002046FFF75BFEC0E72046FFF76BFFBCE7DA
:1091D0002046FFF71BFFB8E748F20E60B7E7002014
:1091E000BFE706B010BD00BFE05F0020E85F0020D1
:1091F0006001030008B54068FFF794FF08BD000058
:1092000008B50121014800F06FFB08BDE45F0020B4
:1092100010B50146044800F094FA04461C220021CF
:1092200006F0E3FC204610BD1460002008B501469E
:10923000014800F092FA08BD1460002008B5012131
:10924000034800F046FB00B108BDFFF76BFFFBE7EA
:10925000246000202DE9F04383B00C46384909789A
:1092600000295DD005469846002C5CD021884FF639
:10927000FF7399425AD06388002B5AD0676817F061
:10928000030759D1002A33D01388ADF80630B2F85D
:1092900002906846FFF7BCFF0646002833D080F8EE
:1092A000008000238375BDF8063083826368036104
:1092B000FFF7A6FFF060238833816388B380A6F8A8
:1092C0000690B8F1030F26D0002373816846FFF79C
:1092D000ADFF3DB100236B60F2682A60AB72194BA1
:1092E0001B892B81FFF7AAFF384603B0BDE8F08346
:1092F000B4F808900DF106014846FFF7B9FA0028C6
:10930000C7D00746F0E7BDF806104846FFF7DEFA7B
:1093100048F20767E8E70423B3752B68B361D3E726
:1093200048F20167E0E748F20467DDE748F20367C7
:10933000DAE748F20367D7E748F20267D4E700BFED
:10934000C85F0020D05F002010B370B582B00C461B
:10935000054601B30DF10601FFF7F4FA18B948F21A
:10936000096002B070BD6E68BDF8063003EB830083
:1093700080000830094B18440121043000F0B4FA91
:1093800026606B680C3363600123AB720020E8E752
:1093900048F20460704748F20460E2E7EC5F0020A6
:1093A000F8B110B582B004460DF10601FFF7CAFA14
:1093B000D0B1BDF8063003EB8301104A02EB810205
:1093C000D268AAB1A27AB2B10C4A02EB8101C96893
:1093D000013903EB830302EB8303D9600020A07201
:1093E00004E048F20460704748F2096002B010BD22
:1093F00048F20560FAE748F20560F7E7EC5F002005
:1094000008B502230022FFF725FF08BD28B108B5E3
:1094100003230022FFF71EFF08BD48F204607047D7
:10942000114B1B78BBB110B582B004464FF6FF73E9
:10943000984213D001A8FFF7EBFE90B1052202700D
:1094400001220271C48001A8FFF7F0FEFFF7F6FECB
:10945000002002B010BD48F20160704748F203607E
:10946000F7E748F20760F4E7C85F002000B583B073
:10947000ADF80600ADF8041001A90DF10600FFF7E4
:109480009BFA03B05DF804FB00B583B01346ADF85A
:1094900006000A460DF106010020FFF78DFA03B021
:1094A0005DF804FB00B583B01346ADF806000A462C
:1094B00000210DF10600FFF77FFA03B05DF804FB11
:1094C00020B131B103680B600020704748F204609E
:1094D000704748F2046070471EF0040F1CBFEFF3A2
:1094E00009800AE0EFF308800549064A884201D85E
:1094F000904202D88D464FF00000034B1847000001
:109500000000042000F8032031950200BFF34F8FC4
:109510000549CA6802F4E062044B1343CB60BFF311
:109520004F8F00BFFDE700BF00ED00E00400FA052B
:1095300070B582B00646FEF7DDFDFEF717F900288C
:10954000FBD1404B9D6A26B33F4B404CE41AE408E4
:10955000240444F00104B2693D492046FEF7BEFAF6
:10956000B368F26801920093736832683949204603
:10957000FEF76EFCF3690093736932693649204641
:10958000FEF7D0FB2F4BDB6A13F0020F0CD1002447
:1095900020E02D4B2D48C01AC00800042F4940F090
:1095A0000100FEF71DFAEDE7274B2848C01AC00856
:1095B00000042B4940F00100FEF712FAE7E7224BC6
:1095C0002248C01AC0080004264940F00100FEF7F6
:1095D00085FA0134192C09D80123A3402B42F8D075
:1095E000214B53F82420002AE9D1F2E715F0800F2F
:1095F0000ED115F4004F18D1124BD3F8F03013F000
:10960000010F00D000BE3046FFF780FF02B070BDF2
:109610000D4B0E48C01AC00800040A4B5A6B134980
:1096200040F00100FEF75AFAE3E7074B0748C01A7B
:10963000C0080004034B9A6B0D4940F00100FEF78F
:109640004DFAD9E700ED00E060FD020098FD020050
:10965000CC010300E40103001C02030044020300E8
:1096600078020300BC020300E4070300C802030001
:10967000E802030000B583B0009001916A46002122
:1096800044F20200FEF7A2FE03B05DF804FB82B0D4
:1096900050E8013F1FFA83FCC289944482899445B3
:1096A00028BFACEB020C0289944502BFBFF32F8F99
:1096B000002007E0CCEA030C40E801C2002AE7D111
:1096C0004FF001008DF807000093009B0B609DF8A0
:1096D000070002B0704750E8012FC2EA024240E89A
:1096E0000123002BF7D1704782B050E8023F1FFAE8
:1096F000A3FCC288944502BFBFF32F8F00200EE069
:10970000C28994448289944528BFACEB020CC3EA19
:109710000C4C40E802C2002AE7D14FF001008DF85E
:1097200007000093009B0B609DF8070002B0704794
:1097300050E8022FC2EA224240E80223002BF7D170
:10974000704738B505460C46FFF7A1FF18B12868E9
:109750002388184438BD0020FCE708B50A884B88E8
:109760009A4201D0002008BDFFF7B5FF0120FAE7BB
:1097700038B505460C46FFF7B7FF18B1286863886F
:10978000184438BD0020FCE708B50A884B889A4287
:1097900001D0002008BDFFF7CBFF0120FAE708B594
:1097A0004B0901F01F01012202FA01F100EB8300D5
:1097B00000F06EF808BD10B54B0901F01F0401213F
:1097C000A14000EB830000F058F8E04000F00100F9
:1097D00010BD08B54A0901F01F01012303FA01F188
:1097E000C94300EB820000F069F808BD4B0950F84E
:1097F000230001F01F01C84000F0010070472DE96F
:10980000F04106460F46002518E0202300E0202303
:109810001F2B12D803EB4514A7420ED92146304620
:10982000FFF7C9FFE0B1D8F80030DB4393FAA3F3A8
:10983000002BECD0B3FA83F3EAE701357B1E5B091A
:109840000133AB420BD906EB850856F82530DB43D4
:1098500093FAA3F3002BD8D0B3FA83F3D8E73C46AE
:109860002046BDE8F081034653E8000F0A4643E86E
:10987000002C9CF0000FF7D17047034653E8000F0F
:1098800040EA010243E8002C9CF0000FF6D170473B
:10989000034653E8002F42EA010043E8000C9CF025
:1098A000000FF6D17047034653E8000F00EA0102AB
:1098B00043E8002C9CF0000FF6D17047034653E8B4
:1098C000002F02EA010043E8000C9CF0000FF6D1E3
:1098D0007047034653E8000F00EB010243E8002CF9
:1098E0009CF0000FF6D17047034653E8002F02EBBF
:1098F000010043E8000C9CF0000FF6D170470346CE
:1099000053E8002FA2EB010043E8000C9CF0000F8D
:10991000F6D1704708B50121FFF7BAFF08BD08B5B9
:109920000021FFF7C0FF08BD38B50C46054620B141
:10993000EB68288A00FB043038BD0249E820FFF7B5
:1099400099FEF5E74C08030038B50C46054630B1E2
:10995000E868241A288AB4FBF0F0C0B238BD024986
:10996000F520FFF787FEF3E74C08030000283DD001
:1099700010B50446036873B163688BB1A368ABB1DB
:10998000E368CBB1238AEBB1A2686368D21AD2B282
:1099900021680B6022E01649FF20FFF76BFEEBE722
:1099A00013494FF48070FFF765FEE7E7104940F276
:1099B0000110FFF75FFEE3E70D494FF48170FFF7F9
:1099C00059FEDFE70A4940F20310FFF753FEDBE7D9
:1099D00021680A68501C086013701A46531EDBB2D7
:1099E000002AF5D123680020187110BD0E207047A1
:1099F0004C08030030B583B00446E8B100238DF86D
:109A000007300DF10700FEF703FE22681368616856
:109A10008B4217D9591E116013F8011C2046FFF71D
:109A200083FF0546A368226811685B1ADBB21179CF
:109A3000994208D2137106E006494FF49270FFF77D
:109A400019FEDBE700259DF80700FEF715FE284606
:109A500003B030BD4C08030070B582B00C4606461A
:109A6000B0B1DCB100238DF807300DF10700FEF72F
:109A7000CFFD33681D686A1C1A6021463046FFF727
:109A800063FF28709DF80700FEF7F6FD02B070BD79
:109A9000054940F24710FFF7EDFDE2E702494FF4B8
:109AA000A470FFF7E7FDDDE74C08030010B504469E
:109AB00040B1A2682AB163692168206998470023F0
:109AC000A36010BD02493120FFF7D4FDF1E700BFCC
:109AD000B00803000EB430B582B0059D0446A0B1B5
:109AE0006369BBB12368D3B16368EBB145B10023AF
:109AF000019306AB019301AA2946204600F020F904
:109B000002B0BDE8304003B070470A494220FFF779
:109B1000B1FDE5E707494320FFF7ACFDE2E7054962
:109B20004420FFF7A7FDDFE702494520FFF7A2FD2C
:109B3000DCE700BFB008030010B5026883685C1C56
:109B40008460D154826843689A4200D210BDFFF706
:109B5000ADFFFBE72DE9F84F82460F4615461E463E
:109B6000DDF828900B9A0B464FF0010803E0B3FB99
:109B7000F5F308F10108AB42F9D2B04500D2B04686
:109B800012F0010B13D1B9F1000F10D012F0020F37
:109B90000FD086B1202405E009F1FF392146504657
:109BA000FFF7CAFFB9F1000F01D0C145F4D8012475
:109BB00006E02024F6E73024F4E7013E05FB04F438
:109BC000012EFAD8B7FBF4F39D42F7D9B7FBF4F3B3
:109BD00004FB13770E4AD15C5046FFF7ADFF2346D6
:109BE000B4FBF5F4AB42F1D2BBF1000F02D0B9F1F6
:109BF000000F07D1BDE8F88F09F1FF392021504649
:109C0000FFF79AFFB9F1000FF4D0C145F4D8F1E79E
:109C1000680903002DE9F04782B080460F461446DC
:109C200099460A9EDDF82CA081EAE17CACEBE17C50
:109C3000012502E09CFBF4FC01356445FADD4D454D
:109C400000D24D462EB1002F02DB1AF0040F00D0D7
:109C5000013E1AF0020F02D0B9F1000F03D01AF042
:109C6000010F00D1CEB9002F1CDB1AF0040F1FD159
:109C70000AF00303022B20D0CDF804A000964B4637
:109C8000224639464046FFF765FF02B0BDE8F0873F
:109C9000013E20214046FFF74FFF002EE3D0AE42A9
:109CA000F6D8E0E77F422D214046FFF745FFDFE78A
:109CB0002B214046FFF740FFDAE7B9F1000FDBD177
:109CC0002EB9D9E7013E30214046FFF735FF002E7F
:109CD000D2D0AE42F6D8CFE7F8B506460D461446C8
:109CE00013F001070ED1F1B1084605F0D3FF074686
:109CF00019E0013501373046FFF71EFF29780029AA
:109D0000F7D106E00027F9E7013C20213046FFF7B4
:109D100013FFBC4201D9002CF6D1F8BD013C202133
:109D20003046FFF709FFBC4201D9002CF6D1297853
:109D30000029F2D001353046FFF7FEFEF7E70000BC
:109D4000F0B583B00C461646054648B16B696BB159
:109D50002B688BB16B68ABB1002C40F08980D8E0E8
:109D60006F4940F25220FFF785FCEFE76C494FF452
:109D70001570FFF77FFCEBE7694940F25520FFF7CC
:109D800079FCE7E7664940F25620FFF773FCE3E70A
:109D90000027012203E047F00107013482B1217856
:109DA0002D29F8D0302903D02B2905D00022F5E742
:109DB00047F002070134F1E747F004070134EDE70B
:109DC0002A290CD02178A1F13000C0B209280CD882
:109DD000013402EB820201EB4202303AF0E73368D1
:109DE000191D31601B681A44013423782E2B02D0D0
:109DF0000023217810E0013400232178A1F1300004
:109E0000C0B20928F5D8013403EB830301EB430307
:109E1000303BF2E714F8011F6C29FBD06829F9D018
:109E200025296FD020D378291ED858291CD358391A
:109E3000202919D8DFE801F03C181818181818184C
:109E4000181818112618181818261818181818187D
:109E500050181847183118183C0033681A1D326022
:109E600019782846FFF768FE01342378002B4ED07E
:109E700014F8011B00294AD0252989D02846FFF76C
:109E80005BFEF2E73168081D3060096801970092B7
:109E90000A222846FFF7BEFEE6E73168081D30605B
:109EA0000968019700920A222846FFF753FEDBE774
:109EB0003168081D30600968019700921022284619
:109EC000FFF748FED0E731680B1D33603B46096859
:109ED0002846FFF701FFC7E733681A1D32601F6885
:109EE00030212846FFF728FE78212846FFF724FE78
:109EF0000023019308230093102239462846FFF7D8
:109F000029FEB1E725212846FFF716FEACE72B7B9B
:109F10000BB903B0F0BD2846FFF7C8FDF9E700BF55
:109F200008090300C3688B4206D81144013903694C
:109F3000994203D9002070470020704701207047E4
:109F400010F0030F0CBF01200020704743681B680E
:109F5000013B0B420CBF0120002070472DE9F0416E
:109F600082B0002831D00E4615461C460746002A0E
:109F70003BD0D0F80080B8F1000F46D0002B54D071
:109F800043685A68B4FBF2F302FB1343002B5CD125
:109F90000846FFF7D5FF002867D02846FFF7D0FF17
:109FA000002872D0224631463846FFF7BBFF002812
:109FB0007BD0D8F80C80089B009323462A46314674
:109FC0003846C04702B0BDE8F081404B4048C01A57
:109FD000C00800040E2400943E4B3F4A3F4940F025
:109FE0000100FDF79FFE2046ECE7384B3848C01AC9
:109FF000C00800040E240094364B394A374940F01B
:10A000000100FDF78FFE2046DCE7304B3048C01AD8
:10A01000C0080004082400942E4B324A2F4940F017
:10A020000100FDF77FFE2046CCE7284B2848C01AE8
:10A03000C008000409240094264B2B4A274940F00D
:10A040000100FDF76FFE2046BCE7204B2048C01AF8
:10A05000C0080004092400941E4B244A1F4940F004
:10A060000100FDF75FFE2046ACE7184B1848C01A08
:10A07000C008000410240094164B1D4A174940F0F4
:10A080000100FDF74FFE20469CE7104B1048C01A18
:10A09000C0080004102400940E4B164A0F4940F0EB
:10A0A0000100FDF73FFE20468CE7084B0848C01A28
:10A0B000C008000410240094064B0F4A074940F0E2
:10A0C0000100FDF72FFE20467CE700BF60FD020087
:10A0D000A8FD0200400B030078090300800903007B
:10A0E0000C0A0300B4090300C8090300140A0300A2
:10A0F000400A0300580A03007C0A03002DE9F041DE
:10A1000082B0F0B1884614461F460546066846B33D
:10A11000002A36D0FFF71AFF002842D06B681A6871
:10A1200004FB02F241462846FFF7FCFE002848D017
:10A1300036693B46224641462846B04702B0BDE854
:10A14000F081284B2848C01AC00800040E2400944F
:10A15000264B274A274940F00100FDF7E3FD204642
:10A16000ECE7204B2048C01AC008000408240094E3
:10A170001E4B214A1F4940F00100FDF7D3FD204648
:10A18000DCE7184B1848C01AC008000409240094E2
:10A19000164B1A4A174940F00100FDF7C3FD20464F
:10A1A000CCE7104B1048C01AC008000410240094DB
:10A1B0000E4B134A0F4940F00100FDF7B3FD204656
:10A1C000BCE7084B0848C01AC008000410240094DB
:10A1D000064B0C4A074940F00100FDF7A3FD20465D
:10A1E000ACE700BF60FD0200A8FD02002C0B0300DD
:10A1F0007809030080090300B4090300C8090300BB
:10A20000A40A0300CC0A030029DF704728DF704747
:10A2100003689B68002B29D000B587B0002300930A
:10A22000019302930393049305930191836805932B
:10A23000037943B1012B10D003689B6868469847A7
:10A2400007B05DF804FB01238DF800300369029329
:10A25000C368039343690493EEE702238DF800304B
:10A26000C3681B03029343690493E5E7704710B585
:10A2700042698369D21AB2F5805F28BF4FF48052D9
:10A2800092080469C168012A38BF012219441819CB
:10A29000FFF7BAFF10BD08B5C26800691044FFF7A8
:10A2A000B5FF08BD114B0022DA6003791BB1012B09
:10A2B0000FD01046704742698369D11AB1F5805FAB
:10A2C00094BF5B1803F5805383619A4209D0002044
:10A2D00070470369013303614269934203D0002050
:10A2E0007047012070470120704700BF4C6000207C
:10A2F000064AD3680133D360082B01D80020704789
:10A3000013460022DA600120704700BF4C60002035
:10A31000034B01225A74187AB0FA80F04009704752
:10A320004C60002008B502490248FFF72DFA08BD2D
:10A33000606000203C60002008B505490548FFF733
:10A3400017FA054B1860003818BF012008BD00BF80
:10A35000606000203C6000206460002008B51A4B5B
:10A360001B7AA3B1184B02221A72184B1868037992
:10A37000ABB1012B1CD00321144B1868FFF748FF29
:10A38000114B00221A725A60FFF7CCFF08BDFFF78D
:10A39000D3FF0028E6D10C4B00225A60F6E7FFF706
:10A3A00066FF40B11128E6D1074B01221A72EDE792
:10A3B000FFF771FFF5E7044B1B7C002BE6D1002172
:10A3C000022000F005F8E1E74C6000206460002006
:10A3D000831E012B2DD810B50446164B1B7A53B1A2
:10A3E000022B03D1022807D0032818D0114B5B7C25
:10A3F000E3B9FFF7B3FF10BD0F4B1868FFF752FF2B
:10A400000028F3D00B4B00221A720B4B1868022C59
:10A410000AD00D21FFF7FCFEFFF784FFE6E7064BAD
:10A420001868FFF765FFEBE71146F3E705F0F8F86A
:10A43000E1E770474C60002064600020012802D0F2
:10A44000032800D0704708B5054B00225A74012834
:10A4500014BF002001201874FFF780FF08BD00BF63
:10A460004C6000202DE9F04F83B0884601929B4656
:10A470009DF830900446D0B1B4F806A0637903FB90
:10A480000AFAAAF1040ADA4516D9E7880BF104039F
:10A49000B3FBF7F607FB1633019A156805EB0B02C1
:10A4A000524501D9AAEB0B05019A15600BE0194939
:10A4B000B620FFF7DFF8DFE71649C420FFF7DAF828
:10A4C000E3E72468013E002EFBD1A7EB030AAA456F
:10A4D00028BFAA46B3460DE052460146184605F08D
:10A4E0005BFB2468A5EB0A05D344BA46AF4228BFFC
:10A4F000AA4633465DB108EB0B0023440433B9F19F
:10A50000000FE9D05246194605F046FBE9E703B0D3
:10A51000BDE8F08F540B030008B5FFF727FA08BD1C
:10A52000F8B501464679701E0A46002301E012681C
:10A5300001338342FBD31768002405E00D683846D9
:10A54000FFF78AFA01342946A642F7D8F8BD2DE96B
:10A55000F8430746048AA4F1040841440331B1FBDF
:10A56000F8F8FFF747FA0646F8B100250571012310
:10A570004371043CC4805FFA88F808F1FF38076033
:10A580008146454511D23846FFF734FA044640B1BA
:10A59000737901337371C9F8000007600135814692
:10A5A000EFE73046FFF7BCFF26463046BDE8F883AC
:10A5B00008B501210430FFF797F908BD10B504462E
:10A5C00001210430FFF79BF910F0FF0F00D010BD00
:10A5D0002046FFF7A5FFFAE710B584B014460392B2
:10A5E0000022009203AAFFF73DFF039BA34201D183
:10A5F00004B010BD0249F620FFF73CF8F8E700BFB1
:10A60000540B030010B584B014460392012200924B
:10A6100003AAFFF727FF039BA34201D104B010BD9B
:10A6200002494FF48070FFF725F8F7E7540B030059
:10A630008268002393608268136182685361826834
:10A64000D3608268536082681360704738B50C46E7
:10A65000054638B15CB12C6023686B606268934238
:10A660000AD038BD06495020FFF704F8F2E7044944
:10A670005120FEF7FFFFEEE700236B60F1E700BF1C
:10A68000B80B030010B5044658B1236873B1636872
:10A6900033B1226891680B446360526893420AD0D8
:10A6A00010BD06496320FEF7E5FFEEE7034964208D
:10A6B000FEF7E0FFEBE700236360F1E7B80B030070
:10A6C0000E4A02F594718A4215D2A1EB020C4FEAB0
:10A6D000DC7303EBEC035B1002EBC30C52F833307A
:10A6E000834201D96146EEE702D20CF10802EAE7A3
:10A6F000DCF8040070470020704700BF34100300EE
:10A7000008B5FFF7DDFF00B108BD0148FCE700BF59
:10A71000201003004FF08053D3F83031082B01D0C4
:10A7200000207047012070474FF08053D3F830313C
:10A73000082B01D000207047012070474FF0805354
:10A74000D3F83021D3F83431082A01D000207047E3
:10A75000002B04D8DFE803F001000120704700203F
:10A7600070474FF08053D3F83021D3F83431082AA2
:10A7700001D000207047002B04D8DFE803F001006F
:10A7800001207047002070474FF08053D3F83021EC
:10A79000D3F83431082A01D000207047002B04D8A8
:10A7A000DFE803F0010001207047002070474FF000
:10A7B0008053D3F83021D3F83431082A01D0002057
:10A7C0007047002B04D8DFE803F001000120704738
:10A7D000002070474FF08053D3F83031082B01D060
:10A7E0000020704701207047014B024A1A607047F1
:10A7F000945900200090D00308B5FFF78BFF40B1BB
:10A800004FF080430022C3F80C21C3F81021C3F895
:10A810003825FFF789FF002846D04FF08052D2F844
:10A820000414644BC3F82015D2F80814C3F8241597
:10A83000D2F80C14C3F82815D2F81014C3F82C154C
:10A84000D2F81414C3F83015D2F81814C3F834151C
:10A85000D2F81C14C3F84015D2F82014C3F84415DC
:10A86000D2F82414C3F84815D2F82814C3F84C15AC
:10A87000D2F82C14C3F85015D2F83014C3F854157C
:10A88000D2F83414C3F86015D2F83814C3F864153C
:10A89000D2F83C14C3F86815D2F84014C3F86C150C
:10A8A000D2F84424C3F87025FFF748FF18B1424B93
:10A8B000424AC3F88C26FFF754FF18B1404BFB22E5
:10A8C000C3F81825FFF760FF70B14FF08041D1F851
:10A8D000E43E23F00F034FF08052D2F8582202F0EA
:10A8E0000F021343C1F8E43EFFF761FF20B1354B7F
:10A8F0004FF40072C3F84026FFF76CFF60B14FF0D1
:10A900008043D3F8003413F0010F05D04FF080439B
:10A910006FF00102C3F800242B4AD2F8883043F4C8
:10A920007003C2F88830BFF34F8FBFF36F8F4FF0C3
:10A930001023D3F80032002B08DB4FF01023D3F89C
:10A940000432002B02DBFFF74FFF08BD1F4B012233
:10A95000C3F804251D4BD3F80034002BFAD04FF078
:10A9600010231222C3F80022184BD3F80034002B16
:10A97000FAD04FF010231222C3F80422134BD3F85D
:10A980000034002BFAD0114B0022C3F804250F4BE2
:10A99000D3F80034002BFAD0BFF34F8F0A49CA68AE
:10A9A00002F4E0620A4B1343CB60BFF34F8F00BF4A
:10A9B000FDE700BF00C00040005000404881030098
:10A9C00000F000400090024000ED00E000E0014097
:10A9D0000400FA0543684B609A688A605160996088
:10A9E0000861036801330360704730B40D68B5F146
:10A9F000FF3F11D000F108031C465B681A68AA42A9
:10AA0000FAD963684B6099608C6061600861036883
:10AA10000133036030BC70470469F2E703694168A1
:10AA200082688A60416851605A68824206D000227A
:10AA300002611A68013A1A601868704782685A60A1
:10AA4000F5E70000064B19680868B0E8F04F80F39E
:10AA50000988BFF36F8F4FF0000080F311887047B3
:10AA600074600020EFF30980BFF36F8F144B1A68F6
:10AA70001EF0100F08BF20ED108A20E9F04F106083
:10AA80004DF8043D4FF0400080F31188BFF34F8F25
:10AA9000BFF36F8F00F0BEFB4FF0000080F3118812
:10AAA00008BC19680868B0E8F04F1EF0100F08BF26
:10AAB000B0EC108A80F30988BFF36F8F704700BF36
:10AAC0007460002008B5402383F31188094A136895
:10AAD00001331360012B00D008BD074B5B68C3F343
:10AAE0000803002BF8D0054940F21110FEF7C2FD13
:10AAF000F2E700BF7060002000ED00E05C11030091
:10AB000008B5084B1B683BB1064A1368013B13604C
:10AB10000BB983F3118808BD03494FF48C70FEF71D
:10AB2000A9FDF1E7706000205C11030008B5EFF3A8
:10AB30000583C3F308030F2B09D903F1E023F03396
:10AB400093F80033DBB20C4A12789A4208D80B4BC8
:10AB5000DB68C3F302230A4A12689A4206D308BD8F
:10AB600008494FF4A970FEF785FDF0E705494FF459
:10AB7000B170FEF77FFDF2E76860002000ED00E0B5
:10AB80006C6000205C110300F0B583B01A4B00220A
:10AB9000C3F84021D3F8401101910199EFF31187D7
:10ABA000402181F31188D3F80445C3F80021D3F87C
:10ABB00000310093009B00F023FA241A24F07F4414
:10ABC00034F0010301D1002509E000F021FC022846
:10ABD000F9D00124F7E700F021FA05433446661E58
:10ABE000002CF8D125B1054B4FF080525A6040BF80
:10ABF00087F3118803B0F0BD0010014000ED00E0C4
:10AC000010B50446FFF75EFFA26BE36B9A4204D0D7
:10AC10000024FFF775FF204610BD0124F9E770B549
:10AC200004461546866B026C5AB903681BB10020B6
:10AC30000136A66370BD406800F0FAFB0023636034
:10AC4000F6E76DB9806804F0A7FF226CA36813448F
:10AC5000A3606268934219D32368A3602846E7E79C
:10AC6000C06804F099FF226C5142E3689B1AE360CC
:10AC70002268934202D263680B44E360022D01D044
:10AC80000020D5E726B1013E0020D1E72846CFE7D6
:10AC90000020CDE738B50546FFF714FF95F845408D
:10ACA00064B201E0013C64B2002C0ADD6B6A43B17E
:10ACB00005F1240000F014FB0028F3D000F0A2FB03
:10ACC000F0E7FF2385F84530FFF71AFFFFF7FAFE9C
:10ACD00095F8444064B201E0013C64B2002C0ADD06
:10ACE0002B6943B105F1100000F0FAFA0028F3D007
:10ACF00000F088FBF0E7FF2385F84430FFF700FF02
:10AD000038BD0000F0B585B00F4601921D460446DF
:10AD100048B177B1022D15D000F07AFB08B9019B3C
:10AD2000CBB9002659E051494FF43770FEF7A2FC29
:10AD3000EFE7236C002BEDD04C4940F2DD20FEF70D
:10AD400099FCE7E7E36B012BE6D0484940F2DE20AF
:10AD5000FEF790FCE0E7454940F2E120FEF78AFC6F
:10AD6000DFE72A4639462046FFF759FF636A73B981
:10AD700040B13F4B4FF080525A6040BFBFF34F8FFE
:10AD8000BFF36F8FFFF7BCFE012005B0F0BD04F1EB
:10AD9000240000F0A5FA0028F4D0354B4FF0805283
:10ADA0005A6040BFBFF34F8FBFF36F8FEAE7FFF7E3
:10ADB000A7FE0020E9E702A800F0DAFA012619E070
:10ADC000002384F8443021E0002384F8453023E058
:10ADD0002046FFF75FFF00F0A1F9FFF773FEA26BBB
:10ADE000E36B9A42BDD3022DBBD0019B002BDED07A
:10ADF000002EE0D0FFF784FE00F0FAF8FFF762FEC5
:10AE000094F8440040B2B0F1FF3FD9D094F8450027
:10AE100040B2B0F1FF3FD7D0FFF772FE01A902A800
:10AE200000F0B2FAD0B92046FFF7EAFE0028CFD0F2
:10AE3000019904F1100000F039FA2046FFF72AFFCB
:10AE400000F06CF90028C8D1094B4FF080525A60CD
:10AE500040BFBFF34F8FBFF36F8FBEE72046FFF7B2
:10AE600019FF00F05BF900208FE700BFC811030055
:10AE700000ED00E02DE9F8430E4691461D460446DC
:10AE8000A0B1CEB1022D20D0FFF750FEEFF3118814
:10AE9000402383F31188A26BE36B9A421ED3022DE9
:10AEA0001CD0002088F31188BDE8F8831E4940F2C9
:10AEB000A230FEF7DFFBE4E7236C002BE2D01A4957
:10AEC00040F2A330FEF7D6FBDCE7E36B012BDBD0CF
:10AED00015494FF46970FEF7CDFBD5E794F845703E
:10AEE0007FB22A4631462046FFF799FEB7F1FF3F71
:10AEF00005D001377FB284F845700120D2E7636A3C
:10AF00000BB90120CEE704F1240000F0E9F930B1DB
:10AF1000B9F1000F05D00120C9F80000C2E70120F7
:10AF2000C0E70120BEE700BFC8110300084B1B6843
:10AF30001B6823B9074B4FF0FF321A607047044B70
:10AF40001B68DB68DB685A68024B1A60704700BFF9
:10AF500078600020CC60002070B504460D461D4B83
:10AF60001E681D4B18680430FFF758FD50B91A4B86
:10AF70001B68DA6A012303FA02F218490B6823EA14
:10AF800002030B60B4F1FF3F0DD03444124B1B6839
:10AF90005C60A64210D9124B18680F4B1968043137
:10AFA000FFF723FD70BD002DEFD00B4B1968043166
:10AFB0000C48FFF70FFDF5E70B4B1868064B1968B7
:10AFC0000431FFF712FD094B1B68A342EAD9074B76
:10AFD0001C60E7E70061002074600020C86000206A
:10AFE0007C600020EC60002078600020CC600020B5
:10AFF000024A136801331360704700BFC460002029
:10B00000014B1868704700BF0061002008B5FFF7CA
:10B010008DFD014B186808BD00610020F8B5334B69
:10B020001B68002B56D1324B1E6801361E607EB95C
:10B03000304B1B681B688BB92E4A11682E4B186861
:10B04000106019602D4A136801331360FFF76EFF1B
:10B050002B4B1B68B34233D9002740E0294940F607
:10B060003320FEF707FBE7E70127224B1B681B682D
:10B0700043B3204B1B68DB68DC6863689E4226D3C1
:10B08000251D2846FFF7CAFCA36A1BB104F118006E
:10B09000FFF7C4FCE36A01229A401B490868024397
:10B0A0000A6003EB83039A00294618481044FFF70F
:10B0B00091FCE26A164B1B68DB6A9A42D4D2D4E751
:10B0C0000027D2E70E4B4FF0FF321A6007E00C4A20
:10B0D000136004E00F4A13680133136000270E4B1E
:10B0E0001B6803B101273846F8BD00BFC4600020CB
:10B0F00000610020786000207C600020D06000208B
:10B10000CC60002024120300C86000208060002072
:10B1100074600020C06000200461002038B5334B0B
:10B120001B686BB1FFF7CEFC304B1A68013A1A600E
:10B130001B68002B54D12E4B1B683BB9002450E0F8
:10B140002C494FF40460FEF795FAEBE700242A4BF4
:10B150001B681BB3284BDB68DC6804F11800FFF7A1
:10B160005DFC251D2846FFF759FCE06A012383405A
:10B17000224A11680B43136000EB80002946204BE4
:10B1800003EB8000FFF726FCE26A1E4B1B68DB6ABC
:10B190009A42DCD31C4B01221A60D8E70CB1FFF7AE
:10B1A000C5FE1A4B1C687CB9174B1C68CCB1184BF8
:10B1B0004FF080525A6040BFBFF34F8FBFF36F8F85
:10B1C00001240EE0013C07D0FFF728FF0028F9D04A
:10B1D0000D4B01221A60F5E70C4B00221A60E3E7E1
:10B1E0000024FFF78DFC204638BD00BFC46000205E
:10B1F000BC60002024120300D4600020C86000203E
:10B20000806000207460002004610020C060002085
:10B2100000ED00E01F4B1B681BB11F4B01221A60A1
:10B22000704710B51C4B00221A601C4B1C6814B3ED
:10B23000B4FA84F4C4F11F0404EB84029300184AA6
:10B24000D358D3B1164A04EB84018B0013445968D8
:10B250004968596004EB8400830008331A44914222
:10B2600011D004EB8404A2000D4B13445B68DA6830
:10B270000C4B1A6010BD2024DCE70B494FF43560FD
:10B28000FEF7F8F9DEE749688200054B1344596080
:10B29000E7E700BFC460002004610020C860002010
:10B2A00080600020746000202412030038B50C4632
:10B2B000054650B1084B196818312846FFF795FB31
:10B2C00001212046FFF748FE38BD04494FF436609F
:10B2D000FEF7D0F9EEE700BF7460002024120300EF
:10B2E00038B5C368DC683CB304F118052846FFF79D
:10B2F00095FB184B1B682BBB251D2846FFF78EFBC3
:10B30000E06A01238340144A11680B43136000EB89
:10B3100080002946114B03EB8000FFF75BFBE26ADC
:10B320000F4B1B68DB6A9A4211D901240D4B1C603C
:10B33000FFF7FCFD204638BD0B4940F6BB30FEF759
:10B3400099F9D1E729460948FFF744FBE7E70024CC
:10B35000EEE700BFC4600020C860002080600020CD
:10B36000746000200461002024120300D4600020D7
:10B37000034B1B680360034B1B684360704700BFAF
:10B38000D060002000610020F8B50C460546B8B139
:10B39000E4B1FFF797FB184B19686B68C81A22686D
:10B3A000B2F1FF3F20D0154E36682F68B74201D06A
:10B3B0008B421ED982420FD800232360012414E05F
:10B3C0000F4940F62640FEF755F9E1E70C4940F6F3
:10B3D0002740FEF74FF9DCE75B1A13442360284649
:10B3E000FFF7C6FF002400E00024FFF789FB20469A
:10B3F000F8BD0124F9E700BF00610020D060002003
:10B4000024120300014B01221A60704704610020DE
:10B41000054B1B6833B1054B1B680BB1002070470F
:10B420000220704701207047E8600020C4600020BF
:10B43000002845D038B50446234B1B68834204D00E
:10B44000224940F63B70FEF715F9E36B4BB1E36B15
:10B45000013BE363E16AA26B914233D03BB1002030
:10B4600038BD1A4940F63C70FEF704F9EFE7251D98
:10B470002846FFF7D3FA68B9E26A02EB82039B0021
:10B480001349CB5833B90123934012490A6822EA81
:10B4900003020A60A06BE062C0F10303A361012410
:10B4A00004FA00F30B4A11680B43136000EB8000B1
:10B4B0002946074B03EB8000FFF78CFA2046CFE7C5
:10B4C000002070470020CBE77460002024120300A6
:10B4D00080600020C8600020F8B50D460446A0B189
:10B4E000FFF724FBEFF31186402383F3118894F8D0
:10B4F0004430DBB2022284F84420226C0132226400
:10B50000012B08D086F31188F8BD1B4941F2BC20FD
:10B51000FEF7B0F8E4E7A36A23B1174941F2E2204D
:10B52000FEF7A8F8154B1B68E3B9271D3846FFF74F
:10B5300075FAE06A01238340114A11680B431360D6
:10B5400000EB800039460F4B03EB8000FFF742FA17
:10B55000E26A0D4B1B68DB6A9A42D3D945B10123DD
:10B560002B60CFE704F118010848FFF733FAEFE743
:10B57000074B01221A60C5E724120300C4600020B3
:10B58000C86000208060002074600020D46000202B
:10B5900004610020F0B585B00C4615461E460746EE
:10B5A00098B1154B186828B3009401950297052CA3
:10B5B00019DCFFF72DFF02280DD000231A4669463B
:10B5C0000D480068FFF79EFB12E00C4940F2831023
:10B5D000FEF750F8E5E700230A9A69460648006836
:10B5E000FFF790FB04E0002332466946FFF742FC78
:10B5F00005B0F0BD0020FBE70861002080120300C9
:10B600000346006808B102681A60704708B504F084
:10B610001BF820B9074BD3F800342BB108BD0649FD
:10B620007B20FEF727F8F5E700F016F9034B002220
:10B630009A70F3E700000140DC1203000C61002067
:10B6400000B1704708B5064B01225A7002E043680A
:10B65000002098470348FFF7D3FF0028F7D108BD23
:10B660000C6100201461002010B5044610B1012CBB
:10B670000DD010BD0C4B01225A7002E0436800202F
:10B6800098470A48FFF7BCFF0028F7D1EFE7064BC1
:10B6900001229A7002E04368012098470448FFF7AE
:10B6A000AFFF0028F7D1E4E70C610020146100200F
:10B6B0001C61002010B5104B1B784BB185240F4B3B
:10B6C000D3F8003413B10C4B01229A70204610BD00
:10B6D000094B00229A605A601A61DA60084800F04B
:10B6E00081F8044603F0B0FF18B1034B01221A7031
:10B6F000E5E700F08FF8F8E70C610020000001405A
:10B7000069B6020000B583B0144B1B78B3B1134B7C
:10B71000DB68CBB100238DF807300DF10700FCF793
:10B7200077FF0E4BDA68013ADA60DB6893B19DF877
:10B730000700FCF7A1FF03B05DF804FB084940F2E5
:10B740001710FDF797FFE2E705494FF48C70FDF7FE
:10B7500091FFDFE7FFF75AFFE9E700BF0C61002028
:10B76000DC12030000B583B001280ED0032824D0DA
:10B7700010B103B05DF804FB174B0122C3F8802021
:10B78000BFF34F8FBFF36F8FF3E700238DF80730C0
:10B790000DF10700FCF73CFF104B1B7853B10F4B2A
:10B7A000DA680132DA6001229A709DF80700FCF72E
:10B7B00063FFDEE7FFF77EFFF1E7084B1B7823B15D
:10B7C00000F028F8FFF79EFFD3E7054940F252202A
:10B7D000FDF750FFF4E700BF00E100E00C6100203E
:10B7E000DC12030010B5044648B1084B1B795BB965
:10B7F000064B1C6001221A710020587110BD0449CB
:10B80000A420FDF737FFF0E78520F7E7206100204F
:10B810004413030008B50D4B1B7953B10C4B1B6847
:10B8200013F0010F0AD04FF080430122C3F818250E
:10B8300008BD0849BD20FDF71DFFEFE7044BC022FE
:10B8400083F8002301221A60EDE700BF2061002089
:10B8500000E100E04413030000B583B00F4B1B79F7
:10B86000BBB14FF080430222C3F808230022C3F883
:10B870000421D3F804210192019A0122DA604FF0E9
:10B880008043D3F8183413F4803FF8D103B05DF847
:10B8900004FB0349F720FDF7EDFEE2E720610020FD
:10B8A0004413030000B583B04FF08043D3F8003158
:10B8B0009BB14FF080430022C3F80021D3F8002150
:10B8C0000092009A0122C3F80823104B5B7923B938
:10B8D0000E4B5A711B68002098474FF08043D3F8F5
:10B8E00004317BB14FF080430022C3F80421D3F828
:10B8F00004210192019A0222C3F80823034B1B681A
:10B900000120984703B05DF804FB00BF20610020D0
:10B91000034B034493F9600000F03F00704700BF01
:10B9200028610020034B034493F96000C0F38110A9
:10B93000704700BF2861002082B08446114B93E815
:10B94000030002AB03E90300604600230BE002AAF8
:10B9500002EB830252F8082CD2F8201540F8041BA1
:10B96000C2F820150133012BF1D90023012B04D893
:10B970005CF8232022B90133F8E7002002B07047B9
:10B980000120FBE7E41303002DE9F8430646B5E088
:10B990004FF0FF3352E0002350E05A494FF4F67065
:10B9A000FDF768FE50E023464FF0A04251E04FF013
:10B9B000030958E04FF0FF335BE0002359E05149A1
:10B9C0004FF4F670FDF756FE59E023464FF0A042C3
:10B9D0005AE04FF0FF336BE0002369E049494FF430
:10B9E000F670FDF747FE69E021464FF0A0426AE09D
:10B9F000B8F1010F78D14146204698470135032D13
:10BA000078D8414B2B4493F96030B3F1FF3FF5D028
:10BA10002846FFF77DFF0446C20800F00701012316
:10BA20008B40B25C1342E9D02846FFF77BFF80468B
:10BA30006309ADD0012BAED14FF6FF7304F01F02A6
:10BA4000D34013F0010FA8D01F2CACD904F01F0372
:10BA50002E4A03F5E07352F82370C7F30147022F13
:10BA6000A5D04FF002096309A4D0012BA5D14FF650
:10BA7000FF7304F01F02D34013F0010F9FD01F2C5F
:10BA8000A3D904F01F03214A03F5E07352F82310F1
:10BA900021F4403142F8231052F8231041EA0941C1
:10BAA00042F82310630994D0012B95D14FF6FF7310
:10BAB00004F01F02D34013F0010F8FD01F2C93D935
:10BAC00004F01F01114A01238B40C2F820350E4BB0
:10BAD0001A1992F9302053F82230002B8ED0B8F189
:10BAE000030F88D0022F83D0032F87D1B8F1020F24
:10BAF00084D180E73046FFF71FFF08B100257EE7BD
:10BB0000BDE8F883AC130300286100200003005057
:10BB100070B586B000250495059501204FF480731B
:10BB2000294603E0400004339BB20131072912D8B3
:10BB300003F1804202F5C0421468012CF2D12B4C73
:10BB4000D4F804432042EDD000241460126800921F
:10BB5000009A0543E6E7254BD3F87C31012B06D04C
:10BB600015F0FF0F3BD1002D3CDB06B070BD1F4A26
:10BB70000023C2F87C31D2F87C210192019A45F071
:10BB800000451B4902AA03C982E8030004A80BE090
:10BB900006AA02EB830252F8102CD2F8201540F8C6
:10BBA000041BC2F820150133012BF1D9D8E7760028
:10BBB0000134072CD7D82E42F9D00C4B04F5A272D1
:10BBC00053F82200C0F3052053F82210C1F30141BD
:10BBD000084B53F82430002BE9D09847E7E70126BB
:10BBE0000024E6E704A8FFF7CFFEBEE700600040B0
:10BBF000E413030028610020034610F0010F09D16F
:10BC0000032013F0020F01D048F2012013F0040FBB
:10BC100003D170474FF40240F3E748F20220F8E7FF
:10BC20004A6B8B6A9A4207D00023C0F80035052280
:10BC3000C0F80025184670470120704703464A6B3C
:10BC4000886A824205D2496A8A5CC3F81C250120B1
:10BC5000704791F82C0030B90A6A12F0400F06D1F3
:10BC60000120586170470122DA61002070470122EB
:10BC7000DA6181F82D20704784464B6B8A6A9342C3
:10BC800029D24A6AD0F81805D0544B6B01334B6364
:10BC90008A6A501E834207D093420DD0934211D03E
:10BCA0000120CCF820007047086A10F0400FF3D153
:10BCB0000223CCF80032F3E7086A10F0400FEDD110
:10BCC000012070470B6A13F0400FE9D0022381F87E
:10BCD0002D30002070470120704770B58AB00446AF
:10BCE0000D46D0F8043113B30023C0F80431D0F866
:10BCF00004310193019B012695F82F30CBB100232D
:10BD0000C4F82431D4F824210492049AC4F81C31D4
:10BD1000D4F81C210392039AC4F80831D4F80831EE
:10BD20000293029B002E57D101200AB070BD00265D
:10BD3000E2E7D4F824315BB10023C4F82431D4F80D
:10BD400024310593059B0123636185F82F30E9E7D2
:10BD5000D4F81C31FBB10023C4F81C31D4F81C31D9
:10BD60000693069B6B6B01336B63D4F824315BB194
:10BD70000023C4F82431D4F824310793079B01230E
:10BD8000636185F82F30CDE729462046FFF756FF3F
:10BD90000028C7D1C9E7D4F80831002BC2D000234E
:10BDA000C4F80831D4F808310893089BD4F824313A
:10BDB0005BB10023C4F82431D4F824310993099BE2
:10BDC0000123636185F82F30ACE729462046FFF751
:10BDD00053FF0028A6D1A8E7002385F82D3095F859
:10BDE0002F300BB10020A0E729462046FFF718FFAF
:10BDF00080F0010085F82F00F4E7000030B587B02F
:10BE000004460D462D4B05930023C0F80431D0F8AD
:10BE100004210492049AC0F82431D0F8242103921A
:10BE2000039AC0F81C31D0F81C210292029AC0F883
:10BE30000831D0F808210192019AC0F800324B6312
:10BE400081F82F300123036291F82D30012B01D0AE
:10BE50000123836029462046FFF7F0FE2B685BB183
:10BE600040F28623AB60AB68C4F80433002007B00F
:10BE700030BD059B013B0593059B002B05DD294645
:10BE80002046FFF72AFF0028F3D195F82F303BB169
:10BE9000D4F8C404C4F8C40470B1FFF7ADFE00E0E8
:10BEA0000020059B002BE2DC0023C4F800350523AD
:10BEB000C4F800350320DAE70320F2E7A08601008A
:10BEC00030B587B004460D46314B05930023C0F8CA
:10BED0000431D0F804210492049AC0F82431D0F837
:10BEE00024210392039AC0F81C31D0F81C2102923D
:10BEF000029AC0F80831D0F808210192019A4B63E8
:10BF000081F82F308B6A012B15D00123C4F8003241
:10BF10000123236295F82D30022B01D001232360E9
:10BF20002B689BB140F28623AB60AB68C4F8043346
:10BF3000002007B030BD0B6A13F0400FE5D102239B
:10BF4000C0F80032E4E7059B013B0593059B002BFD
:10BF500005DD29462046FFF7C0FE0028F3D195F8FD
:10BF60002F303BB1D4F8C404C4F8C40470B1FFF757
:10BF700043FE00E00020059B002BDADC0023C4F820
:10BF800000350523C4F800350320D2E70320F2E78B
:10BF9000A086010070B586B005460C460B6833B329
:10BFA00021462846FFF799FE002865D194F82F60B6
:10BFB00026B9227B931EDBB2012B1ED90DF1040C96
:10BFC00004F10C0EBEE80F00ACE80F00DEF8003004
:10BFD000CCF80030002E3ED0D5F8C434C5F8C434B7
:10BFE00013F0020F25D001238DF8003036E02349ED
:10BFF00040F2BD20FDF73EFBD2E7616AA36999429A
:10C00000DCD1E36963626369A362236AC3F340130B
:10C0100084F82C30002384F82D30032A04D02146E4
:10C020002846FFF74DFF27E021462846FFF7E6FEAA
:10C0300022E013F0040F03D002238DF800300DE04E
:10C0400013F0010F03D003238DF8003006E0042322
:10C050008DF8003002E000238DF80030002384F8D2
:10C060003030236A13F0040F02D094F82F301BB144
:10C07000236861686846984706B070BDEC130300FA
:10C0800008B502490248FFF785FF08BD946100200A
:10C0900000300040032824D8012A06D001290CD002
:10C0A000022910D0B1B107207047012901D0002228
:10C0B000F4E700F10E02D2B2F0E700EB40000A4BC9
:10C0C0001A540020704700EB4000074B18444270A0
:10C0D0000020704700EB4000034B184482700020A2
:10C0E00070470720704700BFD061002008B50122CB
:10C0F00000210846FFF7CEFF10B10346072812D1F2
:10C10000072202210120FFF7C5FF034608B10728D7
:10C1100009D1042202210020FFF7BCFF034610B121
:10C12000072800D10023184608BD08B501220221C6
:10C130000020FFF7AFFF10B10346072812D10722F6
:10C1400002210120FFF7A6FF034608B1072809D105
:10C150000A2200210846FFF79DFF034610B1072879
:10C1600000D10023184608BD08B50388102B02D063
:10C17000112B12D008BD114B1B6823B10F4A136855
:10C1800001331360F6E7FFF7B1FF0028F6D00C4B40
:10C190001B68002BF2D09847F0E7084A1368013B70
:10C1A0001360002BE6D1FFF7C0FF0028E2D0044B5C
:10C1B0001B68002BDED09847DCE700BFE061002061
:10C1C000DC61002010B590B00DF1280C074C0FCCAD
:10C1D000ACE80F0094E803008CE803000723044A4E
:10C1E0000AA9684603F01CFC10B010BDDC14030063
:10C1F0000020004008B54FF400410020FBF74AFA48
:10C2000090B9FBF791F90B480B4BC01AC00800041A
:10C210000A4940F00300FBF7E3FBFBF7A7FA00280D
:10C22000FBD1FFF7CFFFFEE7054AEB21FCF7C0F893
:10C23000E7E700BF78FD020060FD0200C4140300C0
:10C240004C1403000369C268934204D88068801AC2
:10C250000344581E70479B1A581E70472DE9F84337
:10C26000044688461646C5688768A7EB05099145C8
:10C2700007D94068284403F08FFC3544E560BDE8E9
:10C28000F88340684A46284403F086FCED1B354499
:10C290002A4608EB0901606803F07EFCE560EEE7E2
:10C2A0002DE9F843064688461746C5684FF0000951
:10C2B00018E0641B621EB3685C1B944228BF1446DE
:10C2C000BC4228BF3C46706822464146284403F0E1
:10C2D00063FCA144A0443F1B2544B368AB4209D092
:10C2E000F5604FB13469A542E3D3B268641B1444CE
:10C2F000621EE0E70025F3E74846BDE8F88300004A
:10C3000010B5114C022323616361104AA261104BE6
:10C31000E3614FF4007323620023A3626362E3626C
:10C32000A2640C4AE26410222265A3656365E3659A
:10C330000949E01D03F08CFC0849204603F088FC05
:10C340002023A37110BD00BFE4610020F41403009A
:10C350006C6200205C6200200015030004150300DD
:10C36000F8B50F461646184B451C05EB450503EB83
:10C37000C50500EB400003EBC000C46A012C11D0DE
:10C38000022C1CD014B100242046F8BD2846FFF72B
:10C3900059FF8642F8D8324639462846FFF75EFFF5
:10C3A0003446F1E72846FFF74DFF3446864228BF62
:10C3B0000446224639462846FFF750FFE4E7284660
:10C3C000FFF76EFF0446DFE7E461002008B5FFF7E2
:10C3D00097FF08BD00230BB10020704703EB8302D9
:10C3E000054931F82220824201D00133F3E703EB03
:10C3F000830301EB830070478864002030B5B0F8F8
:10C4000004C002EB0C04944594BFACEB0C0CACEBF9
:10C41000020CC2889D189A4294BF921AD21A4B8875
:10C42000B0F800E073450ED3408883420DD88B8866
:10C4300063450CD3A3420CD8CB8893420BD3AB42B9
:10C440000BD8012000E0002030BD0020FCE70020D8
:10C45000FAE70020F8E70020F6E70020F4E7000004
:10C4600008B5024B9B6903B1984708BD6C64002076
:10C4700010B58088FFF7AEFF38B104464068FCF77E
:10C4800085F818B94FF6FF73238010BDFFF7E8FF5A
:10C49000F8E7000000B583B002460B46497A69B957
:10C4A000197A41B90D4949685868FCF717F888B1FD
:10C4B000FFF7D6FF0EE009498968F5E700211972F8
:10C4C000064B5B6933B101218DF80410ADF806000D
:10C4D00001A8984703B05DF804FB00BF6C6400201E
:10C4E00070B5C37B8688012B1DD104464FF6FF70C3
:10C4F000FFF770FF0546B8B10680002303720F4BAB
:10C5000003CBC5F80A00C5F80E104FF6FF7340F2D2
:10C51000F31204F1100105F10A00FFF76FFF6872D2
:10C52000074BDB8923B170BD0420FFF799FFFAE7C1
:10C5300029463046FFF7AEFFF5E700BF9C640020B8
:10C540006C64002070B5044686883046FFF742FFD1
:10C5500070B105464FF6FF7340F2F31204F1080183
:10C560000A30FFF74BFF687229463046FFF792FF0B
:10C5700070BD0000C288124BDB899A4200D0704720
:10C5800070B50446038A022B00D070BD858828460A
:10C59000FFF720FF06460028F7D004F1120000F054
:10C5A000CDF920B131462846FFF774FFEDE77068FA
:10C5B000FBF7ECFF0028E8D0FFF752FFE5E700BFEC
:10C5C0006C64002008B50388122B0FD006D8102BFE
:10C5D00009D0112B09D1FFF74BFF06E0502B04D1F6
:10C5E000FFF7C8FF01E0FFF77BFF08BDFFF7AAFFD9
:10C5F000FBE7000008B501460148FDF7F7F808BD64
:10C60000A4640020F0B583B00190B9B116460F467E
:10C61000019D85B9284603B0F0BD0134132CF9D82B
:10C62000214601A8FDF7E2F80028F6D03146A0B275
:10C63000B8470135F1E700242546EFE70025E9E793
:10C64000132801D90020704738B50446054D01462E
:10C6500005F10800FDF7A3F82146281DFDF79FF816
:10C66000012038BDA464002038B50546002407E049
:10C67000054800EB840029460430FDF7AAF8013490
:10C680001D2CF5D938BD00BFA464002008B50146B3
:10C690000148FDF79EF808BDAC64002008B512B152
:10C6A000FDF77DF808BDFDF794F8FBE730B583B0E2
:10C6B0000546019100230360019B93B9284603B00E
:10C6C00030BD0134132CF9D8214601A8FDF78EF8AE
:10C6D0000028F6D02B685A1C2A6005EB43039C8087
:10C6E000EFE70024EEE7000010B598B0134A936816
:10C6F000DB431793516817A8FDF7E0F817996846D0
:10C70000FFF7D4FF0DF1300C6C460FCCACE80F00F6
:10C710000FCCACE80F0094E807008CE80700002479
:10C7200007E018AB03EB440333F82C0CFFF79CFF36
:10C7300001340C9BA342F4D818B010BDA4640020AF
:10C7400070B5044685880388103B0A2B1ED8DFE8A5
:10C7500003F0061A1D1D1D1D1D1D1D3D1E00FFF7AA
:10C76000C3FF2846FFF76CFF38B1E37B022B0DD1E6
:10C7700029461C48FDF713F808E01B4AF021042065
:10C78000FBF716FE02E02846FFF780FF70BD027A35
:10C790001609164C3F2A94BF00220122294604F1B3
:10C7A0001800FFF77BFF022E94BF002201222946CA
:10C7B00004F11400FFF772FF012E94BF0022012242
:10C7C000294604F11000FFF769FFDFE7037A002B29
:10C7D000DCD1427AC2F3C00229460548FFF75EFF6A
:10C7E000D4E700BFB06400200C150300A46400204F
:10C7F000BC640020132801D90020704708B5014609
:10C800000148FCF7F3FF08BDA864002010B50446FA
:10C81000FFF7F0FF08B9002010BD21460348FCF7E0
:10C82000E5FF08B90120F7E70220F5E7B064002032
:10C8300010B50446FFF7DEFF08B9002010BD214601
:10C840000348FCF7D3FF08B90120F7E70220F5E71A
:10C85000AC64002010B50446FFF7CCFF00B910BD52
:10C8600021460248FCF7C2FFF9E700BFB46400208C
:10C8700010B50446FFF7BEFF00B910BD21460248BF
:10C88000FCF7B4FFF9E700BFB864002010B5044618
:10C89000FFF7B0FF00B910BD21460248FCF7A6FF24
:10C8A000F9E700BFBC64002038B505460C460846D1
:10C8B000FFF7A0FE08B9002038BD2846FFF79AFF11
:10C8C0000028F8D00634044800EB840029460430E0
:10C8D000FCF78CFFF0E700BFA464002070B50646AB
:10C8E0000C4615460846FFF785FE00B970BD304678
:10C8F000FFF780FF0028F9D00634044800EB8400DD
:10C900002A4631460430FFF7C9FEEFE7A464002051
:10C9100070B504460E461546FFF76CFE08B90020B8
:10C9200070BDA01D044C04EB800040682A463146CF
:10C93000FFF768FEF4E700BFA4640020007800F071
:10C9400001007047A0DF7047A1DF7047ADDF70477F
:10C95000B3DF7047B4DF70478379012B01D000202B
:10C9600070470379012B01D000207047428842F6BE
:10C9700002139A4201D0002070470120704738B559
:10C980000446408800F022FEA080002505B138BD95
:10C99000204601F0EDFC0135F8E700B587B0002333
:10C9A0000193029303930493059307238DF80430B6
:10C9B000ADF80600039101A8FFF7E1FF07B05DF8AD
:10C9C00004FB000070B586B000230193029303932B
:10C9D00004930593ADF806004FF6FF73984226D0F6
:10C9E000044600F09FFC054611283FD015D800B33F
:10C9F0000B2826D10F238DF804301D4B1D48C01A7B
:10CA0000C008000422461C4940F00200FBF766F80B
:10CA100001A8FFF7B4FF002204E043F202039842AA
:10CA20000FD10022154B19782046FFF757FF06B0AB
:10CA300070BD0E238DF8043001A8FFF7A0FF00227F
:10CA4000F0E70B4B0B4EF61AF60836042846FDF7B6
:10CA500057FE024623460A4946F00100FBF7CEF88E
:10CA600029462046FFF799FF0022DBE70122D9E79C
:10CA700060FD0200D8FD02006C1503002765002050
:10CA8000EC15030008B5FFF79DFF08BD10B504467F
:10CA900000F0AAFC00B910BD0122034B1978204612
:10CAA000FFF71CFFF7E700BF2965002010B582B033
:10CAB000044600F08BFD00236A46092100F0CEFFFA
:10CAC000052801D002B010BD0122034B1978204681
:10CAD000FFF704FFF6E700BF2565002010B582B020
